:100000000C942A000C9447000C9447000C94470071
:100010000C94EE080C94A2080C9447000C94470032
:100020000C9447000C9447000C94840B0C94380BF0
:100030000C9447000C9447000C9447000C94470024
:100040000C9447000C9447000C9447000C94470014
:100050000C94470011241FBECFE5D8E0DEBFCDBF12
:1000600012E0A0E6B0E0EAEAF1E402C005900D92E9
:10007000A632B107D9F712E0A6E2B2E001C01D92A4
:10008000A434B107E1F70E94161B0C94D3200C9402
:100090000000EF92FF920F931F937B018C0120E0F1
:1000A00030E040E05FE40E94250488238CF0C80122
:1000B000B70120E030E040E05FE40E94C1010E940F
:1000C00013059B01AC01205030404040504806C011
:1000D000C801B7010E9413059B01AC01B901CA0117
:1000E0001F910F91FF90EF900895A0E0B0E0EBE733
:1000F000F0E00C94EE1DDC012B01FA019C91923092
:1001000008F439C1EB018881823008F433C194309E
:1001100069F4843009F02FC111969C91119789815F
:10012000981709F428C1A2EAB0E025C1843009F487
:1001300021C18230A9F4923009F01DC19A01AD01AC
:1001400088E0EA010990AE01E90109929E0181501F
:10015000C1F7E201898111969C918923818308C1AD
:10016000923009F407C112962D903C901397EB0141
:100170008A819B811496AD90BD90CD90DC901797AD
:10018000EC80FD800E811F819101281B390BB90184
:1001900037FF04C066277727621B730B6032710537
:1001A0000CF061C0121613066CF537014801062EDB
:1001B00004C096948794779467940A94D2F721E0C8
:1001C00030E040E050E004C0220F331F441F551FB1
:1001D0006A95D2F721503040404050402E213F21B7
:1001E00040235123211531054105510521F021E01E
:1001F00030E040E050E079018A01E628F72808293C
:1002000019293CC0232BD1F1260E371E350146019A
:10021000062E04C096948794779467940A94D2F734
:1002200021E030E040E050E004C0220F331F441FC3
:10023000551F6A95D2F721503040404050402A2146
:100240003B214C215D21211531054105510521F04E
:1002500021E030E040E050E059016A01A628B728CB
:10026000C828D9280BC0821593052CF01C01AA249C
:10027000BB24650103C0EE24FF24870111969C91E5
:10028000D20111968C91981709F445C0992339F041
:10029000A80197012A193B094C095D0906C0A6016E
:1002A00095012E193F09400B510B57FD08C01182D3
:1002B0003382228224833583468357831DC081E0A5
:1002C00081833382228288279927DC01821B930B4A
:1002D000A40BB50B84839583A683B7830DC0220F2F
:1002E000331F441F551F24833583468357838281E0
:1002F000938101979383828324813581468157813D
:10030000DA01C9010197A109B1098F5F9F4FAF4F72
:10031000BF4328F30BC0918333822282EA0CFB1C7B
:100320000C1D1D1DE482F5820683178383E0808304
:10033000248135814681578157FF1AC0C901AA27F8
:1003400097FDA095BA2F81709070A070B0705695EF
:10035000479537952795822B932BA42BB52B848318
:100360009583A683B7838281938101969383828349
:10037000DF0101C0D201CD01CDB7DEB7E2E10C94BF
:100380000A1EA0E2B0E0E7ECF1E00C94FA1D6983EC
:100390007A838B839C832D833E834F835887E9E048
:1003A000EE2EF12CEC0EFD1ECE010196B7010E943F
:1003B00004078E010F5E1F4FCE010596B8010E9403
:1003C00004078A8991E089278A8BC701B801AE01A9
:1003D000475E5F4F0E9475000E942F06A096E6E0E0
:1003E0000C94161EA0E2B0E0E8EFF1E00C94FA1DC8
:1003F00069837A838B839C832D833E834F835887C5
:10040000F9E0EF2EF12CEC0EFD1ECE010196B701A6
:100410000E9404078E010F5E1F4FCE010596B801A2
:100420000E940407C701B801AE01475E5F4F0E94FA
:1004300075000E942F06A096E6E00C94161EA0E21E
:10044000B0E0E5E2F2E00C94EE1D69837A838B83E1
:100450009C832D833E834F835887CE010196BE0136
:10046000675F7F4F0E940407CE010596BE016F5E55
:100470007F4F0E9404079985923088F089898230E5
:10048000C8F0943019F4823051F404C0843029F457
:10049000923081F482EA90E0C6C0923049F420E0C4
:1004A0009A858A89981321E02A87CE010996BBC0D4
:1004B000823049F420E09A858A89981321E02A8BBA
:1004C000CE014196B0C02D843E844F8458886D88FB
:1004D0007E888F88988CEE24FF248701AA24BB2471
:1004E000650140E050E060E070E0E0E0F0E0C10174
:1004F00081709070892BE9F0E60CF71C081D191D1E
:100500009A01AB012A0D3B1D4C1D5D1D80E090E062
:10051000A0E0B0E0E614F7040805190520F481E036
:1005200090E0A0E0B0E0BA01A901480F591F6A1F8E
:100530007B1FAA0CBB1CCC1CDD1C97FE08C081E0F5
:1005400090E0A0E0B0E0A82AB92ACA2ADB2A3196B6
:10055000E032F10549F0660C771C881C991C569412
:10056000479437942794C3CFFA85EA892B893C892D
:100570008B859C85280F391F2E5F3F4F17C0CA01FE
:1005800081709070892B61F016950795F794E79428
:1005900080E090E0A0E0B0E8E82AF92A0A2B1B2BC3
:1005A00076956795579547952F5F3F4F77FDE7CF36
:1005B0000CC0440F551F661F771F17FD4160EE0CDE
:1005C000FF1C001F111F21503040403090E05907A0
:1005D00090E0690790E4790760F32B8F3C8FDB0193
:1005E000CA018F779070A070B07080349105A1051A
:1005F000B10561F447FD0AC0E114F10401051105DC
:1006000029F0405C5F4F6F4F7F4F40781A8EFE1786
:1006100011F081E08A8F4D8F5E8F6F8F78A383E01A
:10062000898FCE0149960E942F06A096E2E10C9494
:100630000A1EA8E1B0E0EFE1F3E00C94F61D698337
:100640007A838B839C832D833E834F835887B9E0C5
:10065000EB2EF12CEC0EFD1ECE010196B7010E948F
:1006600004078E010F5E1F4FCE010596B8010E9450
:1006700004072985223008F47EC03989323010F40D
:10068000B8017CC08A859A8989278A87243011F02D
:10069000223031F4231709F06EC062EA70E06EC0B8
:1006A000343039F41D861E861F86188A1C861B86E8
:1006B00004C0323021F484E08987B7015FC02B8504
:1006C0003C858B899C89281B390B3C872B87ED84C3
:1006D000FE840F851889AD88BE88CF88D88CEA142F
:1006E000FB040C051D0540F4EE0CFF1C001F111F40
:1006F000215030403C872B8720E030E040E050E044
:1007000080E090E0A0E0B0E460E070E0EA14FB0478
:100710000C051D0540F0282B392B4A2B5B2BEA18C2
:10072000FB080C091D09B695A79597958795EE0CC2
:10073000FF1C001F111F6F5F7F4F6F31710531F775
:10074000DA01C9018F779070A070B0708034910584
:10075000A105B10561F427FD0AC0E114F10401050A
:10076000110529F0205C3F4F4F4F5F4F20782D87B8
:100770003E874F87588BBE01675F7F4FCB010E943A
:100780002F066896EAE00C94121EA8E1B0E0EBECAC
:10079000F3E00C94FA1D69837A838B839C832D8309
:1007A0003E834F83588789E0E82EF12CEC0EFD1E26
:1007B000CE010196B7010E9404078E010F5E1F4F04
:1007C000CE010596B8010E9404078985823040F069
:1007D0008989823028F0C701B8010E947C0701C0D6
:1007E00081E06896E6E00C94161EA8E1B0E0EBEF1D
:1007F000F3E00C94FA1D69837A838B839C832D83A9
:100800003E834F83588789E0E82EF12CEC0EFD1EC5
:10081000CE010196B7010E9404078E010F5E1F4FA3
:10082000CE010596B8010E9404078985823040F008
:100830008989823028F0C701B8010E947C0701C075
:100840008FEF6896E6E00C94161EA8E1B0E0EBE2AC
:10085000F4E00C94FA1D69837A838B839C832D8347
:100860003E834F83588789E0E82EF12CEC0EFD1E65
:10087000CE010196B7010E9404078E010F5E1F4F43
:10088000CE010596B8010E9404078985823040F0A8
:100890008989823028F0C701B8010E947C0701C015
:1008A0008FEF6896E6E00C94161EA8E1B0E0EBE549
:1008B000F4E00C94FA1D69837A838B839C832D83E7
:1008C0003E834F83588789E0E82EF12CEC0EFD1E05
:1008D000CE010196B7010E9404078E010F5E1F4FE3
:1008E000CE010596B8010E9404078985823040F048
:1008F0008989823028F0C701B8010E947C0701C0B5
:1009000081E06896E6E00C94161EA8E1B0E0EBE802
:10091000F4E00C94FA1D69837A838B839C832D8386
:100920003E834F83588789E0E82EF12CEC0EFD1EA4
:10093000CE010196B7010E9404078E010F5E1F4F82
:10094000CE010596B8010E9404078985823040F0E7
:100950008989823028F0C701B8010E947C0701C054
:1009600081E06896E6E00C94161EA8E0B0E0EBEBA0
:10097000F4E00C94F71D9B01AC0183E08983DA015C
:10098000C9018827B7FD83959927AA27BB27B82EC9
:10099000211531054105510519F482E089833AC0DA
:1009A0008823A9F0203080E0380780E0480780E8FD
:1009B000580729F460E070E080E09FEC30C0EE243E
:1009C000FF248701E21AF30A040B150B02C0790118
:1009D0008A018EE1C82ED12CDC82CB82ED82FE8290
:1009E0000F831887C801B7010E94E0050197181608
:1009F000190684F4082E04C0EE0CFF1C001F111F02
:100A00000A94D2F7ED82FE820F831887C81AD90A9A
:100A1000DC82CB82BA82CE0101960E942F062896F4
:100A2000E9E00C94131EACE0B0E0E9E1F5E00C94D1
:100A3000FE1D69837A838B839C83CE010196BE0160
:100A40006B5F7F4F0E9404078D81823061F182309D
:100A500050F1843021F48E81882351F12EC02F81F2
:100A6000388537FD20C06E812F3131051CF066239B
:100A7000F9F023C08EE190E0821B930B29853A8523
:100A80004B855C8504C056954795379527958A9583
:100A9000D2F76623B1F050954095309521953F4FA0
:100AA0004F4F5F4F0EC020E030E040E050E009C003
:100AB0002FEF3FEF4FEF5FE704C020E030E040E072
:100AC00050E8B901CA012C96E2E00C941A1EA8E085
:100AD000B0E0EDE6F5E00C94F61D7B018C016115AC
:100AE00071058105910519F482E0898360C083E076
:100AF00089838EE1C82ED12CDC82CB82ED82FE82EE
:100B00000F831887C801B7010E94E005FC013197E7
:100B1000F7FF3BC0222733272E1B3F0B57016801ED
:100B2000022E04C0D694C794B794A7940A94D2F71F
:100B300040E050E060E070E081E090E0A0E0B0E0F4
:100B400004C0880F991FAA1FBB1F2A95D2F70197CF
:100B5000A109B1098E219F21A023B1230097A105EE
:100B6000B10521F041E050E060E070E04A295B29E6
:100B70006C297D294D835E836F8378878EE190E0B9
:100B80008E1B9F0B9C838B8312C0309781F00E2E9F
:100B900004C0EE0CFF1C001F111F0A94D2F7ED8257
:100BA000FE820F831887CE1ADF0ADC82CB821A827C
:100BB000CE0101960E942F062896EAE00C94121EA0
:100BC000EF92FF920F931F937B018C0180E0E81658
:100BD00080E0F80681E0080780E0180788F48FEFCE
:100BE000E816F1040105110531F028F088E090E0E5
:100BF000A0E0B0E017C080E090E0A0E0B0E012C05C
:100C000080E0E81680E0F80680E0080781E0180739
:100C100028F088E190E0A0E0B0E004C080E190E03E
:100C2000A0E0B0E020E230E040E050E0281B390BCB
:100C30004A0B5B0B04C016950795F794E7948A95C9
:100C4000D2F7F701E655FF4F8081281B3109410992
:100C50005109C9011F910F91FF90EF900895DF9204
:100C6000EF92FF920F931F93FC01E480F5800681C1
:100C70001781D1808081823048F480E090E0A0E14B
:100C8000B0E0E82AF92A0A2B1B2BA5C0843009F40E
:100C90009FC0823021F4EE24FF24870105C0E114B7
:100CA000F1040105110519F4E0E0F0E096C062815D
:100CB00073819FEF623879070CF05BC022E83FEF49
:100CC000261B370B2A3131052CF020E030E040E0C4
:100CD00050E02AC0B801A701022E04C0769567959E
:100CE000579547950A94D2F781E090E0A0E0B0E0F4
:100CF00004C0880F991FAA1FBB1F2A95D2F701971E
:100D0000A109B1098E219F21A023B1230097A1053C
:100D1000B10521F081E090E0A0E0B0E09A01AB01E4
:100D2000282B392B4A2B5B2BDA01C9018F77907066
:100D3000A070B07080349105A105B10539F427FF8A
:100D400009C0205C3F4F4F4F5F4F04C0215C3F4FB5
:100D50004F4F5F4FE0E0F0E02030A0E03A07A0E026
:100D60004A07A0E45A0710F0E1E0F0E079018A01B7
:100D700027C06038710564F5FB01E158FF4FD801C9
:100D8000C7018F779070A070B07080349105A10575
:100D9000B10539F4E7FE0DC080E490E0A0E0B0E0DA
:100DA00004C08FE390E0A0E0B0E0E80EF91E0A1F57
:100DB0001B1F17FF05C016950795F794E79431960A
:100DC00087E016950795F794E7948A95D1F705C0C3
:100DD000EE24FF248701EFEFF0E06E2F6795662782
:100DE0006795902F9F77D794DD24D7948E2F869583
:100DF000492F462B582F5D29B701CA011F910F912A
:100E0000FF90EF90DF900895FC01DB01408151815C
:100E10002281622F6F7770E0221F2227221F938189
:100E2000892F880F822B282F30E0991F9927991F2F
:100E300011969C93119721153105A9F5411551057E
:100E40006105710511F482E037C082E89FEF1396C7
:100E50009C938E9312979A01AB0167E0220F331F88
:100E6000441F551F6A95D1F783E08C930DC0220F64
:100E7000331F441F551F12968D919C911397019714
:100E800013969C938E931297203080E0380780E071
:100E9000480780E4580758F314962D933D934D93DB
:100EA0005C93179708952F3F310579F4411551054B
:100EB0006105710519F484E08C93089564FF03C003
:100EC00081E08C9312C01C9210C02F5730401396B3
:100ED0003C932E93129783E08C9387E0440F551F29
:100EE000661F771F8A95D1F7706414964D935D93B2
:100EF0006D937C93179708951F93DC01FB019C91E0
:100F0000923008F447C08081823008F443C09430A6
:100F100051F411961C91843099F58181682F70E00D
:100F2000611B71093FC0843021F0923031F482306E
:100F3000B9F18181882389F12DC011961C911197F7
:100F40008230F1F081811817D9F412962D913C91DD
:100F50001397828193818217930794F0281739079A
:100F6000BCF014968D919D910D90BC91A02D248183
:100F7000358146815781281739074A075B0718F4DE
:100F8000112341F00AC082179307A407B50740F464
:100F9000112319F061E070E005C06FEF7FEF02C030
:100FA00060E070E0CB011F910895DF93CF9300D0F4
:100FB000CDB7DEB79A838983E3E4F0E089EF8083DD
:100FC00089819A81CC01A0E0B0E0809330029093B7
:100FD0003102A0933202B09333020F900F90CF9161
:100FE000DF910895DF93CF930F92CDB7DEB789835A
:100FF00089818536E0F494E68981292F281B822F88
:1010000089838981882321F4E3E4F0E010820FC012
:10101000E3E4F0E08981882F90E0982F882724E688
:1010200030E0B9010E94B81DCB01815080830F9040
:10103000CF91DF910895DF93CF93CDB7DEB7A5E4CD
:10104000B0E0E5E4F0E0808180648C93A5E4B0E05A
:10105000E5E4F0E0808188608C93A5E4B0E0E5E40D
:10106000F0E0808180618C93A5E4B0E0E5E4F0E0FD
:10107000808180628C93CF91DF910895DF93CF932D
:10108000CDB7DEB7A5E4B0E0E5E4F0E080818160B3
:101090008C93A5E4B0E0E5E4F0E0808182608C937D
:1010A000A5E4B0E0E5E4F0E080818B7F8C93CF9104
:1010B000DF910895DF93CF93CDB7DEB7A5E4B0E01D
:1010C000E5E4F0E080818E7F8C93A5E4B0E0E5E478
:1010D000F0E080818D7F8C93A5E4B0E0E5E4F0E062
:1010E00080818B7F8C93CF91DF910895DF93CF9395
:1010F00000D0CDB7DEB79A83898389819A81009722
:1011000031F089819A8190932702809326020F9073
:101110000F90CF91DF910895DF93CF9300D0CDB79B
:10112000DEB79A83898389819A81009731F089811A
:101130009A8190932902809328020F900F90CF916B
:10114000DF9108951F920F920FB60F9211242F93E3
:101150003F934F935F936F937F938F939F93AF933F
:10116000BF93EF93FF93DF93CF93CDB7DEB780911B
:101170002A0290912B02019690932B0280932A02CF
:1011800080912A0290912B0223E0813D920799F4ED
:10119000E4E4F0E081E7808310922B0210922A02AF
:1011A0008091260290912702009729F0E091260273
:1011B000F09127020995CF91DF91FF91EF91BF91B7
:1011C000AF919F918F917F916F915F914F913F91DF
:1011D0002F910F900FBE0F901F9018951F920F9296
:1011E0000FB60F9211242F933F934F935F936F93FA
:1011F0007F938F939F93AF93BF93EF93FF93DF936F
:10120000CF93CDB7DEB780912C0290912D02A091A3
:101210002E02B0912F020196A11DB11D80932C02C8
:1012200090932D02A0932E02B0932F0220913002B2
:1012300030913102409132025091330280912C0260
:1012400090912D02A0912E02B0912F0228173907FC
:101250004A075B0799F410922C0210922D0210920B
:101260002E0210922F02809128029091290200975D
:1012700029F0E0912802F09129020995CF91DF91A0
:10128000FF91EF91BF91AF919F918F917F916F915E
:101290005F914F913F912F910F900FBE0F901F9034
:1012A0001895DF93CF930F92CDB7DEB78983E3E430
:1012B000F0E0898180830F90CF91DF9108950F93A3
:1012C0001F93DF93CF9300D0CDB7DEB79A83898386
:1012D00006E410E089819A819C0140E050E080E9B9
:1012E00090EDA3E0B0E0BC01CD010E94CC1DDA017D
:1012F000C9010197F801918380830F900F90CF91DE
:10130000DF911F910F9108950F931F93DF93CF9358
:1013100000D000D0CDB7DEB769837A838B839C83FE
:1013200069817A818B819C8120E030E048EC52E435
:101330000E94850418160CF448C069817A818B815B
:101340009C8120E030E040E050E00E94C50388230B
:1013500029F4EAE4F0E01182108237C00AE410E0D8
:10136000E6E4F0E0808191810196CC01A0E0B0E05C
:10137000BC01CD010E946705DC01CB01BC01CD01A0
:1013800029813A814B815C810E941F02DC01CB01E3
:10139000BC01CD0120E030E048EC52E40E9419038A
:1013A000DC01CB01BC01CD0120E030E040E85FE38F
:1013B0000E94C101DC01CB01BC01CD010E944900AA
:1013C000DC01CB01F801918380830F900F900F9087
:1013D0000F90CF91DF911F910F910895DF93CF93DD
:1013E000CDB7DEB7AFE4B0E0EFE4F0E080818E7F10
:1013F0008C93AFE4B0E0EFE4F0E0808182608C9306
:10140000AEE4B0E0EEE4F0E0808188608C93AEE47E
:10141000B0E0EEE4F0E0808180618C93AFE4B0E076
:10142000EFE4F0E080818F7B8C93AFE4B0E0EFE4F9
:10143000F0E0808180688C9382E390E00E945F09F5
:10144000CF91DF910895DF93CF9300D0CDB7DEB772
:101450009A838983EAE4F0E089819A819183808389
:101460000F900F90CF91DF910895DF93CF93CDB779
:10147000DEB7AEE4B0E0EEE4F0E0808181608C9312
:10148000AEE4B0E0EEE4F0E0808182608C93AEE404
:10149000B0E0EEE4F0E080818B7F8C93CF91DF9120
:1014A0000895DF93CF93CDB7DEB7AEE4B0E0EEE4BE
:1014B000F0E080818E7F8C93AEE4B0E0EEE4F0E06B
:1014C00080818D7F8C93AEE4B0E0EEE4F0E080812B
:1014D0008B7F8C93CF91DF910895DF93CF9300D0D2
:1014E000CDB7DEB79A838983ECE5F0E089EF80839E
:1014F00089819A81CC01A0E0B0E080933E02909374
:101500003F02A0934002B09341020F900F90CF9101
:10151000DF910895DF93CF930F92CDB7DEB7898324
:1015200089818536D0F4ECE5F0E08981482F50E0E0
:10153000CA019C01220F331FC9019695982F882755
:1015400097958795821B930B840F951F24E630E0B7
:10155000B9010E94B81DCB0180830F90CF91DF911C
:101560000895DF93CF93CDB7DEB7A3E5B0E0E3E511
:10157000F0E0808180648C93A3E5B0E0E3E5F0E0E7
:101580008081877F8C93A3E5B0E0E3E5F0E0808184
:101590008F7E8C93A3E5B0E0E3E5F0E0808180628C
:1015A0008C93CF91DF910895DF93CF93CDB7DEB7C2
:1015B000A3E5B0E0E3E5F0E0808181608C93A3E5F2
:1015C000B0E0E3E5F0E0808182608C93A3E5B0E0D9
:1015D000E3E5F0E080818B7F8C93CF91DF910895DC
:1015E000DF93CF93CDB7DEB7A3E5B0E0E3E5F0E05E
:1015F00080818E7F8C93A3E5B0E0E3E5F0E080810D
:101600008D7F8C93A3E5B0E0E3E5F0E080818B7FF4
:101610008C93CF91DF910895DF93CF9300D0CDB716
:10162000DEB79A83898389819A81009731F0898115
:101630009A8190933502809334020F900F90CF914E
:10164000DF910895DF93CF9300D0CDB7DEB79A83B3
:10165000898389819A81009731F089819A81909359
:101660003702809336020F900F90CF91DF9108954B
:101670001F920F920FB60F9211242F933F934F9307
:101680005F936F937F938F939F93AF93BF93EF93EA
:10169000FF93DF93CF93CDB7DEB78091380290915F
:1016A0003902019690933902809338028091380272
:1016B0009091390223E0813D920799F4E2E5F0E050
:1016C00081E78083109239021092380280913402AF
:1016D00090913502009729F0E0913402F0913502A3
:1016E0000995CF91DF91FF91EF91BF91AF919F91BC
:1016F0008F917F916F915F914F913F912F910F90BB
:101700000FBE0F901F9018951F920F920FB60F9259
:1017100011242F933F934F935F936F937F938F93F6
:101720009F93AF93BF93EF93FF93DF93CF93CDB787
:10173000DEB780913A0290913B02A0913C02B091B9
:101740003D020196A11DB11D80933A0290933B0288
:10175000A0933C02B0933D0220913E0230913F02A3
:10176000409140025091410280913A0290913B0297
:10177000A0913C02B0913D02281739074A075B0748
:1017800099F410923A0210923B0210923C0210928D
:101790003D028091360290913702009729F0E09146
:1017A0003602F09137020995CF91DF91FF91EF91C9
:1017B000BF91AF919F918F917F916F915F914F9169
:1017C0003F912F910F900FBE0F901F901895DF93B0
:1017D000CF930F92CDB7DEB78983ECE5F0E0898136
:1017E00080830F90CF91DF910895DF93CF9300D046
:1017F00000D000D0CDB7DEB79C838B831A821982CC
:101800001A821982EAC129813A81C901880F991F78
:10181000280F391F8B819C81FC01E20FF31F80810F
:10182000282F30E03E832D838D819E81813091056C
:1018300009F485C02D813E81223031052CF48D8143
:101840009E81009771F0C4C12D813E812230310507
:1018500009F4E3C08D819E818330910509F44BC169
:10186000B7C129813A81C901880F991F280F391FF3
:101870008B819C81FC01E20FF31F8281813001F595
:10188000AAE3B0E0EAE3F0E08081482F29813A81C1
:10189000C901880F991F280F391F8B819C81FC017A
:1018A000E20FF31F8181282F30E081E090E0022ECB
:1018B00002C0880F991F0A94E2F7842B8C9388C189
:1018C000AAE3B0E0EAE3F0E08081482F29813A8181
:1018D000C901880F991F280F391F8B819C81FC013A
:1018E000E20FF31F8181282F30E081E090E002C0F9
:1018F000880F991F2A95E2F7809584238C93ABE398
:10190000B0E0EBE3F0E08081482F29813A81C90102
:10191000880F991F280F391F8B819C81FC01E20FD2
:10192000F31F8181282F30E081E090E0022E02C079
:10193000880F991F0A94E2F7842B8C9349C129815F
:101940003A81C901880F991F280F391F8B819C810B
:10195000FC01E20FF31F8281813001F5A7E3B0E0C3
:10196000E7E3F0E08081482F29813A81C901880F9F
:10197000991F280F391F8B819C81FC01E20FF31FF7
:101980008181282F30E081E090E0022E02C0880F94
:10199000991F0A94E2F7842B8C931AC1A7E3B0E055
:1019A000E7E3F0E08081482F29813A81C901880F5F
:1019B000991F280F391F8B819C81FC01E20FF31FB7
:1019C0008181282F30E081E090E002C0880F991FCC
:1019D0002A95E2F7809584238C93A8E3B0E0E8E3AE
:1019E000F0E08081482F29813A81C901880F991F31
:1019F000280F391F8B819C81FC01E20FF31F81812D
:101A0000282F30E081E090E0022E02C0880F991F5D
:101A10000A94E2F7842B8C93DBC029813A81C901B7
:101A2000880F991F280F391F8B819C81FC01E20FC1
:101A3000F31F8281813001F5A4E3B0E0E4E3F0E03C
:101A40008081482F29813A81C901880F991F280F69
:101A5000391F8B819C81FC01E20FF31F8181282FAC
:101A600030E081E090E0022E02C0880F991F0A94B6
:101A7000E2F7842B8C93ACC0A4E3B0E0E4E3F0E0A5
:101A80008081482F29813A81C901880F991F280F29
:101A9000391F8B819C81FC01E20FF31F8181282F6C
:101AA00030E081E090E002C0880F991F2A95E2F7AC
:101AB000809584238C93A5E3B0E0E5E3F0E080819A
:101AC000482F29813A81C901880F991F280F391F92
:101AD0008B819C81FC01E20FF31F8181282F30E074
:101AE00081E090E0022E02C0880F991F0A94E2F76D
:101AF000842B8C936DC029813A81C901880F991F6D
:101B0000280F391F8B819C81FC01E20FF31F82811A
:101B1000813001F5A1E3B0E0E1E3F0E08081482FFE
:101B200029813A81C901880F991F280F391F8B819C
:101B30009C81FC01E20FF31F8181282F30E081E0BE
:101B400090E0022E02C0880F991F0A94E2F7842BBE
:101B50008C933EC0A1E3B0E0E1E3F0E08081482F48
:101B600029813A81C901880F991F280F391F8B815C
:101B70009C81FC01E20FF31F8181282F30E081E07E
:101B800090E002C0880F991F2A95E2F78095842380
:101B90008C93A2E3B0E0E2E3F0E08081482F29815A
:101BA0003A81C901880F991F280F391F8B819C81A9
:101BB000FC01E20FF31F8181282F30E081E090E0EB
:101BC000022E02C0880F991F0A94E2F7842B8C938F
:101BD00089819A8101969A83898389819A81803249
:101BE00091050CF410CE26960FB6F894DEBF0FBE0A
:101BF000CDBFCF91DF910895DF93CF9300D000D078
:101C0000CDB7DEB789836A83898186958695869567
:101C1000282F30E03C832B838B819C818130910580
:101C200009F443C02B813C81223031052CF48B8197
:101C30009C81009771F0CEC02B813C812230310510
:101C400009F465C08B819C818330910509F491C0B2
:101C5000C1C08A818130A1F4AAE3B0E0EAE3F0E0F8
:101C60008081482F8981282F30E081E090E0022E8A
:101C700002C0880F991F0A94E2F7842B8C93AAC0A4
:101C8000AAE3B0E0EAE3F0E08081482F8981282FC1
:101C900030E081E090E0022E02C0880F991F0A9484
:101CA000E2F7809584238C9395C08A818130B9F4C2
:101CB000A7E3B0E0E7E3F0E08081482F8981882F37
:101CC00090E09C012770307081E090E0022E02C00D
:101CD000880F991F0A94E2F7842B8C937BC0A7E3AB
:101CE000B0E0E7E3F0E08081482F8981882F90E021
:101CF0009C012770307081E090E0022E02C0880FB6
:101D0000991F0A94E2F7809584238C9363C08A819B
:101D10008130B9F4A4E3B0E0E4E3F0E08081482F3F
:101D20008981882F90E09C012770307081E090E0DD
:101D3000022E02C0880F991F0A94E2F7842B8C931D
:101D400049C0A4E3B0E0E4E3F0E08081482F89815A
:101D5000882F90E09C012770307081E090E0022E87
:101D600002C0880F991F0A94E2F7809584238C9310
:101D700031C08A818130B9F4A1E3B0E0E1E3F0E061
:101D80008081482F8981882F90E09C0127703070D6
:101D900081E090E0022E02C0880F991F0A94E2F7BA
:101DA000842B8C9317C0A1E3B0E0E1E3F0E08081E5
:101DB000482F8981882F90E09C012770307081E046
:101DC00090E0022E02C0880F991F0A94E2F78095D6
:101DD00084238C930F900F900F900F90CF91DF91F1
:101DE0000895DF93CF9300D000D0CDB7DEB78983BD
:101DF0006A838981869586958695282F30E03C8375
:101E00002B838B819C818130910509F443C02B8108
:101E10003C81223031052CF48B819C81009771F03C
:101E2000CEC02B813C812230310509F465C08B8105
:101E30009C818330910509F491C0C1C08A818130B1
:101E4000A1F4ABE3B0E0EBE3F0E08081482F8981BF
:101E5000282F30E081E090E0022E02C0880F991F09
:101E60000A94E2F7842B8C93AAC0ABE3B0E0EBE3D7
:101E7000F0E08081482F8981282F30E081E090E0D8
:101E8000022E02C0880F991F0A94E2F780958423DE
:101E90008C9395C08A818130B9F4A8E3B0E0E8E37F
:101EA000F0E08081482F8981882F90E09C01277085
:101EB000307081E090E0022E02C0880F991F0A94D2
:101EC000E2F7842B8C937BC0A8E3B0E0E8E3F0E07A
:101ED0008081482F8981882F90E09C012770307085
:101EE00081E090E0022E02C0880F991F0A94E2F769
:101EF000809584238C9363C08A818130B9F4A5E3F3
:101F0000B0E0E5E3F0E08081482F8981882F90E000
:101F10009C012770307081E090E0022E02C0880F93
:101F2000991F0A94E2F7842B8C9349C0A5E3B0E093
:101F3000E5E3F0E08081482F8981882F90E09C01C3
:101F40002770307081E090E0022E02C0880F991F48
:101F50000A94E2F7809584238C9331C08A81813082
:101F6000B9F4A2E3B0E0E2E3F0E08081482F898198
:101F7000882F90E09C012770307081E090E0022E65
:101F800002C0880F991F0A94E2F7842B8C9317C024
:101F9000A2E3B0E0E2E3F0E08081482F8981882F5E
:101FA00090E09C012770307081E090E0022E02C02A
:101FB000880F991F0A94E2F7809584238C930F90E1
:101FC0000F900F900F90CF91DF910895DF93CF93F3
:101FD00000D000D00F92CDB7DEB78B838B81869572
:101FE000869586958A838A81282F30E03D832C83CD
:101FF0004C815D814130510549F18C819D81823058
:10200000910534F42C813D812115310569F059C0C9
:102010004C815D814230510569F18C819D81833015
:10202000910509F43BC04DC0E9E3F0E08081282F21
:1020300030E08B81882F90E0A90102C0559547952B
:102040008A95E2F7CA01817089833BC0E6E3F0E03C
:102050008081282F30E08B81882F90E087709070EE
:10206000A90102C0559547958A95E2F7CA0181708A
:10207000898327C0E3E3F0E08081282F30E08B8163
:10208000882F90E087709070A90102C05595479500
:102090008A95E2F7CA018170898313C0E0E3F0E01A
:1020A0008081282F30E08B81882F90E0877090709E
:1020B000A90102C0559547958A95E2F7CA0181703A
:1020C000898389810F900F900F900F900F90CF917F
:1020D000DF910895DF93CF9300D000D0CDB7DEB766
:1020E0008A838A81869586958695282F30E03C8361
:1020F0002B834B815C814130510509F43CC08B81BD
:102100009C818230910534F42B813C81211531056D
:1021100071F0ABC04B815C814230510509F454C071
:102120008B819C818330910509F477C09EC0ABE31D
:10213000B0E0EBE3F0E08081482F8A81282F30E087
:1021400081E090E002C0880F991F2A95E2F784276A
:102150008C93EBE3F0E08081282F30E08A81882F98
:1021600090E0A90102C0559547958A95E2F7CA010A
:10217000817089837AC0A8E3B0E0E8E3F0E0808171
:10218000482F8A81882F90E09C012770307081E071
:1021900090E002C0880F991F2A95E2F784278C935C
:1021A000E8E3F0E08081282F30E08A81882F90E0FA
:1021B00087709070A90102C0559547958A95E2F7FE
:1021C000CA018170898351C0A5E3B0E0E5E3F0E086
:1021D0008081482F8A81882F90E09C012770307081
:1021E00081E090E002C0880F991F2A95E2F78427CA
:1021F0008C93E5E3F0E08081282F30E08A81882FFE
:1022000090E087709070A90102C0559547958A9516
:10221000E2F7CA018170898328C0A2E3B0E0E2E35B
:10222000F0E08081482F8A81882F90E09C01277000
:10223000307081E090E002C0880F991F2A95E2F784
:1022400084278C93E2E3F0E08081282F30E08A81BC
:10225000882F90E087709070A90102C0559547952E
:102260008A95E2F7CA018170898389810F900F9066
:102270000F900F90CF91DF910895DF93CF9300D00F
:1022800000D0CDB7DEB789836A838981282F30E0FB
:102290003C832B838B819C8181309105D1F02B81F4
:1022A0003C81223031052CF48B819C81009761F0B8
:1022B0001EC02B813C812230310581F08B819C81B5
:1022C0008330910581F013C0EBE3F0E08A818083D5
:1022D0000EC0E8E3F0E08A81808309C0E5E3F0E026
:1022E0008A81808304C0E2E3F0E08A8180830F90DA
:1022F0000F900F900F90CF91DF910895DF93CF93C0
:1023000000D000D00F92CDB7DEB78D83809142020E
:10231000882349F40E94EE0981E08093420282E31F
:1023200090E00E945F098D81882F90E0AA2797FD99
:10233000A095BA2FBC01CD010E94B504DC01CB01F0
:10234000BC01CD0129E33EE843EE5CE30E941F029D
:10235000DC01CB01BC01CD0120E030E040EA50E4DB
:102360000E94F201DC01CB0189839A83AB83BC8399
:1023700089819A81AB81BC81BC01CD010E94840915
:102380000E94350A0F900F900F900F900F90CF91F1
:10239000DF910895DF93CF93CDB7DEB70E94510A46
:1023A000CF91DF910895DF93CF93CDB7DEB7E99753
:1023B0000FB6F894DEBF0FBECDBF89AF83E061E0FA
:1023C0000E94F10E89AD82958F70982F917088E0F0
:1023D000692F0E94F10E89AD829586958770982F9E
:1023E000917089E0692F0E94F10E89AD82958695E2
:1023F00086958370982F91708AE0692F0E94F10E64
:1024000089AD982F991F9927991F8CE0692F0E94F9
:10241000F10E82E061E00E94F10E80E090E0A0E821
:10242000BFE38DAB9EABAFABB8AF6DA97EA98FA953
:1024300098AD20E030E04AE755E40E941F02DC013D
:10244000CB0189AB9AABABABBCAB69A97AA98BA921
:102450009CA920E030E040E85FE30E945504882317
:102460002CF481E090E098AB8FA73FC069A97AA9CE
:102470008BA99CA920E03FEF4FE757E40E94F503AA
:1024800018164CF56DA97EA98FA998AD20E030E013
:1024900040E251E40E941F02DC01CB01BC01CD01EE
:1024A0000E944900DC01CB0198AB8FA70FC080E9E7
:1024B00091E09EA78DA78DA59EA50197F1F79EA7F8
:1024C0008DA78FA598A9019798AB8FA78FA598A9DD
:1024D000009769F714C069A97AA98BA99CA90E94E1
:1024E0004900DC01CB0198AB8FA78FA598A99CA7C9
:1024F0008BA78BA59CA50197F1F79CA78BA782E0E2
:1025000060E00E94F10E80E090E0A0E8BFE38FA3BE
:1025100098A7A9A7BAA76FA178A589A59AA520E031
:1025200030E04AE755E40E941F02DC01CB018BA397
:102530009CA3ADA3BEA36BA17CA18DA19EA120E015
:1025400030E040E85FE30E94550488232CF481E0EA
:1025500090E09AA389A33FC06BA17CA18DA19EA10D
:1025600020E03FEF4FE757E40E94F50318164CF5C3
:102570006FA178A589A59AA520E030E040E251E45A
:102580000E941F02DC01CB01BC01CD010E94490069
:10259000DC01CB019AA389A30FC080E991E098A345
:1025A0008F8F8F8D98A10197F1F798A38F8F89A1B5
:1025B0009AA101979AA389A389A19AA1009769F783
:1025C00014C06BA17CA18DA19EA10E944900DC01D9
:1025D000CB019AA389A389A19AA19E8F8D8F8D8DFE
:1025E0009E8D0197F1F79E8F8D8F89AD982F9170F9
:1025F00088E0692F0E94F10E89AD8695982F917021
:1026000089E0692F0E94F10E89AD86958695982FF5
:1026100091708AE0692F0E94F10E89AD86958695AA
:102620008695982F91708CE0692F0E94F10E82E0C0
:1026300061E00E94F10E80E090E0A0E8BFE3898FA6
:102640009A8FAB8FBC8F698D7A8D8B8D9C8D20E09E
:1026500030E04AE755E40E941F02DC01CB018D8B7C
:102660009E8BAF8BB88F6D897E898F89988D20E086
:1026700030E040E85FE30E94550488232CF481E0B9
:1026800090E09C8B8B8B3FC06D897E898F89988D64
:1026900020E03FEF4FE757E40E94F50318164CF592
:1026A000698D7A8D8B8D9C8D20E030E040E251E485
:1026B0000E941F02DC01CB01BC01CD010E94490038
:1026C000DC01CB019C8B8B8B0FC080E991E09A8B56
:1026D000898B89899A890197F1F79A8B898B8B89E4
:1026E0009C8901979C8B8B8B8B899C89009769F7C0
:1026F00014C06D897E898F89988D0E944900DC0104
:10270000CB019C8B8B8B8B899C89988B8F878F853A
:1027100098890197F1F7988B8F8782E060E00E949B
:10272000F10E80E090E0A0E8BFE38B879C87AD8747
:10273000BE876B857C858D859E8520E030E04AE7ED
:1027400055E40E941F02DC01CB018F839887A98783
:10275000BA876F81788589859A8520E030E040E8E6
:102760005FE30E94550488232CF481E090E09E836F
:102770008D833FC06F81788589859A8520E03FEF02
:102780004FE757E40E94F50318164CF56B857C85DE
:102790008D859E8520E030E040E251E40E941F02DA
:1027A000DC01CB01BC01CD010E944900DC01CB0161
:1027B0009E838D830FC080E991E09C838B838B8106
:1027C0009C810197F1F79C838B838D819E8101977A
:1027D0009E838D838D819E81009769F714C06F81E0
:1027E000788589859A850E944900DC01CB019E830A
:1027F0008D838D819E819A83898389819A810197B6
:10280000F1F79A838983E9960FB6F894DEBF0FBE7D
:10281000CDBFCF91DF910895DF93CF93CDB7DEB7D2
:10282000E9970FB6F894DEBF0FBECDBF89AF83E046
:1028300060E00E94F10E89AD82958F70982F9170A3
:1028400088E0692F0E94F10E89AD82958695877088
:10285000982F917089E0692F0E94F10E89AD8295C1
:10286000869586958370982F91708AE0692F0E94D3
:10287000F10E89AD982F991F9927991F8CE0692F28
:102880000E94F10E82E061E00E94F10E80E090E093
:10289000A0E8BFE38DAB9EABAFABB8AF6DA97EA98F
:1028A0008FA998AD20E030E04AE755E40E941F026E
:1028B000DC01CB0189AB9AABABABBCAB69A97AA904
:1028C0008BA99CA920E030E040E85FE30E9455041A
:1028D00088232CF481E090E098AB8FA73FC069A9D2
:1028E0007AA98BA99CA920E03FEF4FE757E40E940B
:1028F000F50318164CF56DA97EA98FA998AD20E0B7
:1029000030E040E251E40E941F02DC01CB01BC0137
:10291000CD010E944900DC01CB0198AB8FA70FC00D
:1029200080E991E09EA78DA78DA59EA50197F1F75F
:102930009EA78DA78FA598A9019798AB8FA78FA564
:1029400098A9009769F714C069A97AA98BA99CA9CD
:102950000E944900DC01CB0198AB8FA78FA598A9F5
:102960009CA78BA78BA59CA50197F1F79CA78BA78C
:1029700082E060E00E94F10E80E090E0A0E8BFE31A
:102980008FA398A7A9A7BAA76FA178A589A59AA58B
:1029900020E030E04AE755E40E941F02DC01CB0151
:1029A0008BA39CA3ADA3BEA36BA17CA18DA19EA173
:1029B00020E030E040E85FE30E94550488232CF4D7
:1029C00081E090E09AA389A33FC06BA17CA18DA177
:1029D0009EA120E03FEF4FE757E40E94F503181651
:1029E0004CF56FA178A589A59AA520E030E040E2DA
:1029F00051E40E941F02DC01CB01BC01CD010E9409
:102A00004900DC01CB019AA389A30FC080E991E0C2
:102A100098A38F8F8F8D98A10197F1F798A38F8F2F
:102A200089A19AA101979AA389A389A19AA1009744
:102A300069F714C06BA17CA18DA19EA10E944900E1
:102A4000DC01CB019AA389A389A19AA19E8F8D8FC6
:102A50008D8D9E8D0197F1F79E8F8D8F89AD982F6B
:102A6000917088E0692F0E94F10E89AD8695982FAC
:102A7000917089E0692F0E94F10E89AD8695869547
:102A8000982F91708AE0692F0E94F10E89AD86958A
:102A900086958695982F91708CE0692F0E94F10E93
:102AA00082E061E00E94F10E80E090E0A0E8BFE3E8
:102AB000898F9A8FAB8FBC8F698D7A8D8B8D9C8D12
:102AC00020E030E04AE755E40E941F02DC01CB0120
:102AD0008D8B9E8BAF8BB88F6D897E898F89988DFA
:102AE00020E030E040E85FE30E94550488232CF4A6
:102AF00081E090E09C8B8B8B3FC06D897E898F89B4
:102B0000988D20E03FEF4FE757E40E94F503181639
:102B10004CF5698D7A8D8B8D9C8D20E030E040E204
:102B200051E40E941F02DC01CB01BC01CD010E94D7
:102B30004900DC01CB019C8B8B8B0FC080E991E0BD
:102B40009A8B898B89899A890197F1F79A8B898B5E
:102B50008B899C8901979C8B8B8B8B899C89009797
:102B600069F714C06D897E898F89988D0E9449000C
:102B7000DC01CB019C8B8B8B8B899C89988B8F87FD
:102B80008F8598890197F1F7988B8F8782E060E0B5
:102B90000E94F10E80E090E0A0E8BFE38B879C8765
:102BA000AD87BE876B857C858D859E8520E030E076
:102BB0004AE755E40E941F02DC01CB018F8398870E
:102BC000A987BA876F81788589859A8520E030E06A
:102BD00040E85FE30E94550488232CF481E090E0F4
:102BE0009E838D833FC06F81788589859A8520E09B
:102BF0003FEF4FE757E40E94F50318164CF56B853D
:102C00007C858D859E8520E030E040E251E40E9485
:102C10001F02DC01CB01BC01CD010E944900DC0197
:102C2000CB019E838D830FC080E991E09C838B83D1
:102C30008B819C810197F1F79C838B838D819E8191
:102C400001979E838D838D819E81009769F714C0C3
:102C50006F81788589859A850E944900DC01CB01C6
:102C60009E838D838D819E819A83898389819A81B8
:102C70000197F1F79A838983E9960FB6F894DEBF3E
:102C80000FBECDBFCF91DF9108950F931F93DF93B8
:102C9000CF93CDB7DEB7C654D0400FB6F894DEBFA1
:102CA0000FBECDBFFE01ED5BFF4F80E090E0A8E4DA
:102CB000B2E480839183A283B3838E01015C1F4FB2
:102CC000FE01ED5BFF4F608171818281938120E085
:102CD00030E04AE755E40E941F02DC01CB01F80115
:102CE00080839183A283B383FE01FF96608171810B
:102CF0008281938120E030E040E85FE30E94550448
:102D000088232CF481E090E09EAF8DAF46C0FE0199
:102D1000FF96608171818281938120E03FEF4FE7D0
:102D200057E40E94F503181664F5FE01ED5BFF4FB2
:102D3000608171818281938120E030E040E251E442
:102D40000E941F02DC01CB01BC01CD010E944900A1
:102D5000DC01CB019EAF8DAF0FC080E991E09CAF4D
:102D60008BAF8BAD9CAD0197F1F79CAF8BAF8DAD69
:102D70009EAD01979EAF8DAF8DAD9EAD009769F76B
:102D800016C0FE01FF9660817181828193810E944D
:102D90004900DC01CB019EAF8DAF8DAD9EAD9AAFEA
:102DA00089AF89AD9AAD0197F1F79AAF89AF82E00B
:102DB0000E940C1488E20E940C1480E090E0A0E8CD
:102DC000BFE38DAB9EABAFABB8AF6DA97EA98FA9AA
:102DD00098AD20E030E04AE755E40E941F02DC0194
:102DE000CB0189AB9AABABABBCAB69A97AA98BA978
:102DF0009CA920E030E040E85FE30E94550488236E
:102E00002CF481E090E098AB8FA73FC069A97AA924
:102E10008BA99CA920E03FEF4FE757E40E94F50300
:102E200018164CF56DA97EA98FA998AD20E030E069
:102E300040E251E40E941F02DC01CB01BC01CD0144
:102E40000E944900DC01CB0198AB8FA70FC080E93D
:102E500091E09EA78DA78DA59EA50197F1F79EA74E
:102E60008DA78FA598A9019798AB8FA78FA598A933
:102E7000009769F714C069A97AA98BA99CA90E9437
:102E80004900DC01CB0198AB8FA78FA598A99CA71F
:102E90008BA78BA59CA50197F1F79CA78BA78FE02B
:102EA0000E940C1480E090E0A0E8BFE38FA398A7F5
:102EB000A9A7BAA76FA178A589A59AA520E030E0B7
:102EC0004AE755E40E941F02DC01CB018BA39CA3BF
:102ED000ADA3BEA36BA17CA18DA19EA120E030E09B
:102EE00040E85FE30E94550488232CF481E090E0E1
:102EF0009AA389A33FC06BA17CA18DA19EA120E0D4
:102F00003FEF4FE757E40E94F50318164CF56FA109
:102F100078A589A59AA520E030E040E251E40E941E
:102F20001F02DC01CB01BC01CD010E944900DC0184
:102F3000CB019AA389A30FC080E991E098A38F8F5A
:102F40008F8D98A10197F1F798A38F8F89A19AA1EE
:102F500001979AA389A389A19AA1009769F714C040
:102F60006BA17CA18DA19EA10E944900DC01CB0137
:102F70009AA389A389A19AA19E8F8D8F8D8D9E8DF5
:102F80000197F1F79E8F8D8F81E00E940C1480E0F5
:102F900090E0A0E0B0E4898F9A8FAB8FBC8F698DF1
:102FA0007A8D8B8D9C8D20E030E04AE755E40E94BD
:102FB0001F02DC01CB018D8B9E8BAF8BB88F6D898F
:102FC0007E898F89988D20E030E040E85FE30E94A1
:102FD000550488232CF481E090E09C8B8B8B3FC0C0
:102FE0006D897E898F89988D20E03FEF4FE757E408
:102FF0000E94F50318164CF5698D7A8D8B8D9C8D8A
:1030000020E030E040E251E40E941F02DC01CB01ED
:10301000BC01CD010E944900DC01CB019C8B8B8B54
:103020000FC080E991E09A8B898B89899A890197F1
:10303000F1F79A8B898B8B899C8901979C8B8B8B61
:103040008B899C89009769F714C06D897E898F8967
:10305000988D0E944900DC01CB019C8B8B8B8B8966
:103060009C89988B8F878F8598890197F1F7988B2A
:103070008F8786E00E940C1480E090E0A0E8BFE318
:103080008B879C87AD87BE876B857C858D859E856C
:1030900020E030E04AE755E40E941F02DC01CB014A
:1030A0008F839887A987BA876F81788589859A8564
:1030B00020E030E040E85FE30E94550488232CF4D0
:1030C00081E090E09E838D833FC06F817885898504
:1030D0009A8520E03FEF4FE757E40E94F50318166A
:1030E0004CF56B857C858D859E8520E030E040E247
:1030F00051E40E941F02DC01CB01BC01CD010E9402
:103100004900DC01CB019E838D830FC080E991E0F3
:103110009C838B838B819C810197F1F79C838B83AC
:103120008D819E8101979E838D838D819E810097E5
:1031300069F714C06F81788589859A850E94490056
:10314000DC01CB019E838D838D819E819A8389834F
:1031500089819A810197F1F79A8389838CE00E9493
:103160000C1480E80E940C14CA5BDF4F0FB6F89471
:10317000DEBF0FBECDBFCF91DF911F910F9108959C
:10318000DF93CF93CDB7DEB781E00E940C1410928D
:103190004302CF91DF910895DF93CF930F92CDB784
:1031A000DEB7898380914302843141F482E061E09B
:1031B0000E942B1A85E18093430236C0809143021E
:1031C000883241F483E061E00E942B1A89E2809307
:1031D00043022AC0809143028C3341F484E061E0D1
:1031E0000E942B1A8DE3809343021EC080914302FC
:1031F000803539F481E061E00E942B1A109243027D
:1032000013C08091430294E1692F0E94AC1D892F65
:10321000882351F48091430294E1692F0E94AC1DF0
:103220008F5F61E00E942B1A89810E94D3118091E7
:1032300043028F5F809343020F90CF91DF910895F7
:10324000DF93CF9300D0CDB7DEB79A83898334C0A4
:1032500080914302843129F482E061E00E942B1ABC
:103260001CC080914302883229F483E061E00E940F
:103270002B1A13C0809143028C3329F484E061E05F
:103280000E942B1A0AC080914302803531F481E0FC
:1032900061E00E942B1A10924302E981FA81808139
:1032A0000E94D31189819A8101969A8389838091A2
:1032B00043028F5F80934302E981FA8180818823F2
:1032C00039F60F900F90CF91DF910895DF93CF9350
:1032D00000D00F92CDB7DEB789836A834B838A8192
:1032E0006B810E942B1A89810E94D3110F900F903D
:1032F0000F90CF91DF910895DF93CF9300D000D04E
:10330000CDB7DEB79A8389836B834C838B816C81C5
:103310000E942B1A89819A810E9420190F900F9088
:103320000F900F90CF91DF910895DF93CF93CDB79A
:10333000DEB72B970FB6F894DEBF0FBECDBF9B87CD
:103340008A878DB79EB708970FB6F8949EBF0FBEB9
:103350008DBFEDB7FEB73196CE0103969183808382
:1033600087E090E09383828380E690E09583848376
:103370008A859B85978386830E94251E8DB79EB77D
:1033800008960FB6F8949EBF0FBE8DBF1A821982A1
:103390000FC029813A81CE010396FC01E20FF31F91
:1033A00080810E94CC1889819A8101969A838983B1
:1033B00029813A81CE010396FC01E20FF31F80813F
:1033C000882339F72B960FB6F894DEBF0FBECDBF1A
:1033D000CF91DF910895DF93CF93CDB7DEB72797D5
:1033E0000FB6F894DEBF0FBECDBF8B836C835E83B8
:1033F0004D832F838F81882F90E00896880F991F27
:10340000880F991F880F991F0E940C141A82198225
:103410000FC029813A818D819E81FC01E20FF31F4B
:1034200080810E94D31189819A8101969A83898330
:1034300089819A818830910564F38F816B814C81F9
:103440000E94661927960FB6F894DEBF0FBECDBF57
:10345000CF91DF910895DF93CF9300D000D0CDB707
:10346000DEB789836A838A8181508A838981282F84
:1034700030E03C832B838B819C8182309105D9F095
:103480002B813C812330310534F48B819C81813048
:10349000910561F01EC02B813C812330310581F004
:1034A0008B819C818430910581F013C08A81805882
:1034B0000E940C140EC08A8180540E940C1409C012
:1034C0008A818C560E940C1404C08A818C520E94FE
:1034D0000C140F900F900F900F90CF91DF910895E3
:1034E000DF93CF93CDB7DEB78FE161E00E94F10E9D
:1034F0008EE161E00E94F10E8CE161E00E94F10E2C
:103500008BE161E00E94F10ECF91DF910895DF938E
:10351000CF93CDB7DEB72C970FB6F894DEBF0FBEB2
:10352000CDBF9C878B8785E1898384E18A8383E192
:103530008B8382E18C838FE18D838EE18E838CE19E
:103540008F838BE188871A8660C08A85282F30E0B8
:10355000CE010596FC01E20FF31F808160E00E941E
:10356000F10E19863FC08985282F30E0CE010196E3
:10357000FC01E20FF31F80810E94E60F882379F59A
:103580008985282F30E0CE010196FC01E20FF31F60
:1035900080810E94E60F882311F58985482F50E02D
:1035A0008A85282F30E0CA01880F991F880F991F3C
:1035B000820F931FFC01EB5EFD4F8081EB85FC8544
:1035C00080838985282F30E0CE010196FC01E20F2F
:1035D000F31F80810E94E60F882399F31EC089851E
:1035E0008F5F89878985843008F4BDCF8A85282F2D
:1035F00030E0CE010596FC01E20FF31F808161E00F
:103600000E94F10E8A858F5F8A878A85843008F44C
:103610009CCFEB85FC8584E580832C960FB6F894CF
:10362000DEBF0FBECDBFCF91DF910895DF93CF9363
:10363000CDB7DEB7ED970FB6F894DEBF0FBECDBFA6
:103640001CAE1BAE84E58DAF1AAE19AE8AEA91E0CE
:103650000E94F50B0E9445160E94701A83E690E0C6
:103660000E942019CE01CD960E94871A8DAD843517
:1036700051F18DAD803338F18DAD8A3320F58DADAC
:103680000E94CC188BAD9CAD009739F48DAD882F7E
:1036900090E0C0979CAF8BAF14C08BAD9CAD9C01EC
:1036A000220F331FC901880F991F880F991F280FF8
:1036B000391F8DAD882F90E0820F931FC0979CAF6C
:1036C0008BAF84E58DAF8DAD833261F68AAD8F5FB0
:1036D0008AAF8BAD9CAD24E0823D920719F481E066
:1036E00089AF91C01CAE1BAE0E94C01881E790E06C
:1036F0000E9420198AAD282F30E083E090E0821BE1
:10370000930B0E94951987E790E00E94201980E0B2
:1037100090E0AAE7B4E48DAB9EABAFABB8AF6DA9B8
:103720007EA98FA998AD20E030E04AE755E40E94D9
:103730001F02DC01CB0189AB9AABABABBCAB69A977
:103740007AA98BA99CA920E030E040E85FE30E94C1
:10375000550488232CF481E090E098AB8FA73FC0FC
:1037600069A97AA98BA99CA920E03FEF4FE757E40C
:103770000E94F50318164CF56DA97EA98FA998AD86
:1037800020E030E040E251E40E941F02DC01CB0166
:10379000BC01CD010E944900DC01CB0198AB8FA791
:1037A0000FC080E991E09EA78DA78DA59EA50197EA
:1037B000F1F79EA78DA78FA598A9019798AB8FA722
:1037C0008FA598A9009769F714C069A97AA98BA950
:1037D0009CA90E944900DC01CB0198AB8FA78FA563
:1037E00098A99CA78BA78BA59CA50197F1F79CA7EF
:1037F0008BA70E94C01883E690E00E9420198AAD32
:10380000833009F02FCF89AD813009F014C184EBEA
:1038100090E00E947E1185E08AAF90C080E090E049
:10382000AAE7B4E48FA398A7A9A7BAA76FA178A520
:1038300089A59AA520E030E04AE755E40E941F02DE
:10384000DC01CB018BA39CA3ADA3BEA36BA17CA188
:103850008DA19EA120E030E040E85FE30E94550486
:1038600088232CF481E090E09AA389A33FC06BA148
:103870007CA18DA19EA120E03FEF4FE757E40E947D
:10388000F50318164CF56FA178A589A59AA520E037
:1038900030E040E251E40E941F02DC01CB01BC0198
:1038A000CD010E944900DC01CB019AA389A30FC07E
:1038B00080E991E098A38F8F8F8D98A10197F1F700
:1038C00098A38F8F89A19AA101979AA389A389A10F
:1038D0009AA1009769F714C06BA17CA18DA19EA14C
:1038E0000E944900DC01CB019AA389A389A19AA176
:1038F0009E8F8D8F8D8D9E8D0197F1F79E8F8D8F71
:103900000E94C0188EE790E00E94201982E061E0DA
:103910000E942B1A89E890E00E94201983E061E060
:103920000E942B1A80E990E00E9420198AAD882F0E
:1039300090E00E9495198AAD81508AAF8AAD8823A4
:1039400009F06CCF8AE590E00E947E1180E090E063
:10395000A8ECB2E4898F9A8FAB8FBC8F698D7A8D7A
:103960008B8D9C8D20E030E04AE755E40E941F02D9
:10397000DC01CB018D8B9E8BAF8BB88F6D897E89DF
:103980008F89988D20E030E040E85FE30E94550485
:1039900088232CF481E090E09C8B8B8B3FC06D8959
:1039A0007E898F89988D20E03FEF4FE757E40E9492
:1039B000F50318164CF5698D7A8D8B8D9C8D20E062
:1039C00030E040E251E40E941F02DC01CB01BC0167
:1039D000CD010E944900DC01CB019C8B8B8B0FC079
:1039E00080E991E09A8B898B89899A890197F1F70F
:1039F0009A8B898B8B899C8901979C8B8B8B8B896C
:103A00009C89009769F714C06D897E898F89988D8C
:103A10000E944900DC01CB019C8B8B8B8B899C899C
:103A2000988B8F878F8598890197F1F7988B8F876F
:103A30000E94C01886C00E94C01884E990E061E02E
:103A400041E00E947C198BE061E00E94F10E86E16A
:103A500061E00E94F10E80E090E0AAE7B4E48B8779
:103A60009C87AD87BE876B857C858D859E8520E094
:103A700030E04AE755E40E941F02DC01CB018F834E
:103A80009887A987BA876F81788589859A8520E08C
:103A900030E040E85FE30E94550488232CF481E085
:103AA00090E09E838D833FC06F81788589859A855C
:103AB00020E03FEF4FE757E40E94F50318164CF55E
:103AC0006B857C858D859E8520E030E040E251E469
:103AD0000E941F02DC01CB01BC01CD010E94490004
:103AE000DC01CB019E838D830FC080E991E09C8334
:103AF0008B838B819C810197F1F79C838B838D81D4
:103B00009E8101979E838D838D819E81009769F7A9
:103B100014C06F81788589859A850E944900DC01EF
:103B2000CB019E838D838D819E819A838983898138
:103B30009A810197F1F79A83898386E160E00E9478
:103B4000F10E80E090E0ED960FB6F894DEBF0FBE68
:103B5000CDBFCF91DF910895991B79E004C0991FE3
:103B6000961708F0961B881F7A95C9F780950895D7
:103B7000AA1BBB1B51E107C0AA1FBB1FA617B70793
:103B800010F0A61BB70B881F991F5A95A9F78095AF
:103B90009095BC01CD010895A1E21A2EAA1BBB1B72
:103BA000FD010DC0AA1FBB1FEE1FFF1FA217B30709
:103BB000E407F50720F0A21BB30BE40BF50B661F1F
:103BC000771F881F991F1A9469F7609570958095E3
:103BD00090959B01AC01BD01CF0108952F923F92BA
:103BE0004F925F926F927F928F929F92AF92BF920D
:103BF000CF92DF92EF92FF920F931F93CF93DF93B9
:103C0000CDB7DEB7CA1BDB0B0FB6F894DEBF0FBE15
:103C1000CDBF09942A88398848885F846E847D8462
:103C20008C849B84AA84B984C884DF80EE80FD8064
:103C30000C811B81AA81B981CE0FD11D0FB6F894DA
:103C4000DEBF0FBECDBFED010895AEE0B0E0EBE208
:103C5000FEE10C94FC1D0D891E898F89988D97FFBC
:103C600002C080E090E801979E838D831A830983C8
:103C700086E08C839E01255E3F4FCE010196698DC3
:103C80007A8DA9010E94561E4D815E8157FD0AC0A2
:103C90002F813885421753070CF49A01020F131F26
:103CA000F80110822E96E4E00C94181EABE0B0E010
:103CB000ECE5FEE10C94EE1D3C012B015A01FC01E8
:103CC00017821682838181FD03C06FEF7FEFC6C12B
:103CD0009AE0892E1E010894211C311CF3012381D6
:103CE000F20123FD859123FF81912F01882309F49F
:103CF000B2C1853239F423FD859123FF81912F01D3
:103D0000853229F490E0B3010E944920E7CF982F33
:103D1000FF24EE249924FFE1FF15D0F09B3269F0D7
:103D20009C3228F4903259F0933291F40EC09D32B7
:103D300049F0903369F441E024C052E0F52A84E070
:103D4000F82A28C098E0F92A25C0E0E1FE2A22C01E
:103D5000F7FC29C0892F80538A3070F4F6FE05C025
:103D6000989C902C1124980E15C0E89CE02C1124EE
:103D7000E80EF0E2FF2A0EC09E3229F4F6FC6BC179
:103D800040E4F42A07C09C3619F450E8F52A02C032
:103D9000983649F4F20123FD959123FF91912F016B
:103DA000992309F0B8CF892F8554833018F08052B9
:103DB000833038F444E050E0A40EB51E5FE359832D
:103DC0000FC0933631F0933779F0933509F056C030
:103DD00020C0F5018081898342E050E0A40EB51E29
:103DE000610101E010E012C0F501C080D180F6FC55
:103DF00003C06FEF7FEF02C0692D70E042E050E03A
:103E0000A40EB51EC6010E943E208C015FE7F5227C
:103E100014C0F501C080D180F6FC03C06FEF7FEFC6
:103E200002C0692D70E042E050E0A40EB51EC6014C
:103E30000E9433208C0150E8F52AF3FE07C01AC017
:103E400080E290E0B3010E944920EA948E2D90E038
:103E500008171907A8F30EC0F601F7FC8591F7FEC5
:103E600081916F0190E0B3010E944920E110EA9432
:103E7000015010400115110579F7EAC0943611F090
:103E8000993669F5F7FE08C0F5012081318142813C
:103E9000538184E090E00AC0F501808191819C010A
:103EA000442737FD4095542F82E090E0A80EB91EBC
:103EB0009FE6F92257FF09C050954095309521950E
:103EC0003F4F4F4F5F4FE0E8FE2ACA01B901A10101
:103ED0002AE030E00E947520D82ED21840C09537D5
:103EE00029F41F2D1F7E2AE030E01DC01F2D197FF1
:103EF0009F3661F0903720F4983509F0ACC00FC0C0
:103F0000903739F0983709F0A6C004C028E030E0B7
:103F10000AC0106114FD146020E130E004C014FDFB
:103F2000166020E132E017FF08C0F5016081718161
:103F30008281938144E050E008C0F5018081918145
:103F4000BC0180E090E042E050E0A40EB51EA1016B
:103F50000E947520D82ED2188FE7F82EF122F6FE97
:103F60000BC05EEFF522D91438F4F4FE07C0F2FC62
:103F700005C08FEEF82202C01D2D01C0192DF4FEE0
:103F80000DC0FE01ED0DF11D8081803319F499EE15
:103F9000F92208C01F5FF2FE05C003C08F2D86788E
:103FA00009F01F5F0F2DF3FC14C0F0FE0FC01E15AB
:103FB00010F09D2C0BC09D2C9E0C911A1E2D06C03E
:103FC00080E290E0B3010E9449201F5F1E15C0F3FC
:103FD00004C01E1510F4E11A01C0EE2404FF0FC046
:103FE00080E390E0B3010E94492002FF1DC001FD63
:103FF00003C088E790E00EC088E590E00BC0802FFA
:10400000867891F001FF02C08BE201C080E2F7FCEC
:104010008DE290E0B3010E94492006C080E390E069
:10402000B3010E9449209A94D914C0F3DA94F101A3
:10403000ED0DF11D808190E0B3010E944920DD204B
:10404000A9F706C080E290E0B3010E944920EA94FB
:10405000EE20C1F743CEF30166817781CB012B9629
:10406000E2E10C940A1EFC010590615070400110C1
:10407000D8F7809590958E0F9F1F0895FC01615091
:10408000704001900110D8F7809590958E0F9F1F7A
:1040900008950F931F93CF93DF938C01EB018B81D6
:1040A00081FF1BC082FF0DC02E813F818C819D81CD
:1040B0002817390764F4E881F9810193F983E883CB
:1040C00006C0E885F985802F0995892B31F48E810A
:1040D0009F8101969F838E8302C00FEF1FEFC8015F
:1040E000DF91CF911F910F910895FA01AA272830EF
:1040F00051F1203181F1E8946F936E7F6E5F7F4FB5
:104100008F4F9F4FAF4FB1E03ED0B4E03CD0670F30
:10411000781F891F9A1FA11D680F791F8A1F911D83
:10412000A11D6A0F711D811D911DA11D20D009F4D3
:1041300068943F912AE0269F11243019305D319315
:10414000DEF6CF010895462F4770405D4193B3E0FE
:104150000FD0C9F7F6CF462F4F70405D4A3318F0A5
:10416000495D31FD4052419302D0A9F7EACFB4E056
:10417000A6959795879577956795BA95C9F700970E
:104180006105710508959B01AC010A2E06945795AF
:10419000479537952795BA95C9F7620F731F841F06
:0A41A000951FA01D0895F894FFCFAD
:1041AA00256400492F502050415353574F52443AE7
:1041BA00004C656674200020747269616C00574572
:1041CA004C434F4D4520494E00636C6F7365730035
:1041DA00696E3A0053595354454D204C4F434B4551
:1041EA004400000000000000000000010202030376
:1041FA000303040404040404040405050505050571
:10420A00050505050505050505050606060606064E
:10421A000606060606060606060606060606060634
:10422A00060606060606060606060707070707071E
:10423A000707070707070707070707070707070704
:10424A0007070707070707070707070707070707F4
:10425A0007070707070707070707070707070707E4
:10426A0007070707070707070707080808080808CE
:10427A0008080808080808080808080808080808B4
:10428A0008080808080808080808080808080808A4
:10429A000808080808080808080808080808080894
:1042AA000808080808080808080808080808080884
:1042BA000808080808080808080808080808080874
:1042CA000808080808080808080808080808080864
:1042DA000808080808080808080808080808080854
:1042EA00080808080808080808080202000203006B
:1042FA00020400020500030301030401030601038B
:10430A00070100030100020101000101010101028C
:10431A0001010401030501020601010301FF000076
:10432A000000000000000000000000000000000083
:10433A000000000000000000000000000000000073
:10434A000000000000000000000000000015141327
:10435A00121F1E1C1B3738392F3435362A31323397
:06436A002D23303D2B0065
:00000001FF
