:100000000C942A000C9447000C9447000C94470071
:100010000C9447000C9447000C9447000C949A03EE
:100020000C9447000C9447000C9447000C94470034
:100030000C9447000C9447000C9447000C94470024
:100040000C9447000C9447000C9447000C94470014
:100050000C94470011241FBECFE5D8E0DEBFCDBF12
:1000600010E0A0E6B0E0ECEFF6E502C005900D92DE
:10007000AC36B107D9F716E0ACE6B0E001C01D928E
:10008000AC3AB107E1F70E94132B0C947C2B0C9433
:100090000000DF93CF9300D000D0CDB7DEB79C83B4
:1000A0008B831A8219820E94D81A80916E009091D7
:1000B0006F00009731F480E790E090936F00809399
:1000C0006E008B819C81009799F180916C009091DA
:1000D0006D002B813C81820F931F25E08B3D9207A1
:1000E00038F520916C0030916D008B819C81280F38
:1000F000391F80916C0090916D0082179307C0F4B6
:1001000020916E0030916F0080916C0090916D0095
:10011000820F931F9A83898320916C0030916D0028
:100120008B819C81820F931F90936D0080936C0054
:100130000E94E41A89819A810F900F900F900F907E
:10014000CF91DF910895DF93CF9300D0CDB7DEB785
:100150009A8389830F900F90CF91DF910895DF9359
:10016000CF93CDB7DEB710926D0010926C00CF9197
:10017000DF910895DF93CF93CDB7DEB720916C0068
:1001800030916D008BED95E0821B930BCF91DF9149
:100190000895DF93CF93CDB7DEB728970FB6F894C5
:1001A000DEBF0FBECDBF9C838B837E836D8358875C
:1001B0004F83EB81FC8181E180838B819C8101975E
:1001C0009C838B83EB81FC8182E280838B819C8189
:1001D00001979C838B83EB81FC8183E380838B81FC
:1001E0009C8101979C838B838D819E819A838983D7
:1001F0008981EB81FC8180838B819C8101979C8329
:100200008B8389819A81892F99279A838983898110
:10021000EB81FC8180838B819C8101979C838B8304
:10022000EB81FC8110828B819C8101979C838B8365
:10023000EB81FC8180E880838B819C8101979C838A
:100240008B83EB81FC8110828B819C8101979C8345
:100250008B83EB81FC8182E080838B819C81019781
:100260009C838B83EB81FC8183E080838B819C81E9
:1002700001979C838B83EB81FC8184E080838B815D
:100280009C8101979C838B83EB81FC8185E080833B
:100290008B819C8101979C838B83EB81FC8186E021
:1002A00080838B819C8101979C838B83EB81FC8174
:1002B00087E080838B819C8101979C838B83EB817A
:1002C000FC8188E080838B819C8101979C838B8358
:1002D000EB81FC8189E080838B819C8101979C83E9
:1002E0008B83EB81FC8180E180838B819C810197F2
:1002F0009C838B83EB81FC8181E180838B819C815A
:1003000001979C838B83EB81FC8182E180838B81CD
:100310009C8101979C838B83EB81FC8183E18083AB
:100320008B819C8101979C838B83EB81FC8184E191
:1003300080838B819C8101979C838B83EB81FC81E3
:1003400085E180838B819C8101979C838B83EB81EA
:10035000FC8186E180838B819C8101979C838B83C8
:10036000EB81FC8187E180838B819C8101979C8359
:100370008B83EB81FC8188E180838B819C81019759
:100380009C838B83EB81FC8189E180838B819C81C1
:1003900001979C838B83EB81FC8180E280838B813E
:1003A0009C8101979C838B83EB81FC8181E280831C
:1003B0008B819C8101979C838B83EB81FC8182E202
:1003C00080838B819C8101979C838B83EB81FC8153
:1003D00083E280838B819C8101979C838B838F81B7
:1003E00098859A8389838981EB81FC8180838B81C5
:1003F0009C8101979C838B8389819A81892F99277E
:100400009A8389838981EB81FC8180838B819C81A4
:1004100001979C838B83EB81FC8186E280838B81B7
:100420009C8101979C838B83EB81FC8187E2808395
:100430008B819C8101979C838B83EB81FC8188E27B
:1004400080838B819C8101979C838B83EB81FC81D2
:1004500089E280838B819C8101979C838B83EB81D4
:10046000FC8180E380838B819C8101979C838B83BB
:10047000EB81FC8181E380838B819C8101979C834C
:100480008B838B819C8128960FB6F894DEBF0FBEBC
:10049000CDBFCF91DF910895DF93CF93CDB7DEB776
:1004A0000E943E03A0914C06B0914D06CD91CDBF68
:1004B000DD91DEBFFF91EF91DF91CF91BF91AF91C1
:1004C0009F918F917F916F915F914F913F912F916C
:1004D0001F910F91FF90EF90DF90CF90BF90AF9062
:1004E0009F908F907F906F905F904F903F902F9054
:1004F0001F900F900FBE0F90089581E0CF91DF9174
:100500000895DF93CF93CDB7DEB7CF91DF910895F4
:100510000F920FB6F8940F921F9211242F923F92D0
:100520004F925F926F927F928F929F92AF92BF9203
:10053000CF92DF92EF92FF920F931F932F933F93EF
:100540004F935F936F937F938F939F93AF93BF93DB
:10055000CF93DF93EF93FF93A0914C06B0914D069C
:100560000DB60D920EB60D920E944D1EA0914C0636
:10057000B0914D06CD91CDBFDD91DEBFFF91EF91E2
:10058000DF91CF91BF91AF919F918F917F916F91AB
:100590005F914F913F912F911F910F91FF90EF909D
:1005A000DF90CF90BF90AF909F908F907F906F9093
:1005B0005F904F903F902F901F900F900FBE0F9025
:1005C00008950F920FB6F8940F921F9211242F9254
:1005D0003F924F925F926F927F928F929F92AF92D3
:1005E000BF92CF92DF92EF92FF920F931F932F93C0
:1005F0003F934F935F936F937F938F939F93AF93AB
:10060000BF93CF93DF93EF93FF93A0914C06B091EC
:100610004D060DB60D920EB60D920E94B61C8823A3
:1006200011F00E944D1EA0914C06B0914D06CD9147
:10063000CDBFDD91DEBFFF91EF91DF91CF91BF91F3
:10064000AF919F918F917F916F915F914F913F916A
:100650002F911F910F91FF90EF90DF90CF90BF905F
:10066000AF909F908F907F906F905F904F903F9052
:100670002F901F900F900FBE0F900895DF93CF9390
:1006800000D000D000D0CDB7DEB780E89EE3A0E078
:10069000B0E08B839C83AD83BE838B819C81AD81D5
:1006A000BE81689415F8B695A79597958795169489
:1006B000D1F78B839C83AD83BE838B819C81AD817D
:1006C000BE810197A109B1098B839C83AD83BE8351
:1006D0008B8189838B819C81AD81BE81892F9A2FEB
:1006E000AB2FBB278B839C83AD83BE838B818A8397
:1006F000EBE4F0E08A818083EAE4F0E089818083A2
:100700008BE08983EEE4F0E089818083E9E5F0E025
:1007100080818983898180618983E9E5F0E089812D
:10072000808326960FB6F894DEBF0FBECDBFCF9163
:10073000DF9108950E94E1021895DF93CF9300D0D6
:10074000CDB7DEB78BE090E00E9449009A838983A1
:1007500089819A81009749F0E981FA81118210829A
:1007600089819A8102960E94E20689819A810F907E
:100770000F90CF91DF910895DF93CF93CDB7DEB780
:1007800060970FB6F894DEBF0FBECDBF9A878987FA
:100790007C876B875E874D87388B2F8789859A8505
:1007A0009C838B8319820E94D81AEB81FC81808103
:1007B000918198878F8389859A852B853C85B9019E
:1007C0000E9493052F8138858B859C85282B392B9A
:1007D0008D859E85282339238D859E852817390789
:1007E000C9F42F8138858B859C85822B932B9E8322
:1007F0008D83EB81FC81208131818D859E85809563
:10080000909582239323EB81FC8191838083188AC6
:100810001F861EC08F859889009791F08B819C81DF
:10082000BC016E5F7F4F8D859E859C0135604F8535
:100830005889CB01B9010E94DC1E1E821D8208C0AE
:10084000EB81FC81808191819E838D8381E089830E
:100850000E94E41A8A838F859889009709F43AC028
:100860008A81882311F40E9488020E9401239E83BA
:100870008D838D819E8180709270009731F50FB6C7
:10088000F8940F92EB81FC81808191819E838D830E
:100890002D813E818D859E85282339238D859E85DA
:1008A0002817390771F4EB81FC81208131818D8516
:1008B0009E858095909582239323EB81FC81918383
:1008C00080830F900FBE81E089838D819E8190701F
:1008D0009E838D838D819E8160960FB6F894DEBFD6
:1008E0000FBECDBFCF91DF9108950F931F93DF937C
:1008F000CF93CDB7DEB763970FB6F894DEBF0FBEC8
:10090000CDBF9D878C877F876E87488B298B1B8BFC
:100910000A8B8C859D859B878A871F821E821B82FE
:100920000E94D81AEA85FB85808191819A83898308
:1009300089819A812E853F85B90149890E94B00637
:100940008D838D818823C1F089819A8199878887D9
:100950001B8A1A8A88898823E9F1EA85FB85208128
:1009600031818E859F858095909582239323EA859A
:10097000FB85918380832EC08A899B89009739F4F7
:1009800089819A819987888781E08B8323C08889B0
:10099000882329F08E819F8191609F838E8389892E
:1009A000882329F08E819F8194609F838E838A851E
:1009B0009B85BC016E5F7F4F2E853F858E819F8119
:1009C000282B392B4A895B89CB01B9010E94DC1E97
:1009D000198618860E94E41A8C838A899B8900975D
:1009E00009F43CC08C81882311F40E9488020E9483
:1009F00001239987888788859985807092700097F0
:100A000041F50FB6F8940F92EA85FB8580819181BC
:100A100099878887888599852E853F85B901498979
:100A20000E94B006882389F08889882371F0EA85BE
:100A3000FB85208131818E859F85809590958223CD
:100A40009323EA85FB859183808381E08B830F90DC
:100A50000FBE888599859070998788878885998544
:100A600063960FB6F894DEBF0FBECDBFCF91DF9176
:100A70001F910F910895DF93CF93CDB7DEB72897DD
:100A80000FB6F894DEBF0FBECDBF9E838D837887EF
:100A90006F838D819E819C838B830FB6F8940F9218
:100AA000EB81FC81808191819A838983EB81FC8138
:100AB000208131818F819885809590958223932321
:100AC000EB81FC81918380830F900FBE89819A8195
:100AD00028960FB6F894DEBF0FBECDBFCF91DF9141
:100AE0000895DF93CF93CDB7DEB727970FB6F8946D
:100AF000DEBF0FBECDBF9F838E838E819F819C837F
:100B00008B831D82EB81FC81808191819A83898313
:100B100089819A8127960FB6F894DEBF0FBECDBFAC
:100B2000CF91DF910895DF93CF93CDB7DEB765976F
:100B30000FB6F894DEBF0FBECDBF9B8B8A8B7D8B2B
:100B40006C8B198618868A899B899B838A83198274
:100B50008A819B8102969B878A878A859B850396DB
:100B60009D878C870E94D81AEA85FB8585819681AE
:100B7000998B888BEA81FB81208131818C899D89C9
:100B8000822B932BEA81FB819183808359C0E88972
:100B9000F989828193819F878E87E889F98980818D
:100BA00091819F838E8319828E819F8180709D8326
:100BB0008C838E819F8190709F838E838C819D8199
:100BC00080709470009769F4EA81FB812081318103
:100BD0008E819F8182239323009791F081E0898306
:100BE0000FC0EA81FB81208131818E819F81282382
:100BF00039238E819F812817390711F481E0898379
:100C000089818823C9F08C819D81807091700097C3
:100C100041F0888599852E813F81822B932B99877E
:100C20008887EA81FB81808191819C01326088897B
:100C30009989B9010E9485208E859F85998B888B23
:100C4000288939898C859D852817390709F09FCF18
:100C5000EA81FB81208131818885998580959095F5
:100C600082239323EA81FB81918380830E94E41A8B
:100C7000EA81FB818081918165960FB6F894DEBF91
:100C80000FBECDBFCF91DF910895DF93CF9300D0FA
:100C900000D000D0CDB7DEB79E838D838D819E813D
:100CA0009C838B838B819C8102969A8389830E948B
:100CB000D81A08C0E981FA818581968160E072E0E6
:100CC0000E948520E981FA818081882399F70E941A
:100CD000E41A8B819C810E94A30026960FB6F8949B
:100CE000DEBF0FBECDBFCF91DF910895DF93CF93CD
:100CF00000D000D000D0CDB7DEB79A8389834B8374
:100D00005C836D837E8389819A812B813C81B901CB
:100D10000E94930526960FB6F894DEBF0FBECDBF96
:100D2000CF91DF910895DF93CF9300D000D000D012
:100D3000CDB7DEB79A8389834B835C836D837E83D3
:100D400089819A812B813C81B9010E943B052696BD
:100D50000FB6F894DEBF0FBECDBFCF91DF910895DF
:100D6000DF93CF9300D000D000D0CDB7DEB79B8308
:100D70008A837D836C834E8319828E81882359F404
:100D80008A819B812C813D8182239323009781F06E
:100D900081E089830DC02A813B818C819D8128233C
:100DA00039238C819D812817390711F481E08983CB
:100DB000898126960FB6F894DEBF0FBECDBFCF91C6
:100DC000DF910895DF93CF9300D0CDB7DEB79A833C
:100DD000898389819A810396E981FA81928381834B
:100DE000E981FA818FEF9FEF9483838389819A81D0
:100DF0000396E981FA819683858389819A81039696
:100E0000E981FA8190878783E981FA8110820F90C6
:100E10000F90CF91DF910895DF93CF9300D0CDB79E
:100E2000DEB79A838983E981FA81118610860F9053
:100E30000F90CF91DF910895DF93CF9300D000D032
:100E400000D0CDB7DEB79C838B837E836D83EB812F
:100E5000FC81818192819A838983ED81FE818981E0
:100E60009A8193838283E981FA8184819581ED81DE
:100E7000FE8195838483E981FA810480F581E02DE8
:100E80008D819E8193838283E981FA818D819E8108
:100E900095838483ED81FE818B819C8191878087FE
:100EA000EB81FC8180818F5FEB81FC8180832696C2
:100EB0000FB6F894DEBF0FBECDBFCF91DF9108957E
:100EC000DF93CF93CDB7DEB728970FB6F894DEBF88
:100ED0000FBECDBF9E838D8378876F83EF81F885AA
:100EE000808191819A83898389819A812FEF8F3FB5
:100EF000920739F4ED81FE81878190859C838B83F5
:100F000018C08D819E8103969C838B8306C0EB81E4
:100F1000FC81828193819C838B83EB81FC810280A5
:100F2000F381E02D2081318189819A818217930795
:100F300070F7EB81FC8182819381EF81F885938347
:100F40008283EF81F8850280F381E02D8F8198857F
:100F500095838483EF81F8858B819C81958384833D
:100F6000EB81FC818F81988593838283EF81F88563
:100F70008D819E8191878087ED81FE8180818F5F49
:100F8000ED81FE81808328960FB6F894DEBF0FBEF8
:100F9000CDBFCF91DF910895DF93CF9300D000D0E4
:100FA000CDB7DEB79C838B83EB81FC8180859185F7
:100FB0009A838983EB81FC81A281B381EB81FC81DF
:100FC0008481958115969C938E931497EB81FC8177
:100FD000A481B581EB81FC818281938113969C93DE
:100FE0008E931297E981FA81218132818B819C81D4
:100FF0002817390741F4EB81FC8184819581E981CF
:10100000FA8192838183EB81FC8111861086E981CC
:10101000FA8180818150E981FA818083E981FA81B6
:1010200080810F900F900F900F90CF91DF910895D6
:10103000DF93CF9300D000D000D0CDB7DEB79D8333
:101040008C836E8381E08B838C819D819A838983DD
:1010500089819A81009709F48BC0E981FA81838D97
:10106000882309F485C0E981FA81838D282F30E037
:101070008FEF9FE7B9010E94582BCB019C01E981BA
:10108000FA81848D882F90E02817390708F470C002
:101090000FB6F8940F92E981FA8140815181E9817C
:1010A000FA81838D282F30E0E981FA81848D882FA1
:1010B00090E0BC01269FC001279F900D369F900DA8
:1010C0001124840F951FE981FA8195838483E98136
:1010D000FA81128EE981FA8180819181E981FA8118
:1010E00093838283E981FA8140815181E981FA8188
:1010F000838D882F90E09C0121503040E981FA8156
:10110000848D882F90E0BC01269FC001279F900D01
:10111000369F900D1124840F951FE981FA819783E2
:101120008683E981FA818FEF858FE981FA818FEFDC
:10113000868F8E81882379F4E981FA8180858823DE
:10114000A1F089819A8108960E94411F882369F045
:101150000E9488020AC089819A8108960E94E2064C
:1011600089819A8141960E94E2060F900FBE01C0CC
:101170001B828B8126960FB6F894DEBF0FBECDBFC3
:10118000CF91DF9108950F931F93DF93CF93CDB746
:10119000DEB729970FB6F894DEBF0FBECDBF8F83A1
:1011A000688749871E821D828F81882309F452C077
:1011B0008F81282F30E08FEF9FE7B9010E94582BD5
:1011C000CB019C018885882F90E02817390708F407
:1011D00041C08F81282F30E08885882F90E0AC01B6
:1011E000249FC001259F900D349F900D11245FE72F
:1011F000813E950778F58F81282F30E08885882FEC
:1012000090E0AC01249FC001259F900D349F900D6C
:1012100011249C838B838B819C814F960E94490073
:101220009E838D838D819E810097A1F08D819E810B
:101230009A83898389819A814F969A8389832981A8
:101240003A81ED81FE818F816885A90129858F0111
:101250000E9437098D819E8129960FB6F894DEBFD2
:101260000FBECDBFCF91DF911F910F9108950F93C6
:101270001F93DF93CF93CDB7DEB727970FB6F894C0
:10128000DEBF0FBECDBF89836A835C834B832D8312
:101290001F830E838A81882339F48E819F81EE819A
:1012A000FF819183808306C08B819C81EE81FF81C9
:1012B00091838083EE81FF818981838FEE81FF811D
:1012C0008A81848F8E819F8161E00E941808279611
:1012D0000FB6F894DEBF0FBECDBFCF91DF911F9147
:1012E0000F910895DF93CF93CDB7DEB72F970FB649
:1012F000F894DEBF0FBECDBF998788877B876A874A
:101300005D874C872E871C82888599859A8389837F
:101310000FB6F8940F92E981FA81928DE981FA81F2
:10132000838D981718F08E85823011F589819A8106
:101330002A853B85B9014E850E94DD0D8B83E981AD
:10134000FA818189882351F089819A8141960E948E
:10135000411F882341F00E94880205C08B818823A9
:1013600011F00E9488020F900FBE81E08F875CC051
:101370008C859D85009721F40F900FBE1F8654C069
:101380008C81882331F4CE0105960E94B12181E041
:101390008C830F900FBE0E94D81A0FB6F8940F924C
:1013A000E981FA81858D8F3F19F4E981FA81158EE3
:1013B000E981FA81868D8F3F19F4E981FA81168ED1
:1013C0000F900FBECE0105969E01245F3F4FB901DD
:1013D0000E94CA21882309F589819A810E94590FA8
:1013E0008823A1F089819A8108962C853D85B901D1
:1013F0000E94BA1E89819A810E94CA0E0E94E41A34
:10140000882309F085CF0E94880282CF89819A8142
:101410000E94CA0E0E94E41A7BCF89819A810E94A1
:10142000CA0E0E94E41A1F868F852F960FB6F89475
:10143000DEBF0FBECDBFCF91DF910895DF93CF9375
:10144000CDB7DEB72E970FB6F894DEBF0FBECDBF77
:10145000998788877B876A875D874C872E878885F1
:1014600099859D838C831E82EC81FD81928DEC8118
:10147000FD81838D981718F08E858230B9F5EC8147
:10148000FD81868D8B83EC81FD81828D8A838C81A9
:101490009D812A853B85B9014E850E94DD0D8B819A
:1014A0008F3FA9F4EC81FD8181898823E1F08C8153
:1014B0009D8141960E94411F8823A9F08C859D85BE
:1014C000009789F0EC85FD8581E080830CC00E9447
:1014D000601C89839B818981981728F48B818F5F99
:1014E000EC81FD81868F81E08F8301C01F828F8117
:1014F0002E960FB6F894DEBF0FBECDBFCF91DF9111
:101500000895DF93CF93CDB7DEB72B970FB6F8943E
:10151000DEBF0FBECDBF998788877B876A878885A6
:1015200099859D838C831E82EC81FD81828D8B83C6
:10153000EC81FD81938D8B81891780F5EC81FD8194
:10154000868D8A838B818F5FEC81FD81828F8A817A
:101550008F3FA9F4EC81FD8181898823E1F08C81A2
:101560009D8141960E94411F8823A9F08A859B8511
:10157000009789F0EA85FB8581E080830CC00E949A
:10158000601C89839A818981981728F48A818F5FEA
:10159000EC81FD81868F81E08F8301C01F828F8166
:1015A0002B960FB6F894DEBF0FBECDBFCF91DF9163
:1015B0000895DF93CF93CDB7DEB72E970FB6F8948B
:1015C000DEBF0FBECDBF998788877B876A875D871F
:1015D0004C871C82888599859B838A830FB6F894F3
:1015E0000F92EA81FB81828D898389818823F9F0BA
:1015F0008A819B812A853B85B9010E94830E89815E
:101600008150EA81FB81828FEA81FB81808588237A
:1016100049F08A819B8108960E94411F882311F01E
:101620000E9488020F900FBE81E08E8763C08C8578
:101630009D85009721F40F900FBE1E865BC08C81A4
:10164000882331F4CE0105960E94B12181E08C837C
:101650000F900FBE0E94D81A0FB6F8940F92EA812D
:10166000FB81858D8F3F19F4EA81FB81158EEA811C
:10167000FB81868D8F3F19F4EA81FB81168E0F90D6
:101680000FBECE0105969E01245F3F4FB9010E9417
:10169000CA21882309F58A819B810E941D0F882316
:1016A000A1F08A819B8141962C853D85B9010E94DC
:1016B000BA1E8A819B810E94CA0E0E94E41A882366
:1016C00009F08CCF0E94880289CF8A819B810E9479
:1016D000CA0E0E94E41A82CF8A819B810E94CA0EA0
:1016E0000E94E41A8A819B810E941D0F882309F4BD
:1016F00075CF1E868E852E960FB6F894DEBF0FBE70
:10170000CDBFCF91DF910895DF93CF93CDB7DEB7F3
:101710002C970FB6F894DEBF0FBECDBF9987888790
:101720007B876A871C82888599859B838A830FB60D
:10173000F8940F92EA81FB81828D898389818823C5
:10174000C1F089818150EA81FB81828FEA81FB812E
:101750008085882349F08A819B8108960E94411FD9
:10176000882311F00E9488020F900FBE81E08C87C1
:1017700063C08A859B85009721F40F900FBE1C865D
:101780005BC08C81882331F4CE0105960E94B12183
:1017900081E08C830F900FBE0E94D81A0FB6F89488
:1017A0000F92EA81FB81858D8F3F19F4EA81FB81DD
:1017B000158EEA81FB81868D8F3F19F4EA81FB81CA
:1017C000168E0F900FBECE0105969E01265F3F4FED
:1017D000B9010E94CA21882309F58A819B810E9450
:1017E0001D0F8823A1F08A819B8141962A853B8524
:1017F000B9010E94BA1E8A819B810E94CA0E0E9472
:10180000E41A882309F093CF0E94880290CF8A813E
:101810009B810E94CA0E0E94E41A89CF8A819B8113
:101820000E94CA0E0E94E41A8A819B810E941D0FA9
:10183000882309F47CCF1C868C852C960FB6F894EF
:10184000DEBF0FBECDBFCF91DF910895DF93CF9361
:10185000CDB7DEB760970FB6F894DEBF0FBECDBF31
:101860009B878A877D876C875F874E871E828A85E4
:101870009B859B838A830FB6F8940F92EA81FB8144
:10188000828D89838981882331F1EA81FB81868178
:1018900097819D838C838A819B812C853D85B901AD
:1018A0000E94830EEA81FB818C819D8197838683D0
:1018B000EA81FB818189882349F08A819B81419655
:1018C0000E94411F882311F00E9488020F900FBED2
:1018D00081E0888B63C08E859F85009721F40F90EF
:1018E0000FBE188A5BC08E81882331F4CE01079623
:1018F0000E94B12181E08E830F900FBE0E94D81A02
:101900000FB6F8940F92EA81FB81858D8F3F19F411
:10191000EA81FB81158EEA81FB81868D8F3F19F468
:10192000EA81FB81168E0F900FBECE0107969E01B5
:10193000225F3F4FB9010E94CA21882309F58A819D
:101940009B810E941D0F8823A1F08A819B81419673
:101950002E853F85B9010E94BA1E8A819B810E9413
:10196000CA0E0E94E41A882309F085CF0E948802DB
:1019700082CF8A819B810E94CA0E0E94E41A7BCF8B
:101980008A819B810E94CA0E0E94E41A8A819B81EF
:101990000E941D0F882309F46ECF188A88896096EB
:1019A0000FB6F894DEBF0FBECDBFCF91DF91089583
:1019B000DF93CF93CDB7DEB72D970FB6F894DEBF88
:1019C0000FBECDBF998788877B876A875D874C87E5
:1019D000888599859D838C831E82EC81FD81828D13
:1019E0008B838B818823B9F1EC81FD81858D8A837E
:1019F0008C819D812A853B85B9010E94830E8B8154
:101A00008150EC81FD81828F8A818F3FA9F4EC8126
:101A1000FD8180858823E1F08C819D8108960E945C
:101A2000411F8823A9F08C859D85009789F0EC855E
:101A3000FD8581E080830CC00E94601C89839A81AF
:101A40008981981728F48A818F5FEC81FD81858FC9
:101A500081E08F8301C01F828F812D960FB6F8948D
:101A6000DEBF0FBECDBFCF91DF910895DF93CF933F
:101A7000CDB7DEB72A970FB6F894DEBF0FBECDBF45
:101A800098878F837A8769878F8198859A838983DE
:101A90001D82E981FA81828D8823B1F0E981FA8182
:101AA000868197819C838B8389819A8129853A8558
:101AB000B9010E94830EE981FA818B819C81978311
:101AC000868381E08E8301C01E828E812A960FB6A6
:101AD000F894DEBF0FBECDBFCF91DF910895DF93A5
:101AE000CF9300D00F92CDB7DEB79B838A830FB61A
:101AF000F8940F92EA81FB81828D89830F900FBE4B
:101B000089810F900F900F90CF91DF910895DF930F
:101B1000CF9300D000D00F92CDB7DEB79D838C83DA
:101B20008C819D819A8389830FB6F8940F92E98105
:101B3000FA81938DE981FA81828D292F281B822FCA
:101B40008B830F900FBE8B810F900F900F900F9093
:101B50000F90CF91DF910895DF93CF9300D000D005
:101B60000F92CDB7DEB79D838C838C819D819A8344
:101B70008983E981FA81828D8B838B810F900F900D
:101B80000F900F900F90CF91DF910895DF93CF9337
:101B900000D000D0CDB7DEB79C838B838B819C8136
:101BA0009A83898389819A810E94A3000F900F9064
:101BB0000F900F90CF91DF910895DF93CF93CDB722
:101BC000DEB727970FB6F894DEBF0FBECDBF9C835C
:101BD0008B837E836D834F831A82EB81FC81828DA0
:101BE0008983EB81FC81848D882309F47DC08F81FA
:101BF000882399F5EB81FC8162817381EB81FC8103
:101C0000848D482F50E02D813E81CB01B9010E9487
:101C10006C2BEB81FC8122813381EB81FC81848DF3
:101C2000882F90E0820F931FEB81FC819383828346
:101C3000EB81FC8122813381EB81FC818481958160
:101C40002817390708F450C0EB81FC81808191810D
:101C5000EB81FC819383828347C0EB81FC816681A9
:101C60007781EB81FC81848D482F50E02D813E816E
:101C7000CB01B9010E946C2BEB81FC81268137815D
:101C8000EB81FC81848D882F90E0909581959F4F0A
:101C9000820F931FEB81FC8197838683EB81FC810C
:101CA00026813781EB81FC8180819181281739075A
:101CB00090F4EB81FC8124813581EB81FC81848D62
:101CC000882F90E0909581959F4F820F931FEB8115
:101CD000FC81978386838F81823031F489818823C8
:101CE00019F089818150898389818F5FEB81FC8123
:101CF000828F8A8127960FB6F894DEBF0FBECDBFC4
:101D0000CF91DF910895DF93CF9300D000D0CDB76E
:101D1000DEB79A8389837C836B83E981FA81848D22
:101D2000882389F1E981FA8126813781E981FA8165
:101D3000848D882F90E0820F931FE981FA81978329
:101D40008683E981FA8126813781E981FA8184815C
:101D500095812817390740F0E981FA8180819181C6
:101D6000E981FA8197838683E981FA8146815781E7
:101D7000E981FA81848D282F30E08B819C81BA0122
:101D8000A9010E946C2B0F900F900F900F90CF9194
:101D9000DF910895DF93CF9300D000D0CDB7DEB7A9
:101DA0009C838B830FB6F8940F92EB81FC81868D18
:101DB0008A8311C0EB81FC818189882379F08B8132
:101DC0009C8141960E94411F882311F00E9431227C
:101DD0008A8181508A838A81181664F3EB81FC81A1
:101DE0008FEF868F0F900FBE0FB6F8940F92EB8196
:101DF000FC81858D898311C0EB81FC8180858823DE
:101E000079F08B819C8108960E94411F882311F0F4
:101E10000E9431228981815089838981181664F357
:101E2000EB81FC818FEF858F0F900FBE0F900F908D
:101E30000F900F90CF91DF910895DF93CF9300D053
:101E40000F92CDB7DEB79B838A830FB6F8940F92BB
:101E5000EA81FB81828D882319F481E0898301C0A6
:101E600019820F900FBE89810F900F900F90CF9124
:101E7000DF910895DF93CF9300D000D00F92CDB7BC
:101E8000DEB79D838C838C819D819A838983E981D0
:101E9000FA81828D882319F481E08B8301C01B8233
:101EA0008B810F900F900F900F900F90CF91DF913B
:101EB0000895DF93CF9300D00F92CDB7DEB79B8309
:101EC0008A830FB6F8940F92EA81FB81928DEA81A2
:101ED000FB81838D981719F481E0898301C01982F1
:101EE0000F900FBE89810F900F900F90CF91DF91CF
:101EF0000895DF93CF9300D000D00F92CDB7DEB717
:101F00009D838C838C819D819A838983E981FA8169
:101F1000928DE981FA81838D981719F481E08B8382
:101F200001C01B828B810F900F900F900F900F902C
:101F3000CF91DF910895CF92DF92EF92FF920F93AE
:101F40001F93DF93CF93CDB7DEB72C970FB6F894DE
:101F5000DEBF0FBECDBF9D838C837F836E8348879A
:101F60003A8729871C870B878885813019F481E09F
:101F7000898301C019828E819F81009721F481E0BD
:101F800090E09F838E838C819D819C01205F3F4FD9
:101F90008C819D818217930768F48C819D810196C5
:101FA0009D838C838C819D810F960E9449009B8329
:101FB0008A8302C01B821A828A819B810097B1F0BA
:101FC0006A817B818A819B819C01215F3F4F4C818B
:101FD0005D81EE81FF81A985BA85CB84DC84CB014C
:101FE000B9019F0109817D010E9453178A819B815C
:101FF0002C960FB6F894DEBF0FBECDBFCF91DF9108
:102000001F910F91FF90EF90DF90CF900895DF9395
:10201000CF9300D000D0CDB7DEB79C838B838B816C
:102020009C819A838983E981FA818685882F90E053
:1020300082709070009729F489819A810E94A30090
:1020400008C089819A8160E070E04FE050E00E9412
:10205000752B0F900F900F900F90CF91DF910895F7
:10206000CF92DF92EF92FF920F931F93DF93CF9364
:10207000CDB7DEB729970FB6F894DEBF0FBECDBF40
:1020800099878887888599859F838E831D821C8286
:102090001B821A8219820FB6F8940F92EE81FF818B
:1020A00080859185009721F5EE81FF81828593855A
:1020B0000097F1F4EE81FF8144855585EE81FF8123
:1020C00024813581EE81FF81A681B781EE81FF8178
:1020D00016858E819F81EB81FC81C980DA80BA01EF
:1020E000A9019D01012F7F010E94531781E08D837B
:1020F0000F900FBE8D8129960FB6F894DEBF0FBEEC
:10210000CDBFCF91DF911F910F91FF90EF90DF90A6
:10211000CF900895DF93CF93CDB7DEB727970FB653
:10212000F894DEBF0FBECDBF9D838C837F836E830B
:102130008C819D819B838A838E819F81009721F46E
:1021400081E090E09F838E83EA81FB812481358149
:102150008E819F818217930748F4EA81FB818E81EB
:102160009F819783868381E0898301C01982898159
:1021700027960FB6F894DEBF0FBECDBFCF91DF918B
:102180000895DF93CF93CDB7DEB728970FB6F894B5
:10219000DEBF0FBECDBF98878F838F8198859E83CA
:1021A0008D83ED81FE81808191819A838983ED8188
:1021B000FE8124813581ED81FE8180819181820FB4
:1021C000931F9C838B83ED81FE81228133818B81E0
:1021D0009C81821B930B9C838B83ED81FE812081EC
:1021E000318189819A8128173907D9F68B819C81A1
:1021F00001979C838B83ED81FE81248135818B81C6
:102200009C818217930750F0ED81FE8124813581F6
:102210008B819C81821B930B9C838B838B819C8104
:1022200028960FB6F894DEBF0FBECDBFCF91DF91D9
:102230000895DF93CF9300D000D000D0CDB7DEB7A4
:102240009E838D838D819E819C838B838B819C81DA
:102250000E9419179A83898389819A8126960FB6DD
:10226000F894DEBF0FBECDBFCF91DF910895CF921E
:10227000DF92EF92FF920F931F93DF93CF93CDB72F
:10228000DEB765970FB6F894DEBF0FBECDBF9F8750
:102290008E87798B688B5B8B4A8B3D8B2C8B8E85E5
:1022A0009F859A8789871E821D828A899B899C8344
:1022B0008B831A821982E985FA8584819581019739
:1022C0009A838983E985FA858685882F90E08170D5
:1022D0009070882379F08B819C8102969C838B83FC
:1022E0002B813C8189819A818217930770F41D8A22
:1022F0001C8A0BC02B813C8189819A8182179307AC
:1023000020F489819A819C838B838C899D89009795
:1023100009F443C0CE010B960E9493210FB6F894A6
:102320000F9289859A850E94C1109E838D832D818D
:102330003E818B819C812817390768F580E090E009
:1023400060E00E94E2290E94EF22E985FA859387E6
:1023500082870F900FBEEC89FD8980E040E050E05D
:1023600060E070E000E010E020E030E0EE24FF24C8
:102370006F010E94DE23E985FA8513861286CE015D
:102380000B969E012C5E3F4FB9010E94CA21882303
:1023900009F4C4CF02C00F900FBE8D819E810097BB
:1023A00031F489859A850E94C1109E838D83898529
:1023B0009A85288939894A895B89ED81FE81AB81BB
:1023C000BC81B9019F018D010E94A71298878F835C
:1023D0008F819885009741F189859A850E94191708
:1023E0009C01E985FA858681978128173907E0F0F5
:1023F0000E94D81AE985FA8580859185009791F029
:10240000E985FA858085918560E020E030E040E054
:1024100050E000E0EE24FF240E94D524E985FA85EF
:10242000118610860E94E41A8F81988565960FB6F2
:10243000F894DEBF0FBECDBFCF91DF911F910F91FA
:10244000FF90EF90DF90CF900895CF92DF92EF92C0
:10245000FF920F931F93DF93CF93CDB7DEB76197B2
:102460000FB6F894DEBF0FBECDBF9B878A877D87EE
:102470006C875F874E87398B288B8A859B859987E8
:1024800088878E859F859B838A83E885F9858685E5
:10249000882F90E081709070882329F08A819B8139
:1024A00002969B838A83888599850E94C1109D83AB
:1024B0008C83888599852C853D854E855F85EC814B
:1024C000FD81AA81BB81B9019F018D010E94A712E4
:1024D0009F838E838E819F81009741F188859985A6
:1024E0000E9419179C01E885F98586819781281734
:1024F0003907E0F01982E885F98580859185009794
:10250000A9F0E885F98580859185E889F98960E0F9
:1025100020E030E040E050E000E0EE24FF246F01D6
:102520000E949326E885F985118610868E819F8109
:1025300061960FB6F894DEBF0FBECDBFCF91DF918D
:102540001F910F91FF90EF90DF90CF9008950F9320
:102550001F93DF93CF93CDB7DEB762970FB6F89492
:10256000DEBF0FBECDBF9E838D8378876F835A8772
:1025700049873C872B871E870D87ED81FE818281ED
:1025800093819A838983ED81FE818685882F90E0EF
:10259000817090708823F1F089859A859C838B8364
:1025A0002B853C858D859E852817390780F09E01F7
:1025B0002D5F3F4F8D819E81E981FA81B90142E013
:1025C00050E09F010E9411169A8389831AC01A86CF
:1025D000198617C029853A853A8B298B8B859C856E
:1025E000988B8F872F85388989899A8982179307D5
:1025F00020F429893A89388B2F878F8598899A8783
:10260000898789859A85009789F04F8158858D81C2
:102610009E8129853A85E981FA81BA01A9019F0144
:102620000E941116ED81FE819383828389859A85AC
:1026300062960FB6F894DEBF0FBECDBFCF91DF918B
:102640001F910F910895CF92DF92EF92FF920F9317
:102650001F93DF93CF93CDB7DEB760970FB6F89493
:10266000DEBF0FBECDBF9A8789877C876B875E8769
:102670004D87388B2F8789859A8598878F831E820F
:102680001D82EF81F8858685882F90E0817090709B
:10269000882329F082E090E09A83898302C01A821D
:1026A00019828F859889009709F43FC00FB6F89476
:1026B0000F928F8198850E9419179C838B832B81A1
:1026C0003C8189819A818217930758F080E090E0DD
:1026D00060E00E94E2290E94EF22EF81F885918755
:1026E00080870F900FBE2B813C8189819A81821750
:1026F000930708F1EF85F88980E040E050E060E062
:1027000070E000E010E020E030E0EE24FF246F01F4
:102710000E94DE23EF81F885118610868F819885CF
:102720000E9419179C838B8306C08F8198850E9415
:1027300019179C838B832B813C8189819A81821715
:10274000930770F58F8198852B853C854D855E8537
:10275000EB81FC81B9019F010E94A2149E838D83AD
:102760008D819E810097E1F00E94D81AE985FA8553
:1027700082859385009791F0E985FA858285938516
:1027800060E020E030E040E050E000E0EE24FF2494
:102790000E94D524E985FA85138612860E94E41AE0
:1027A0008D819E8160960FB6F894DEBF0FBECDBFBF
:1027B000CF91DF911F910F91FF90EF90DF90CF901D
:1027C0000895DF93CF93CDB7DEB72A970FB6F8946D
:1027D000DEBF0FBECDBF9A87898789859A859E8384
:1027E0008D83ED81FE818685882F90E081709070C9
:1027F000882319F18D819E810E9419179A838983FC
:1028000089819A8183309105A8F09E01295F3F4F0D
:10281000ED81FE810190F081E02D8D819E81B901D5
:1028200042E050E09F010E9494168F8198859C831E
:102830008B8305C01C821B8202C01C821B828B8181
:102840009C812A960FB6F894DEBF0FBECDBFCF9104
:10285000DF910895CF92DF92EF92FF920F93DF9373
:10286000CF93CDB7DEB761970FB6F894DEBF0FBE3A
:10287000CDBF9B878A877D876C875F874E87398B23
:10288000288B8A859B85998788871F821E82E88589
:10289000F9858685882F90E081709070882329F0D3
:1028A00082E090E09B838A8302C01B821A82888523
:1028B00099850E9419179D838C832C813D818A8183
:1028C0009B818217930770F5888599852C853D85B6
:1028D0004E855F85EC81FD81B9019F010E94A214A4
:1028E0009F838E838E819F810097E1F01982E88516
:1028F000F985828593850097A9F0E885F985828519
:102900009385E889F98960E020E030E040E050E01C
:1029100000E0EE24FF246F010E949326E885F985EC
:10292000138612868E819F8161960FB6F894DEBF62
:102930000FBECDBFCF91DF910F91FF90EF90DF9051
:10294000CF900895DF93CF93CDB7DEB764970FB6DE
:10295000F894DEBF0FBECDBF9A8789877C876B87CF
:102960005E874D87388B2F87E985FA858081918135
:102970009A838983E985FA858685882F90E081701E
:102980009070882311F19E01295F3F4F89859A85B8
:10299000E981FA81B90142E050E09F010E9494165A
:1029A0009A8389838F8198859C838B838F8598896F
:1029B0000297988B8F872B813C818D859E8582170E
:1029C000930738F41C821B8204C08D859E859C83EE
:1029D0008B832B813C813C8B2B8B8F8598899A8BA9
:1029E000898B29893A898B899C898217930720F4DE
:1029F0002B893C893A8B298B89899A899E838D837F
:102A00008D819E81009789F04B855C8589859A85AB
:102A10002D813E81E981FA81BA01A9019F010E94BD
:102A20009416E985FA85918380838D819E816496D1
:102A30000FB6F894DEBF0FBECDBFCF91DF910895E2
:102A4000DF93CF93CDB7DEB727970FB6F894DEBFED
:102A50000FBECDBF9F838E838E819F819D838C838C
:102A6000EC81FD81808191819A838983EC81FD8154
:102A70002281338189819A812817390719F481E0ED
:102A80008B8301C01B828B8127960FB6F894DEBF23
:102A90000FBECDBFCF91DF910895DF93CF93CDB718
:102AA000DEB727970FB6F894DEBF0FBECDBF9F836A
:102AB0008E838E819F819A838983E981FA818685BD
:102AC000882F90E081709070882329F082E090E058
:102AD0009C838B8302C01C821B828E819F810E94FB
:102AE000C1109C018B819C818217930718F081E0B3
:102AF0008D8301C01D828D8127960FB6F894DEBFAD
:102B00000FBECDBFCF91DF910895CF92DF92EF92AC
:102B1000FF920F93DF93CF93CDB7DEB728970FB611
:102B2000F894DEBF0FBECDBF9E838D8378876F8301
:102B30008D819E819C838B831982EB81FC818085B2
:102B400091850097C1F0EB81FC8180859185EF81B3
:102B5000F88560E020E030E040E050E000E0EE2466
:102B6000FF246F010E949326EB81FC811186108661
:102B700081E08A8301C01A828A8128960FB6F89470
:102B8000DEBF0FBECDBFCF91DF910F91FF90EF90D1
:102B9000DF90CF900895CF92DF92EF92FF920F9344
:102BA000DF93CF93CDB7DEB728970FB6F894DEBF8B
:102BB0000FBECDBF9E838D8378876F838D819E816D
:102BC0009C838B831982EB81FC818285938500979E
:102BD000C1F0EB81FC8182859385EF81F88560E00F
:102BE00020E030E040E050E000E0EE24FF246F0100
:102BF0000E949326EB81FC811386128681E08A83F2
:102C000001C01A828A8128960FB6F894DEBF0FBEE3
:102C1000CDBFCF91DF910F91FF90EF90DF90CF90DC
:102C20000895DF93CF93CDB7DEB72E970FB6F89404
:102C3000DEBF0FBECDBF9C838B837E836D835887A1
:102C40004F833A872987EB81FC81248135818985EF
:102C50009A85A901481B590BCA012F8138853E87E7
:102C60002D879C878B874B855C858D859E858417FA
:102C7000950720F42D853E853C872B874B855C8509
:102C80005A834983EB81FC812485358589859A8522
:102C9000820F931F2D813E8149815A81B9010E9483
:102CA0006C2B2F81388589819A8182179307B0F424
:102CB000EB81FC81648575852D813E8189819A81B6
:102CC000A901480F591F2F81388589819A81281BB6
:102CD000390BCB01BA01A9010E946C2B29853A85D9
:102CE0008F819885820F931F9A878987EB81FC815A
:102CF0002481358189859A858217930750F0EB816D
:102D0000FC812481358189859A85821B930B9A8762
:102D1000898789859A852E960FB6F894DEBF0FBEF7
:102D2000CDBFCF91DF910895DF93CF93CDB7DEB7BD
:102D30002E970FB6F894DEBF0FBECDBF9C838B835A
:102D40007E836D8358874F833A872987EB81FC8187
:102D50002481358189859A85A901481B590BCA01AF
:102D60002F8138853E872D879C878B874B855C8597
:102D70008D859E858417950720F42D853E853C879B
:102D80002B874B855C855A834983EB81FC812485A5
:102D9000358589859A85A901480F591F8D819E81A6
:102DA00029813A81BA01A9010E946C2B2F813885B3
:102DB00089819A8182179307B0F42D813E818981A0
:102DC0009A81B901680F791FEB81FC814485558593
:102DD0002F81388589819A81281B390BCB01BA0153
:102DE000A9010E946C2B29853A858F819885820FD5
:102DF000931F9A878987EB81FC812481358189859E
:102E00009A858217930750F0EB81FC8124813581EC
:102E100089859A85821B930B9A87898789859A85EC
:102E20002E960FB6F894DEBF0FBECDBFCF91DF91C7
:102E30000895DF93CF9300D000D0CDB7DEB79C8349
:102E40008B83EB81FC8124813581EB81FC81828144
:102E50009381820F931F9A838983EB81FC81208168
:102E6000318189819A81821B930B9A838983EB81BB
:102E7000FC812481358189819A818217930750F0E2
:102E8000EB81FC812481358189819A81821B930B9E
:102E90009A83898389819A810F900F900F900F9068
:102EA000CF91DF910895CF92DF92EF92FF920F932F
:102EB000DF93CF93CDB7DEB72D970FB6F894DEBF73
:102EC0000FBECDBF9A8389837C836B835E834D83E2
:102ED00038872F830987FB86EA86DD86CC86898141
:102EE0009A8160E070E04FE050E00E94752BE9812C
:102EF000FA818B819C8195878487E981FA818D8114
:102F00009E8195838483E981FA818F819885978357
:102F10008683E981FA81898586872D960FB6F89494
:102F2000DEBF0FBECDBFCF91DF910F91FF90EF902D
:102F3000DF90CF9008958F929F92AF92BF92CF92E1
:102F4000DF92EF92FF920F931F93DF93CF93CDB752
:102F5000DEB760970FB6F894DEBF0FBECDBF9F837C
:102F60008E83798768875B874A873D872C870E87A2
:102F7000F88AEF868A859B850E9449009A83898317
:102F800089819A810097F1F086E290E00E944900E1
:102F90009D838C838C819D81009779F08C819D81AC
:102FA00060E070E046E250E00E94752BEC81FD810C
:102FB00089819A81908F878B07C089819A810E942D
:102FC000A30002C01D821C828C819D810097E9F0C4
:102FD0008A859B859C0140E050E08E819F816885B9
:102FE0007985EC85FD85AF85B889AC80BD808F0182
:102FF000EE846D01882499240E941B188C819D8188
:103000000E94CA1881E08B8302C08FEF8B838B8173
:1030100060960FB6F894DEBF0FBECDBFCF91DF91A3
:103020001F910F91FF90EF90DF90CF90BF90AF90E6
:103030009F908F9008958F929F92AF92BF92CF9260
:10304000DF92EF920F931F93DF93CF93CDB7DEB74D
:1030500064970FB6F894DEBF0FBECDBF9D838C83FF
:103060007F836E83288739874A875B871D870C8714
:10307000EE86D88ACF86BA8AA98A9C8A8B8AE98901
:10308000FA892789308D888599850197820F931F4A
:103090009B838A838E819F81009749F1198221C089
:1030A0008981482F50E08981282F30E08E819F81CF
:1030B000FC01E20FF31F208189899A89840F951FF3
:1030C000FC01799620838981282F30E08E819F81B1
:1030D000FC01E20FF31F8081882331F089818F5F2B
:1030E000898389818830E0F2E989FA8910A28E8586
:1030F000843010F083E08E87E989FA898E85868B8B
:1031000089899A8902960E940C0789899A890C9666
:103110000E940C07E989FA8989899A8991878087B1
:103120008E85282F30E084E090E0821B930BE989A4
:10313000FA8995878487E989FA8989899A89938B9D
:10314000828B8A819B812C813D814C855D85B90173
:103150000E94C900E989FA89918380838F859889C3
:10316000009731F0EF85F88989899A899183808366
:1031700064960FB6F894DEBF0FBECDBFCF91DF913E
:103180001F910F91EF90DF90CF90BF90AF909F90E5
:103190008F900895DF93CF9300D000D0CDB7DEB7E6
:1031A0009C838B830FB6F8940F9280914F068F5FAC
:1031B00080934F0680914C0690914D06009769F4DC
:1031C0008B819C8190934D0680934C0680914F0695
:1031D0008130B9F40E944B2214C080915306882399
:1031E00081F4E0914C06F0914D069689EB81FC81CB
:1031F0008689891730F08B819C8190934D0680934E
:103200004C06809158068F5F80935806EB81FC81B5
:10321000968980915206891728F4EB81FC81868972
:1032200080935206EB81FC818689282F30E0C9010A
:10323000880F991F880F991F880F991F820F931F5E
:10324000FC01E25AF94F818192819A838983EB8153
:10325000FC8189819A8195838483E981FA818481C3
:103260009581EB81FC8197838683E981FA810480D3
:10327000F581E02D8B819C810296938382838B81E3
:103280009C810296E981FA8195838483EB81FC819C
:103290008689282F30E0C901880F991F880F991F50
:1032A000880F991F820F931F825A994FEB81FC81DF
:1032B00093878287EB81FC818689282F30E0C901C2
:1032C000880F991F880F991F880F991F820F931FCE
:1032D000FC01E25AF94F80818F5F80830F900FBE0F
:1032E00080915306882361F0E0914C06F0914D06E1
:1032F0009689EB81FC818689981710F40E948802D8
:103300000F900F900F900F90CF91DF910895DF9362
:10331000CF9300D000D000D0CDB7DEB79C838B8395
:103320000FB6F8940F928B819C81009739F48091AD
:103330004C0690914D069E838D8304C08B819C81A9
:103340009E838D838D819E819A83898389819A81D1
:1033500002960E94CC07E981FA81848995890097B9
:1033600029F089819A810C960E94CC078091580699
:103370008F5F8093580620914C0630914D068981CD
:103380009A818217930781F489819A819C012E5F2B
:103390003F4F81EA96E0B9010E941C0780914E06DA
:1033A0008F5F80934E0607C080914F0681508093B7
:1033B0004F060E94CD220F900FBE20914C063091F7
:1033C0004D0689819A818217930721F089819A811C
:1033D0000E94B72280915306882359F020914C0611
:1033E00030914D0689819A818217930711F40E94CA
:1033F000880226960FB6F894DEBF0FBECDBFCF91E0
:10340000DF910895DF93CF93CDB7DEB72A970FB63C
:10341000F894DEBF0FBECDBF98878F837A87698708
:103420001B820E94D81A80915006909151069A836F
:103430008983EF81F8852081318189859A85820F82
:10344000931F9E838D83EF81F8852081318189814F
:103450009A818217930798F4EF81F8852081318152
:103460008D819E8182179307E0F42D813E818981B1
:103470009A8182179307A8F481E08B8312C0EF81B1
:10348000F885208131818D819E818217930738F0E4
:103490002D813E8189819A818217930710F481E002
:1034A0008B83EF81F8858D819E81918380838B81D1
:1034B000882349F08D819E8129813A81821B930B5B
:1034C00060E00E94AD2A0E94E41A8C838C818823DC
:1034D00011F40E9488028B812A960FB6F894DEBF01
:1034E0000FBECDBFCF91DF910895DF93CF9300D072
:1034F0000F92CDB7DEB79B838A8319828A819B8125
:10350000009751F00E94D81A8A819B8160E00E9446
:10351000AD2A0E94E41A89838981882311F40E94CC
:1035200088020F900F900F90CF91DF910895EF9246
:10353000FF920F93DF93CF9300D0CDB7DEB78BE32D
:1035400092E220E630E0EBE5F6E0B90145E550E037
:1035500020E030E000E07F010E949B178983898191
:10356000813081F4F8948FEF9FEF90935A06809307
:10357000590681E08093530610925106109250062E
:103580000E944C0280916B000F900F90CF91DF91C1
:103590000F91FF90EF900895DF93CF93CDB7DEB7F3
:1035A000F894109253060E948102CF91DF91089502
:1035B000DF93CF93CDB7DEB780915D068F5F8093A9
:1035C0005D06CF91DF910895DF93CF93CDB7DEB73E
:1035D0002B970FB6F894DEBF0FBECDBF1B861A86A1
:1035E00019860FB6F8940F9280915D0681508093F2
:1035F0005D0680915D06882309F02AC180914F06FF
:10360000882309F425C1F3C0E0919D06F0919E0640
:10361000868197819B878A87EA85FB85848995893E
:1036200098878F83EA85FB85A685B785EA85FB8524
:103630008089918915969C938E931497EA85FB85D2
:10364000A089B189EA85FB858685978513969C9329
:103650008E931297EF81F885218132818A859B852F
:103660000C962817390741F4EA85FB8580899189F2
:10367000EF81F88592838183EA85FB85158A148A18
:10368000EF81F88580818150EF81F8858083EA851C
:10369000FB85828593859E838D83EA85FB85A48146
:1036A000B581EA85FB858681978115969C938E93DB
:1036B0001497EA85FB85A681B781EA85FB8584811D
:1036C000958113969C938E931297ED81FE812181B3
:1036D00032818A859B8502962817390741F4EA854D
:1036E000FB8586819781ED81FE8192838183EA85C6
:1036F000FB8513861286ED81FE8180818150ED81EC
:10370000FE818083EA85FB85968980915206891720
:1037100028F4EA85FB85868980935206EA85FB8535
:103720008689282F30E0C901880F991F880F991FBB
:10373000880F991F820F931FFC01E25AF94F818174
:1037400092819C838B83EA85FB858B819C81958309
:103750008483EB81FC8184819581EA85FB85978355
:103760008683EB81FC810480F581E02D8A859B8531
:103770000296938382838A859B850296EB81FC81E6
:1037800095838483EA85FB858689282F30E0C901EB
:10379000880F991F880F991F880F991F820F931FF9
:1037A000825A994FEA85FB8593878287EA85FB8554
:1037B0008689282F30E0C901880F991F880F991F2B
:1037C000880F991F820F931FFC01E25AF94F8081E5
:1037D0008F5F8083EA85FB859689E0914C06F091A6
:1037E0004D068689981718F081E0809356068091DF
:1037F0009806882309F008CF8A859B85009711F0E9
:103800000E94CD2280915406909155069A83898317
:1038100089819A810097A1F00E94B61C882319F033
:1038200081E08093560689819A8101979A838983E2
:1038300089819A81009781F710925506109254065B
:1038400080915606882321F081E089870E948802B2
:103850000F900FBE89852B960FB6F894DEBF0FBE72
:10386000CDBFCF91DF910895DF93CF9300D0CDB737
:10387000DEB70FB6F8940F928091500690915106E2
:103880009A8389830F900FBE89819A810F900F9040
:10389000CF91DF910895DF93CF9300D00F92CDB7F2
:1038A000DEB7198280915006909151069B838A83DE
:1038B0008A819B810F900F900F90CF91DF91089597
:1038C000DF93CF93CDB7DEB780914F06CF91DF91D5
:1038D0000895DF93CF9300D000D000D0CDB7DEB7EE
:1038E0009C838B838B819C81009739F480914C065B
:1038F00090914D069E838D8304C08B819C819E8315
:103900008D838D819E819A83898389819A8149964D
:1039100026960FB6F894DEBF0FBECDBFCF91DF91D4
:103920000895DF93CF9300D00F92CDB7DEB79B837E
:103930008A830E94D81A0FB6F8940F9220915406E9
:10394000309155068A819B81820F931F9093550673
:10395000809354060F900FBE0E94E41A89838981D8
:103960000F900F900F90CF91DF910895DF93CF9339
:10397000CDB7DEB72F970FB6F894DEBF0FBECDBF21
:103980001B8680915D06882309F074C180915006E2
:103990009091510601969A87898789859A85909397
:1039A00051068093500689859A850097D9F48091B5
:1039B00094069091950698878F83809196069091B2
:1039C000970690939506809394068F81988590939F
:1039D000970680939606809157068F5F80935706CF
:1039E0000E94CD222091590630915A0689859A85E8
:1039F0008217930708F41FC1E0919406F091950691
:103A00008081882339F48FEF9FEF90935A0680933B
:103A1000590611C1E0919406F09195060580F68152
:103A2000E02D868197819F878E87EE85FF85828135
:103A300093819D878C8729853A858C859D8528175C
:103A4000390738F48C859D8590935A0680935906E2
:103A5000F2C0EE85FF85828593859E838D83EE85FA
:103A6000FF85A481B581EE85FF85868197811596B6
:103A70009C938E931497EE85FF85A681B781EE8582
:103A8000FF858481958113969C938E931297ED8187
:103A9000FE81218132818E859F8502962817390704
:103AA00041F4EE85FF8586819781ED81FE819283C9
:103AB0008183EE85FF8513861286ED81FE818081EC
:103AC0008150ED81FE818083EE85FF858489958913
:103AD0000097D9F1EE85FF85848995899C838B8336
:103AE000EE85FF85A685B785EE85FF85808991895E
:103AF00015969C938E931497EE85FF85A089B189C6
:103B0000EE85FF858685978513969C938E931297F5
:103B1000EB81FC81218132818E859F850C9628174F
:103B2000390741F4EE85FF8580899189EB81FC811D
:103B300092838183EE85FF85158A148AEB81FC814F
:103B400080818150EB81FC818083EE85FF859689A1
:103B500080915206891728F4EE85FF858689809327
:103B60005206EE85FF858689282F30E0C901880F2F
:103B7000991F880F991F880F991F820F931FFC01AF
:103B8000E25AF94F818192819A838983EE85FF857C
:103B900089819A8195838483E981FA8184819581E1
:103BA000EE85FF8597838683E981FA810480F5811C
:103BB000E02D8E859F850296938382838E859F85D7
:103BC0000296E981FA8195838483EE85FF85868953
:103BD000282F30E0C901880F991F880F991F880F7F
:103BE000991F820F931F825A994FEE85FF85938705
:103BF0008287EE85FF858689282F30E0C901880FEE
:103C0000991F880F991F880F991F820F931FFC011E
:103C1000E25AF94F80818F5F8083EE85FF85968918
:103C2000E0914C06F0914D068689891708F0E4CEA4
:103C300081E08B87E1CEE0914C06F0914D068689BC
:103C4000282F30E0C901880F991F880F991F880F0E
:103C5000991F820F931FFC01E25AF94F8081823035
:103C600010F081E08B8780915606882361F081E017
:103C70008B8709C0809154069091550601969093C8
:103C80005506809354068B852F960FB6F894DEBFA9
:103C90000FBECDBFCF91DF910895DF93CF9300D0BA
:103CA0000F92CDB7DEB780915D06882321F081E0C9
:103CB0008093560659C010925606809152068B8307
:103CC00003C08B8181508B838B81282F30E0C90109
:103CD000880F991F880F991F880F991F820F931FB4
:103CE000FC01E25AF94F8081882359F38B81282FF8
:103CF00030E0C901880F991F880F991F880F991FFD
:103D0000820F931F825A994F9A838983E981FA819E
:103D10000180F281E02D82819381E981FA81928391
:103D20008183E981FA812181328189819A81039697
:103D30002817390759F4E981FA810180F281E02DD1
:103D400082819381E981FA8192838183E981FA8179
:103D50000180F281E02D8681978190934D068093BA
:103D60004C068B81809352060F900F900F90CF914D
:103D7000DF910895DF93CF9300D000D0CDB7DEB7A9
:103D80009A8389837C836B8380914C0690914D0646
:103D90009C01245F3F4F89819A81B9010E9460078D
:103DA0008B819C8161E00E94AD2A0F900F900F9053
:103DB0000F90CF91DF910895DF93CF93CDB7DEB70A
:103DC00028970FB6F894DEBF0FBECDBF9C838B83C0
:103DD0007E836D8358874F83E0914C06F0914D06AA
:103DE0008D819E81906895878487EB81FC8181819C
:103DF00092819A838983E0914C06F0914D068981E6
:103E00009A8197878687A0914C06B0914D06E981EB
:103E1000FA818481958151969C938E935097E98184
:103E2000FA810480F581E02D80914C0690914D0639
:103E30000C969383828380914C0690914D060C964C
:103E4000E981FA8195838483E0914C06F0914D06D7
:103E50008B819C81958B848BEB81FC8180818F5F32
:103E6000EB81FC8180838F81988561E00E94AD2A7F
:103E700028960FB6F894DEBF0FBECDBFCF91DF916D
:103E80000895DF93CF93CDB7DEB72D970FB6F89493
:103E9000DEBF0FBECDBF9D878C87EC85FD8505807D
:103EA000F681E02D868197819B878A87EA85FB854D
:103EB0008489958998878F83EA85FB85A685B78550
:103EC000EA85FB858089918915969C938E9314973A
:103ED000EA85FB85A089B189EA85FB85868597857A
:103EE00013969C938E931297EF81F88521813281EE
:103EF0008A859B850C962817390741F4EA85FB854E
:103F000080899189EF81F88592838183EA85FB8599
:103F1000158A148AEF81F88580818150EF81F885B8
:103F2000808380915D06882309F0A4C0EA85FB8523
:103F3000828593859E838D83EA85FB85A481B581E7
:103F4000EA85FB858681978115969C938E931497BD
:103F5000EA85FB85A681B781EA85FB858481958109
:103F600013969C938E931297ED81FE81218132816D
:103F70008A859B8502962817390741F4EA85FB85D7
:103F800086819781ED81FE8192838183EA85FB851D
:103F900013861286ED81FE8180818150ED81FE8144
:103FA0008083EA85FB85968980915206891728F4DB
:103FB000EA85FB85868980935206EA85FB8586899A
:103FC000282F30E0C901880F991F880F991F880F8B
:103FD000991F820F931FFC01E25AF94F8181928150
:103FE0009C838B83EA85FB858B819C81958384836D
:103FF000EB81FC8184819581EA85FB8597838683AB
:10400000EB81FC810480F581E02D8A859B850296F9
:10401000938382838A859B850296EB81FC819583BD
:104020008483EA85FB858689282F30E0C901880FC3
:10403000991F880F991F880F991F820F931F825A0B
:10404000994FEA85FB8593878287EA85FB85868978
:10405000282F30E0C901880F991F880F991F880FFA
:10406000991F820F931FFC01E25AF94F80818F5FE5
:10407000808330C08091990690919A069A838983B3
:10408000EA85FB8589819A8197878687E981FA810C
:1040900084819581EA85FB85918B808BE981FA810A
:1040A0000480F581E02D8A859B850C96938382831D
:1040B0008A859B850C96E981FA8195838483EA85BC
:1040C000FB8588E996E0958B848B809198068F5FBD
:1040D00080939806EA85FB859689E0914C06F091DD
:1040E0004D068689891730F481E0898781E08093C5
:1040F000560601C0198689852D960FB6F894DEBF45
:104100000FBECDBFCF91DF910895DF93CF93CDB791
:10411000DEB72C970FB6F894DEBF0FBECDBF9A87DF
:1041200089877C876B878B859C859068E985FA8574
:1041300091838083E985FA858681978198878F832B
:10414000E985FA85808591859E838D83E985FA8549
:10415000A281B381E985FA858481958115969C9326
:104160008E931497E985FA85A481B581E985FA854E
:104170008281938113969C938E931297ED81FE8199
:104180002181328189859A852817390741F4E9858B
:10419000FA8584819581ED81FE8192838183E98511
:1041A000FA8511861086ED81FE8180818150ED8136
:1041B000FE818083EF81F885828593859C838B8344
:1041C000EF81F885A481B581EF81F885868197819B
:1041D00015969C938E931497EF81F885A681B781ED
:1041E000EF81F8858481958113969C938E93129725
:1041F000EB81FC81218132818F819885029628177D
:10420000390741F4EF81F88586819781EB81FC8144
:1042100092838183EF81F88513861286EB81FC817E
:1042200080818150EB81FC818083EF81F8859689C4
:1042300080915206891728F4EF81F885868980934A
:104240005206EF81F8858689282F30E0C901880F52
:10425000991F880F991F880F991F820F931FFC01C8
:10426000E25AF94F818192819A838983EF81F8859F
:1042700089819A8195838483E981FA8184819581FA
:10428000EF81F88597838683E981FA810480F5813F
:10429000E02D8F8198850296938382838F81988504
:1042A0000296E981FA8195838483EF81F885868976
:1042B000282F30E0C901880F991F880F991F880F98
:1042C000991F820F931F825A994FEF81F885938728
:1042D0008287EF81F8858689282F30E0C901880F11
:1042E000991F880F991F880F991F820F931FFC0138
:1042F000E25AF94F80818F5F8083EF81F88596893C
:10430000E0914C06F0914D068689891718F481E0FA
:10431000809356062C960FB6F894DEBF0FBECDBF25
:10432000CF91DF910895DF93CF9300D0CDB7DEB763
:104330009A8389830FB6F8940F9280915706E9818A
:10434000FA8180838091500690915106E981FA812B
:10435000928381830F900FBE0F900F90CF91DF91CA
:104360000895DF93CF9300D0CDB7DEB79A838983CA
:1043700080915706E981FA8180838091500690915F
:104380005106E981FA81928381830F900F90CF913A
:10439000DF910895DF93CF93CDB7DEB729970FB69E
:1043A000F894DEBF0FBECDBF9F838E837987688769
:1043B0000FB6F8940F9280915006909151069C830D
:1043C0008B83EE81FF81218132818B819C81821BD5
:1043D000930B9A838983EE81FF81908180915706A8
:1043E000981781F0EE81FF81218132818B819C8140
:1043F0008217930738F081E08D83E885F985118273
:10440000108223C0E885F9852081318189819A81D4
:1044100082179307A0F4E885F9852081318189818D
:104420009A81A901481B590BCA01E885F985918336
:1044300080838E819F810E94B1211D8206C0E88504
:10444000F9851182108281E08D830F900FBE8D81DE
:1044500029960FB6F894DEBF0FBECDBFCF91DF9186
:104460000895DF93CF93CDB7DEB781E080935606F2
:10447000CF91DF910895DF93CF9300D0CDB7DEB712
:104480009A8389830E94882280915E068230D0F3CD
:104490000E948802F7CFDF93CF930F92CDB7DEB79C
:1044A000198213C08981282F30E0C901880F991F14
:1044B000880F991F880F991F820F931F825A994F57
:1044C0000E94E20689818F5F89838981843050F35D
:1044D00082E896E00E94E2068BE896E00E94E206FF
:1044E00088E996E00E94E20681EA96E00E94E206F0
:1044F00082E896E090939506809394068BE896E088
:1045000090939706809396060F90CF91DF91089530
:10451000DF93CF9300D0CDB7DEB720C00FB6F894AD
:104520000F92E091A606F091A706868197819A8363
:10453000898389819A8102960E94CC0780914F06D7
:10454000815080934F0680914E06815080934E0695
:104550000F900FBE89819A810E94B72280914E06EA
:104560008823E1F60F900F90CF91DF910895DF93AC
:10457000CF9300D0CDB7DEB79A838983E981FA81E2
:104580008789908D0E94A30089819A810E94A3004F
:104590000F900F90CF91DF910895DF93CF93CDB718
:1045A000DEB7E0919406F09195068081882339F476
:1045B0008FEF9FEF90935A06809359060DC0E091BC
:1045C0009406F09195060580F681E02D8081918119
:1045D00090935A0680935906CF91DF910895DF9307
:1045E000CF9300D0CDB7DEB780914C0690914D06A9
:1045F0009A83898389819A810F900F90CF91DF915F
:104600000895DF93CF9300D0CDB7DEB7E0914C068D
:10461000F0914D06848595859A838983A0914C06F7
:10462000B0914D06E0914C06F0914D068689282FF9
:1046300030E084E090E0821B930B1D969C938E9358
:104640001C9789819A810F900F90CF91DF910895E7
:10465000DF93CF93CDB7DEB728970FB6F894DEBFC0
:104660000FBECDBF8D836E8358874F830FB6F894EE
:104670000F9220914C0630914D068D81882F90E04D
:10468000880F991F880F991F820F931FFC01B19605
:1046900080819181A281B3810097A105B105C1F408
:1046A00020914C0630914D068D81882F90E0820F2D
:1046B000931FFC01B59681E080838F8198850097D8
:1046C00039F08F81988561E00E94AD2A0E948802AE
:1046D0000F900FBE0FB6F8940F9220914C063091B8
:1046E0004D068D81882F90E0880F991F880F991FA4
:1046F000820F931FFC01B19680819181A281B381C9
:1047000089839A83AB83BC8389819A81AB81BC8185
:104710000097A105B105A9F18E818823A1F0209110
:104720004C0630914D068D81882F90E0880F991F9F
:10473000880F991F820F931FFC01B196108211827E
:10474000128213821EC0E0914C06F0914D068D81BD
:10475000682F70E089819A81AB81BC819C01AD0199
:104760002150304040405040CB01880F991F880FA6
:10477000991F8E0F9F1FFC01B196208331834283C6
:10478000538320914C0630914D068D81882F90E007
:10479000820F931FFC01B59610820F900FBE898186
:1047A0009A81AB81BC81BC01CD0128960FB6F894EB
:1047B000DEBF0FBECDBFCF91DF910895CF92DF92C4
:1047C000EF92FF920F931F93DF93CF93CDB7DEB796
:1047D0002E970FB6F894DEBF0FBECDBF8A834B83F2
:1047E0005C836D837E830F83188729873A87FC86D5
:1047F000EB86DE86CD860FB6F8940F9220914C069C
:1048000030914D068A81882F90E0820F931FFC0122
:10481000B5968081823009F447C060914C06709152
:104820004D068A81082F10E08A81882F90E0880F3A
:10483000991F880F991F860F971FFC01B196208141
:104840003181428153818B819C81AD81BE81809574
:104850009095A095B095282339234A235B23C8015E
:10486000880F991F880F991F860F971FFC01B1961B
:10487000208331834283538320914C0630914D062F
:104880008A81882F90E0820F931FFC01B59681E00A
:1048900080838D859E85009739F08D859E8561E0AA
:1048A0000E94AD2A0E9488020F900FBE0FB6F894A6
:1048B0000F928B859C850097C9F020914C06309112
:1048C0004D068A81882F90E0880F991F880F991FC5
:1048D000820F931FFC01B19680819181A281B381E7
:1048E000EB85FC8580839183A283B38320914C0662
:1048F00030914D068A81882F90E0820F931FFC0132
:10490000B5968081823011F0198231C060914C06D9
:1049100070914D068A81082F10E08A81882F90E0DF
:10492000880F991F880F991F860F971FFC01B1965A
:1049300020813181428153818F819885A985BA85F3
:1049400080959095A095B095282339234A235B2321
:10495000C801880F991F880F991F860F971FFC01A8
:10496000B196208331834283538381E089832091F0
:104970004C0630914D068A81882F90E0820F931F5C
:10498000FC01B59610820F900FBE89812E960FB64E
:10499000F894DEBF0FBECDBFCF91DF911F910F9175
:1049A000FF90EF90DF90CF900895EF92FF920F93DA
:1049B0001F93DF93CF93CDB7DEB764970FB6F8940C
:1049C000DEBF0FBECDBF9A8789876B872C873D8757
:1049D0004E875F87088BFA8AE98A81E08E83898512
:1049E0009A8598878F830FB6F8940F9289899A8950
:1049F0000097B9F08B85882F90E02F813885880F3C
:104A0000991F880F991F820F931FFC01B196808117
:104A10009181A281B381E989FA8980839183A283FC
:104A2000B3838B85282F30E08F819885820F931F69
:104A3000FC01B59680818D838B85282F30E08F8196
:104A40009885820F931FFC01B59682E08083888948
:104A5000282F30E03C8B2B8B8B899C8982309105F1
:104A600009F446C02B893C892330310534F48B8905
:104A70009C898130910571F093C02B893C8923304A
:104A8000310509F45DC08B899C898430910509F456
:104A90006DC086C08B85082F10E08B85882F90E035
:104AA0002F813885880F991F880F991F820F931FB8
:104AB000FC01B19620813181428153818C859D8595
:104AC000AE85BF85BA01A901482B592B6A2B7B2BD8
:104AD0002F813885C801880F991F880F991F820F71
:104AE000931FFC01B196408351836283738358C046
:104AF0008B85082F10E02F813885C801880F991FFA
:104B0000880F991F820F931FFC01B19680819181BC
:104B1000A281B381AC01BD014F5F5F4F6F4F7F4FEB
:104B20002F813885C801880F991F880F991F820F20
:104B3000931FFC01B196408351836283738330C01D
:104B40008B85882F90E02F813885880F991F880FDB
:104B5000991F820F931FFC01B1968C859D85AE85B0
:104B6000BF8580839183A283B3831AC08D818230F5
:104B7000B1F08B85882F90E02F813885880F991FA1
:104B8000880F991F820F931FFC01B1968C859D851C
:104B9000AE85BF8580839183A283B38301C01E82CB
:104BA0008D81813009F0AFC0EF81F88582859385D2
:104BB0009C838B83EF81F885A481B581EF81F88593
:104BC0008681978115969C938E931497EF81F88533
:104BD000A681B781EF81F8858481958113969C9396
:104BE0008E931297EB81FC81218132818F81988590
:104BF00002962817390741F4EF81F885868197815D
:104C0000EB81FC8192838183EF81F8851386128684
:104C1000EB81FC8180818150EB81FC818083EF817D
:104C2000F885968980915206891728F4EF81F885D6
:104C3000868980935206EF81F8858689282F30E097
:104C4000C901880F991F880F991F880F991F820F1C
:104C5000931FFC01E25AF94F818192819A838983E3
:104C6000EF81F88589819A8195838483E981FA812E
:104C700084819581EF81F88597838683E981FA8124
:104C80000480F581E02D8F8198850296938382833D
:104C90008F8198850296E981FA8195838483EF81DB
:104CA000F8858689282F30E0C901880F991F880F61
:104CB000991F880F991F820F931F825A994FEF8176
:104CC000F88593878287EF81F8858689282F30E0E1
:104CD000C901880F991F880F991F880F991F820F8C
:104CE000931FFC01E25AF94F80818F5F8083EF812F
:104CF000F8859689E0914C06F0914D0686898917D2
:104D000010F40E9488020F900FBE8E8164960FB639
:104D1000F894DEBF0FBECDBFCF91DF911F910F91F1
:104D2000FF90EF900895CF92DF92EF92FF920F9352
:104D30001F93DF93CF93CDB7DEB769970FB6F89483
:104D4000DEBF0FBECDBF9D878C876E872F87388BC8
:104D5000498B5A8B0B8BFD8AEC8ADF8ACE8A81E0E5
:104D600088878C859D859B878A871F828C899D89F2
:104D70000097B9F08E85882F90E02A853B85880FB3
:104D8000991F880F991F820F931FFC01B196808194
:104D90009181A281B381EC89FD8980839183A28373
:104DA000B3838E85282F30E08A859B85820F931FE1
:104DB000FC01B596808189878E85282F30E08A8511
:104DC0009B85820F931FFC01B59682E080838B89BF
:104DD000282F30E0398F288F888D998D823091056A
:104DE00009F446C0288D398D2330310534F4888D7F
:104DF000998D8130910571F093C0288D398D2330C4
:104E0000310509F45DC0888D998D8430910509F4D0
:104E10006DC086C08E85082F10E08E85882F90E0AB
:104E20002A853B85880F991F880F991F820F931F32
:104E3000FC01B19620813181428153818F8598890F
:104E4000A989BA89BA01A901482B592B6A2B7B2B56
:104E50002A853B85C801880F991F880F991F820FEB
:104E6000931FFC01B196408351836283738358C0C2
:104E70008E85082F10E02A853B85C801880F991F71
:104E8000880F991F820F931FFC01B1968081918139
:104E9000A281B381AC01BD014F5F5F4F6F4F7F4F68
:104EA0002A853B85C801880F991F880F991F820F9B
:104EB000931FFC01B196408351836283738330C09A
:104EC0008E85882F90E02A853B85880F991F880F53
:104ED000991F820F931FFC01B1968F859889A9892C
:104EE000BA8980839183A283B3831AC08985823073
:104EF000B1F08E85882F90E02A853B85880F991F19
:104F0000880F991F820F931FFC01B1968F85988996
:104F1000A989BA8980839183A283B38301C018864B
:104F20008985813009F0EEC080915D06882309F003
:104F3000A4C0EA85FB85828593859E838D83EA855F
:104F4000FB85A481B581EA85FB85868197811596CD
:104F50009C938E931497EA85FB85A681B781EA8599
:104F6000FB858481958113969C938E931297ED8196
:104F7000FE81218132818A859B8502962817390717
:104F800041F4EA85FB8586819781ED81FE819283DC
:104F90008183EA85FB8513861286ED81FE818081FF
:104FA0008150ED81FE818083EA85FB859689809121
:104FB0005206891728F4EA85FB8586898093520674
:104FC000EA85FB858689282F30E0C901880F991F63
:104FD000880F991F880F991F820F931FFC01E25AB7
:104FE000F94F818192819C838B83EA85FB858B813C
:104FF0009C8195838483EB81FC8184819581EA8502
:10500000FB8597838683EB81FC810480F581E02D0D
:105010008A859B850296938382838A859B850296E7
:10502000EB81FC8195838483EA85FB858689282F23
:1050300030E0C901880F991F880F991F880F991FA9
:10504000820F931F825A994FEA85FB859387828747
:10505000EA85FB858689282F30E0C901880F991FD2
:10506000880F991F880F991F820F931FFC01E25A26
:10507000F94F80818F5F808330C080919906909135
:105080009A069A838983EA85FB8589819A81978725
:105090008687E981FA8184819581EA85FB85918BF8
:1050A000808BE981FA810480F581E02D8A859B85DA
:1050B0000C96938382838A859B850C96E981FA817D
:1050C00095838483EA85FB8588E996E0958B848BBC
:1050D000809198068F5F80939806EA85FB85968974
:1050E000E0914C06F0914D068689891758F48E8917
:1050F0009F89009721F0EE89FF8981E0808381E01C
:1051000080935606888569960FB6F894DEBF0FBE69
:10511000CDBFCF91DF911F910F91FF90EF90DF9066
:10512000CF9008950F931F93DF93CF93CDB7DEB742
:105130002F970FB6F894DEBF0FBECDBF9C878B872D
:105140006D875F874E878B859C859A8789871F82AD
:105150008D85282F30E089859A85820F931FFC0169
:10516000B596808188878D85282F30E089859A853E
:10517000820F931FFC01B59682E080838D85082FF6
:1051800010E029853A85C801880F991F880F991F5B
:10519000820F931FFC01B19680819181A281B3811E
:1051A000AC01BD014F5F5F4F6F4F7F4F29853A853F
:1051B000C801880F991F880F991F820F931FFC0148
:1051C000B19640835183628373838885813009F06F
:1051D000EEC080915D06882309F0A4C0E985FA85B8
:1051E000828593859E838D83E985FA85A481B58127
:1051F000E985FA858681978115969C938E931497FD
:10520000E985FA85A681B781E985FA85848195814A
:1052100013969C938E931297ED81FE8121813281AA
:1052200089859A8502962817390741F4E985FA8518
:1052300086819781ED81FE8192838183E985FA855C
:1052400013861286ED81FE8180818150ED81FE8181
:105250008083E985FA85968980915206891728F41A
:10526000E985FA85868980935206E985FA858689DB
:10527000282F30E0C901880F991F880F991F880FC8
:10528000991F820F931FFC01E25AF94F818192818D
:105290009C838B83E985FA858B819C8195838483AC
:1052A000EB81FC8184819581E985FA8597838683EA
:1052B000EB81FC810480F581E02D89859A85029639
:1052C0009383828389859A850296EB81FC819583FD
:1052D0008483E985FA858689282F30E0C901880F03
:1052E000991F880F991F880F991F820F931F825A49
:1052F000994FE985FA8593878287E985FA858689BA
:10530000282F30E0C901880F991F880F991F880F37
:10531000991F820F931FFC01E25AF94F80818F5F22
:10532000808330C08091990690919A069A838983F0
:10533000E985FA8589819A8197878687E981FA814B
:1053400084819581E985FA85918B808BE981FA8149
:105350000480F581E02D89859A850C96938382835C
:1053600089859A850C96E981FA8195838483E985FC
:10537000FA8588E996E0958B848B809198068F5FFB
:1053800080939806E985FA859689E0914C06F0911C
:105390004D068689891758F48E859F85009721F0E0
:1053A000EE85FF8581E0808381E0809356062F960D
:1053B0000FB6F894DEBF0FBECDBFCF91DF911F9126
:1053C0000F910895DF93CF93CDB7DEB728970FB62F
:1053D000F894DEBF0FBECDBF9D838C836E838C811E
:1053E0009D81009739F480914C0690914D069887E5
:1053F0008F8304C08C819D8198878F838F8198854E
:105400009B838A830FB6F8940F928E81282F30E009
:105410008A819B81820F931FFC01B5968081823027
:1054200069F48E81282F30E08A819B81820F931F3F
:10543000FC01B596108281E0898301C019820F902A
:105440000FBE898128960FB6F894DEBF0FBECDBF80
:10545000CF91DF9108950F931F93DF93CF93CDB733
:10546000DEB72F970FB6F894DEBF0FBECDBF98877B
:105470008F8369872A873B874C875D878F819885D3
:10548000009739F480914C0690914D069F878E8746
:1054900004C08F8198859F878E878E859F859E8388
:1054A0008D830FB6F8940F928985882F90E02D8117
:1054B0003E81880F991F880F991F820F931FFC014F
:1054C000B19680819181A281B38189839A83AB83D4
:1054D000BC838985082F10E08985882F90E02D8175
:1054E0003E81880F991F880F991F820F931FFC011F
:1054F000B19620813181428153818A859B85AC851B
:10550000BD8580959095A095B095BA01A9014823D5
:1055100059236A237B232D813E81C801880F991F5F
:10552000880F991F820F931FFC01B196408351830E
:10553000628373830F900FBE89819A81AB81BC8196
:10554000BC01CD012F960FB6F894DEBF0FBECDBFC4
:10555000CF91DF911F910F910895DF93CF93CDB736
:10556000DEB727970FB6F894DEBF0FBECDBF9E8380
:105570008D836F8380915006909151069A83898321
:1055800080914C0690914D0602960E94CC0729818D
:105590003A818D819E81820F931F9C838B83E09142
:1055A0004C06F0914D068B819C81938382832B81E5
:1055B0003C8189819A812817390770F48091960679
:1055C0009091970620914C0630914D062E5F3F4FEB
:1055D000B9010E9460071EC0409194065091950643
:1055E00080914C0690914D069C012E5F3F4FCA0161
:1055F000B9010E9460072091590630915A068B81AB
:105600009C818217930730F48B819C8190935A067A
:105610008093590627960FB6F894DEBF0FBECDBF14
:10562000CF91DF910895EF92FF920F93DF93CF9385
:10563000CDB7DEB7A7E3B0E0E7E3F0E080818160BB
:105640008C938AE39BE225E630E0EAEAF6E0B901D2
:1056500045E550E020E030E002E07F010E949B172A
:105660000E94971A80E090E0CF91DF910F91FF9018
:10567000EF900895DF93CF9300D0CDB7DEB79A8334
:105680008983A8E3B0E0E8E3F0E0808181608C9357
:1056900080ED97E00E94751AA8E3B0E0E8E3F0E03F
:1056A00080818E7F8C9380ED97E00E94751AE9CF00
:1056B000AA1BBB1B51E107C0AA1FBB1FA617B70738
:1056C00010F0A61BB70B881F991F5A95A9F7809554
:1056D0009095BC01CD010895FB01DC0102C0019051
:1056E0000D9241505040D8F70895DC0101C06D93F0
:0C56F00041505040E0F70895F894FFCFBF
:0C56FC0049444C45005461736B310003BD
:00000001FF
