:100000000C942A000C94B60A0C94E90A0C941C0B6C
:100010000C9447000C9447000C9447000C94470044
:100020000C9447000C9447000C9499060C944E06CF
:100030000C9447000C9447000C9447000C94470024
:100040000C9447000C9447000C9447000C94470014
:100050000C94470011241FBECFE5D8E0DEBFCDBF12
:1000600010E0A0E6B0E0E8EAF5E302C005900D92EA
:10007000AC3DB107D9F710E0ACEDB0E001C01D9286
:10008000A13FB107E1F70E94E2190C94D21A0C9437
:100090000000EF92FF920F931F937B018C0120E0F1
:1000A00030E040E05FE40E94490388238CF0C801FF
:1000B000B70120E030E040E05FE40E94C1010E940F
:1000C000A9039B01AC01205030404040504806C07D
:1000D000C801B7010E94A9039B01AC01B901CA0183
:1000E0001F910F91FF90EF900895A0E0B0E0EBE733
:1000F000F0E00C949B1ADC012B01FA019C919230E8
:1001000008F439C1EB018881823008F433C194309E
:1001100069F4843009F02FC111969C91119789815F
:10012000981709F428C1A0E6B0E025C1843009F48D
:1001300021C18230A9F4923009F01DC19A01AD01AC
:1001400088E0EA010990AE01E90109929E0181501F
:10015000C1F7E201898111969C918923818308C1AD
:10016000923009F407C112962D903C901397EB0141
:100170008A819B811496AD90BD90CD90DC901797AD
:10018000EC80FD800E811F819101281B390BB90184
:1001900037FF04C066277727621B730B6032710537
:1001A0000CF061C0121613066CF537014801062EDB
:1001B00004C096948794779467940A94D2F721E0C8
:1001C00030E040E050E004C0220F331F441F551FB1
:1001D0006A95D2F721503040404050402E213F21B7
:1001E00040235123211531054105510521F021E01E
:1001F00030E040E050E079018A01E628F72808293C
:1002000019293CC0232BD1F1260E371E350146019A
:10021000062E04C096948794779467940A94D2F734
:1002200021E030E040E050E004C0220F331F441FC3
:10023000551F6A95D2F721503040404050402A2146
:100240003B214C215D21211531054105510521F04E
:1002500021E030E040E050E059016A01A628B728CB
:10026000C828D9280BC0821593052CF01C01AA249C
:10027000BB24650103C0EE24FF24870111969C91E5
:10028000D20111968C91981709F445C0992339F041
:10029000A80197012A193B094C095D0906C0A6016E
:1002A00095012E193F09400B510B57FD08C01182D3
:1002B0003382228224833583468357831DC081E0A5
:1002C00081833382228288279927DC01821B930B4A
:1002D000A40BB50B84839583A683B7830DC0220F2F
:1002E000331F441F551F24833583468357838281E0
:1002F000938101979383828324813581468157813D
:10030000DA01C9010197A109B1098F5F9F4FAF4F72
:10031000BF4328F30BC0918333822282EA0CFB1C7B
:100320000C1D1D1DE482F5820683178383E0808304
:10033000248135814681578157FF1AC0C901AA27F8
:1003400097FDA095BA2F81709070A070B0705695EF
:10035000479537952795822B932BA42BB52B848318
:100360009583A683B7838281938101969383828349
:10037000DF0101C0D201CD01CDB7DEB7E2E10C94BF
:10038000B71AA0E2B0E0E7ECF1E00C94A71A698399
:100390007A838B839C832D833E834F835887E9E048
:1003A000EE2EF12CEC0EFD1ECE010196B7010E943F
:1003B000D2048E010F5E1F4FCE010596B8010E9438
:1003C000D2048A8991E089278A8BC701B801AE01DE
:1003D000475E5F4F0E9475000E94FD03A096E6E015
:1003E0000C94C31AA0E2B0E0E8EFF1E00C94A71A75
:1003F00069837A838B839C832D833E834F835887C5
:10040000F9E0EF2EF12CEC0EFD1ECE010196B701A6
:100410000E94D2048E010F5E1F4FCE010596B801D7
:100420000E94D204C701B801AE01475E5F4F0E942F
:1004300075000E94FD03A096E6E00C94C31AA0E2AA
:10044000B0E0E5E2F2E00C949B1A69837A838B8337
:100450009C832D833E834F835887CE010196BE0136
:10046000675F7F4F0E94D204CE010596BE016F5E8A
:100470007F4F0E94D2049985923088F0898982301A
:10048000C8F0943019F4823051F404C0843029F457
:10049000923081F480E690E0C6C0923049F420E0CA
:1004A0009A858A89981321E02A87CE010996BBC0D4
:1004B000823049F420E09A858A89981321E02A8BBA
:1004C000CE014196B0C02D843E844F8458886D88FB
:1004D0007E888F88988CEE24FF248701AA24BB2471
:1004E000650140E050E060E070E0E0E0F0E0C10174
:1004F00081709070892BE9F0E60CF71C081D191D1E
:100500009A01AB012A0D3B1D4C1D5D1D80E090E062
:10051000A0E0B0E0E614F7040805190520F481E036
:1005200090E0A0E0B0E0BA01A901480F591F6A1F8E
:100530007B1FAA0CBB1CCC1CDD1C97FE08C081E0F5
:1005400090E0A0E0B0E0A82AB92ACA2ADB2A3196B6
:10055000E032F10549F0660C771C881C991C569412
:10056000479437942794C3CFFA85EA892B893C892D
:100570008B859C85280F391F2E5F3F4F17C0CA01FE
:1005800081709070892B61F016950795F794E79428
:1005900080E090E0A0E0B0E8E82AF92A0A2B1B2BC3
:1005A00076956795579547952F5F3F4F77FDE7CF36
:1005B0000CC0440F551F661F771F17FD4160EE0CDE
:1005C000FF1C001F111F21503040403090E05907A0
:1005D00090E0690790E4790760F32B8F3C8FDB0193
:1005E000CA018F779070A070B07080349105A1051A
:1005F000B10561F447FD0AC0E114F10401051105DC
:1006000029F0405C5F4F6F4F7F4F40781A8EFE1786
:1006100011F081E08A8F4D8F5E8F6F8F78A383E01A
:10062000898FCE0149960E94FD03A096E2E10C94C9
:10063000B71AA8E1B0E0EFE1F3E00C94A71A6983E0
:100640007A838B839C832D833E834F83588789E0F5
:10065000E82EF12CEC0EFD1ECE010196B7010E9492
:10066000D2048E010F5E1F4FCE010596B8010E9485
:10067000D2048985823040F08989823028F0C70110
:10068000B8010E944A0501C08FEF6896E6E00C941D
:10069000C31AA8E1B0E0EFE4F3E00C94A71A698371
:1006A0007A838B839C832D833E834F83588789E095
:1006B000E82EF12CEC0EFD1ECE010196B7010E9432
:1006C000D2048E010F5E1F4FCE010596B8010E9425
:1006D000D2048985823040F08989823028F0C701B0
:1006E000B8010E944A0501C08FEF6896E6E00C94BD
:1006F000C31AA8E1B0E0EFE7F3E00C94A71A69830E
:100700007A838B839C832D833E834F83588789E034
:10071000E82EF12CEC0EFD1ECE010196B7010E94D1
:10072000D2048E010F5E1F4FCE010596B8010E94C4
:10073000D2048985823040F08989823028F0C7014F
:10074000B8010E944A0501C081E06896E6E00C9479
:10075000C31AACE0B0E0EFEAF3E00C94AB1A6983A3
:100760007A838B839C83CE010196BE016B5F7F4FA2
:100770000E94D2048D81823061F1823050F1843048
:1007800021F48E81882351F12EC02F81388537FDC9
:1007900020C06E812F3131051CF06623F9F023C093
:1007A0008EE190E0821B930B29853A854B855C8511
:1007B00004C056954795379527958A95D2F76623B5
:1007C000B1F050954095309521953F4F4F4F5F4F79
:1007D0000EC020E030E040E050E009C02FEF3FEFD6
:1007E0004FEF5FE704C020E030E040E050E8B9019F
:1007F000CA012C96E2E00C94C71ADF92EF92FF92A6
:100800000F931F93FC01E480F58006811781D1804E
:100810008081823048F480E090E0A0E1B0E0E82AF6
:10082000F92A0A2B1B2BA5C0843009F49FC0823003
:1008300021F4EE24FF24870105C0E114F104010531
:10084000110519F4E0E0F0E096C0628173819FEF3A
:10085000623879070CF05BC022E83FEF261B370BAC
:100860002A3131052CF020E030E040E050E02AC091
:10087000B801A701022E04C0769567955795479554
:100880000A94D2F781E090E0A0E0B0E004C0880FC5
:10089000991FAA1FBB1F2A95D2F70197A109B10979
:1008A0008E219F21A023B1230097A105B10521F03E
:1008B00081E090E0A0E0B0E09A01AB01282B392B59
:1008C0004A2B5B2BDA01C9018F779070A070B07052
:1008D00080349105A105B10539F427FF09C0205CDA
:1008E0003F4F4F4F5F4F04C0215C3F4F4F4F5F4F13
:1008F000E0E0F0E02030A0E03A07A0E04A07A0E402
:100900005A0710F0E1E0F0E079018A0127C0603871
:10091000710564F5FB01E158FF4FD801C7018F77DE
:100920009070A070B07080349105A105B10539F4C4
:10093000E7FE0DC080E490E0A0E0B0E004C08FE3EB
:1009400090E0A0E0B0E0E80EF91E0A1F1B1F17FFA1
:1009500005C016950795F794E794319687E01695AC
:100960000795F794E7948A95D1F705C0EE24FF2404
:100970008701EFEFF0E06E2F679566276795902F60
:100980009F77D794DD24D7948E2F8695492F462BB9
:10099000582F5D29B701CA011F910F91FF90EF9069
:1009A000DF900895FC01DB01408151812281622F9B
:1009B0006F7770E0221F2227221F9381892F880FD3
:1009C000822B282F30E0991F9927991F11969C930D
:1009D000119721153105A9F54115510561057105DD
:1009E00011F482E037C082E89FEF13969C938E93B8
:1009F00012979A01AB0167E0220F331F441F551F66
:100A00006A95D1F783E08C930DC0220F331F441FEA
:100A1000551F12968D919C911397019713969C9355
:100A20008E931297203080E0380780E0480780E4FA
:100A3000580758F314962D933D934D935C93179755
:100A400008952F3F310579F4411551056105710570
:100A500019F484E08C93089564FF03C081E08C93C3
:100A600012C01C9210C02F57304013963C932E9307
:100A7000129783E08C9387E0440F551F661F771F02
:100A80008A95D1F7706414964D935D936D937C9322
:100A9000179708951F93DC01FB019C91923008F495
:100AA00047C08081823008F443C0943051F41196DD
:100AB0001C91843099F58181682F70E0611B710968
:100AC0003FC0843021F0923031F48230B9F181811D
:100AD000882389F12DC011961C9111978230F1F075
:100AE00081811817D9F412962D913C911397828128
:100AF00093818217930794F028173907BCF0149656
:100B00008D919D910D90BC91A02D248135814681C0
:100B10005781281739074A075B0718F4112341F05A
:100B20000AC082179307A407B50740F4112319F0F0
:100B300061E070E005C06FEF7FEF02C060E070E041
:100B4000CB011F910895DF93CF9300D0CDB7DEB7CF
:100B50009A838983ECE5F0E089EF808389819A812B
:100B6000CC01A0E0B0E08093E6009093E700A09372
:100B7000E800B093E9000F900F90CF91DF910895B6
:100B8000DF93CF930F92CDB7DEB789830F90CF91CC
:100B9000DF910895DF93CF93CDB7DEB7A3E5B0E043
:100BA000E3E5F0E080818F7B8C93A3E5B0E0E3E5A3
:100BB000F0E08081877F8C93E2E5F0E081E780833D
:100BC000A9E5B0E0E9E5F0E0808181608C93CF9108
:100BD000DF910895DF93CF93CDB7DEB7A3E5B0E003
:100BE000E3E5F0E0808181608C93A3E5B0E0E3E58C
:100BF000F0E0808182608C93A3E5B0E0E3E5F0E073
:100C000080818B7F8C93CF91DF910895DF93CF9379
:100C1000CDB7DEB7A3E5B0E0E3E5F0E080818E7FFD
:100C20008C93A3E5B0E0E3E5F0E080818D7F8C93C9
:100C3000A3E5B0E0E3E5F0E080818B7F8C93CF917A
:100C4000DF910895DF93CF9300D0CDB7DEB79A83BD
:100C5000898389819A81009731F089819A81909363
:100C6000DD008093DC000F900F90CF91DF9108950D
:100C7000DF93CF9300D0CDB7DEB79A838983898184
:100C80009A81009731F089819A819093DF00809357
:100C9000DE000F900F90CF91DF9108951F920F9279
:100CA0000FB60F9211242F933F934F935F936F933F
:100CB0007F938F939F93AF93BF93EF93FF93DF93B4
:100CC000CF93CDB7DEB78091E0009091E10001961F
:100CD0009093E1008093E0008091E0009091E1002A
:100CE0008A30910599F4E2E5F0E081E78083109283
:100CF000E1001092E0008091DC009091DD0000970F
:100D000029F0E091DC00F091DD000995CF91DF91B1
:100D1000FF91EF91BF91AF919F918F917F916F91D3
:100D20005F914F913F912F910F900FBE0F901F90A9
:100D300018951F920F920FB60F9211242F933F9385
:100D40004F935F936F937F938F939F93AF93BF93D3
:100D5000EF93FF93DF93CF93CDB7DEB78091E2009F
:100D60009091E300A091E400B091E5000196A11DEF
:100D7000B11D8093E2009093E300A093E400B09350
:100D8000E5002091E6003091E7004091E8005091A5
:100D9000E9008091E2009091E300A091E400B0911D
:100DA000E500281739074A075B0799F41092E2001B
:100DB0001092E3001092E4001092E5008091DE00B2
:100DC0009091DF00009729F0E091DE00F091DF00C4
:100DD0000995CF91DF91FF91EF91BF91AF919F91D5
:100DE0008F917F916F915F914F913F912F910F90D4
:100DF0000FBE0F901F901895DF93CF930F92CDB732
:100E0000DEB78983ECE5F0E0898180830F90CF9194
:100E1000DF910895DF93CF9300D000D000D0CDB7FD
:100E2000DEB79C838B831A8219821A821982EAC1E7
:100E300029813A81C901880F991F280F391F8B8199
:100E40009C81FC01E20FF31F8081282F30E03E835C
:100E50002D838D819E818130910509F485C02D817E
:100E60003E81223031052CF48D819E81009771F0F6
:100E7000C4C12D813E812230310509F4E3C08D814A
:100E80009E818330910509F44BC1B7C129813A8114
:100E9000C901880F991F280F391F8B819C81FC0184
:100EA000E20FF31F8281813001F5AAE3B0E0EAE3AB
:100EB000F0E08081482F29813A81C901880F991F6C
:100EC000280F391F8B819C81FC01E20FF31F818168
:100ED000282F30E081E090E0022E02C0880F991F99
:100EE0000A94E2F7842B8C9388C1AAE3B0E0EAE38A
:100EF000F0E08081482F29813A81C901880F991F2C
:100F0000280F391F8B819C81FC01E20FF31F818127
:100F1000282F30E081E090E002C0880F991F2A95C9
:100F2000E2F7809584238C93ABE3B0E0EBE3F0E051
:100F30008081482F29813A81C901880F991F280F84
:100F4000391F8B819C81FC01E20FF31F8181282FC7
:100F500030E081E090E0022E02C0880F991F0A94D1
:100F6000E2F7842B8C9349C129813A81C901880F0A
:100F7000991F280F391F8B819C81FC01E20FF31F01
:100F80008281813001F5A7E3B0E0E7E3F0E0808102
:100F9000482F29813A81C901880F991F280F391FCD
:100FA0008B819C81FC01E20FF31F8181282F30E0AF
:100FB00081E090E0022E02C0880F991F0A94E2F7A8
:100FC000842B8C931AC1A7E3B0E0E7E3F0E08081C3
:100FD000482F29813A81C901880F991F280F391F8D
:100FE0008B819C81FC01E20FF31F8181282F30E06F
:100FF00081E090E002C0880F991F2A95E2F7809562
:1010000084238C93A8E3B0E0E8E3F0E08081482FEC
:1010100029813A81C901880F991F280F391F8B81B7
:101020009C81FC01E20FF31F8181282F30E081E0D9
:1010300090E0022E02C0880F991F0A94E2F7842BD9
:101040008C93DBC029813A81C901880F991F280F31
:10105000391F8B819C81FC01E20FF31F828181305B
:1010600001F5A4E3B0E0E4E3F0E08081482F2981BA
:101070003A81C901880F991F280F391F8B819C81E4
:10108000FC01E20FF31F8181282F30E081E090E026
:10109000022E02C0880F991F0A94E2F7842B8C93CA
:1010A000ACC0A4E3B0E0E4E3F0E08081482F298104
:1010B0003A81C901880F991F280F391F8B819C81A4
:1010C000FC01E20FF31F8181282F30E081E090E0E6
:1010D00002C0880F991F2A95E2F7809584238C938C
:1010E000A5E3B0E0E5E3F0E08081482F29813A8173
:1010F000C901880F991F280F391F8B819C81FC0122
:10110000E20FF31F8181282F30E081E090E0022E72
:1011100002C0880F991F0A94E2F7842B8C936DC04C
:1011200029813A81C901880F991F280F391F8B81A6
:101130009C81FC01E20FF31F8281813001F5A1E364
:10114000B0E0E1E3F0E08081482F29813A81C901D4
:10115000880F991F280F391F8B819C81FC01E20F9A
:10116000F31F8181282F30E081E090E0022E02C041
:10117000880F991F0A94E2F7842B8C933EC0A1E359
:10118000B0E0E1E3F0E08081482F29813A81C90194
:10119000880F991F280F391F8B819C81FC01E20F5A
:1011A000F31F8181282F30E081E090E002C0880F9A
:1011B000991F2A95E2F7809584238C93A2E3B0E0EF
:1011C000E2E3F0E08081482F29813A81C901880F4C
:1011D000991F280F391F8B819C81FC01E20FF31F9F
:1011E0008181282F30E081E090E0022E02C0880F3C
:1011F000991F0A94E2F7842B8C9389819A81019636
:101200009A83898389819A81803291050CF410CE6A
:1012100026960FB6F894DEBF0FBECDBFCF91DF91FB
:101220000895DF93CF93CDB7DEB7AFE5B0E0EFE53C
:10123000F0E0808180688C93CF91DF910895DF93F7
:10124000CF93CDB7DEB7AFE5B0E0EFE5F0E080815A
:101250008F778C93CF91DF910895DF93CF93CDB7A4
:10126000DEB728970FB6F894DEBF0FBECDBF8983D7
:101270006A838981282F30E038872F838F81988572
:101280008130910509F45AC02F813885223031050B
:1012900009F4A3C08F819885009709F0B3C08A81B3
:1012A000282F30E03E832D838D819E8181309105F2
:1012B00039F12D813E812230310599F08D819E8159
:1012C000009769F1A5E5B0E0E5E5F0E08081816097
:1012D0008C93A5E5B0E0E5E5F0E0808182608C9339
:1012E00091C0A5E5B0E0E5E5F0E080818E7F8C93CC
:1012F000A5E5B0E0E5E5F0E0808182608C9382C0F6
:10130000A5E5B0E0E5E5F0E0808181608C93A5E59E
:10131000B0E0E5E5F0E080818D7F8C9373C0A5E5BA
:10132000B0E0E5E5F0E080818E7F8C93A5E5B0E04C
:10133000E5E5F0E080818D7F8C9364C08A81282F61
:1013400030E03C832B838B819C818130910539F186
:101350002B813C812230310599F08B819C81009753
:1013600069F1A5E5B0E0E5E5F0E0808184608C936B
:10137000A5E5B0E0E5E5F0E0808188608C9342C0AF
:10138000A5E5B0E0E5E5F0E080818B7F8C93A5E5F5
:10139000B0E0E5E5F0E0808188608C9333C0A5E59E
:1013A000B0E0E5E5F0E0808184608C93A5E5B0E0F5
:1013B000E5E5F0E08081877F8C9324C0A5E5B0E06F
:1013C000E5E5F0E080818B7F8C93A5E5B0E0E5E575
:1013D000F0E08081877F8C9315C08A81882F90E010
:1013E0008230910541F0A4E5B0E0E4E5F0E08081D1
:1013F00080648C9307C0A4E5B0E0E4E5F0E0808170
:101400008F7B8C9328960FB6F894DEBF0FBECDBFAE
:10141000CF91DF910895DF93CF9300D00F92CDB796
:10142000DEB789838981282F30E03B832A838A8134
:101430009B818130910589F02A813B8122303105E1
:10144000A1F08A819B810097B9F4ABE5B0E0EBE5B0
:10145000F0E0808180648C930FC0ABE5B0E0EBE5F9
:10146000F0E0808180688C9307C0ABE5B0E0EBE5ED
:10147000F0E0808180628C930F900F900F90CF915D
:10148000DF910895DF93CF9300D00F92CDB7DEB7F1
:1014900089838981282F30E03B832A838A819B813D
:1014A0008130910589F02A813B8122303105A1F0FC
:1014B0008A819B810097B9F4ABE5B0E0EBE5F0E001
:1014C00080818F7B8C930FC0ABE5B0E0EBE5F0E063
:1014D00080818F778C9307C0ABE5B0E0EBE5F0E05F
:1014E00080818F7D8C930F900F900F90CF91DF9123
:1014F0000895DF93CF9300D000D00F92CDB7DEB721
:1015000089837B836A838A819B81009739F18981F2
:10151000282F30E03D832C838C819D818130910583
:1015200081F02C813D812230310591F08C819D81AB
:101530000097A1F48A819B819093EB008093EA004D
:101540000DC08A819B819093ED008093EC0006C0D2
:101550008A819B819093EF008093EE000F900F9013
:101560000F900F900F90CF91DF9108951F920F92DF
:101570000FB60F9211242F933F934F935F936F9366
:101580007F938F939F93AF93BF93EF93FF93DF93DB
:10159000CF93CDB7DEB78091EA009091EB00009732
:1015A00029F0E091EA00F091EB000995CF91DF91ED
:1015B000FF91EF91BF91AF919F918F917F916F912B
:1015C0005F914F913F912F910F900FBE0F901F9001
:1015D00018951F920F920FB60F9211242F933F93DD
:1015E0004F935F936F937F938F939F93AF93BF932B
:1015F000EF93FF93DF93CF93CDB7DEB78091EC00ED
:101600009091ED00009729F0E091EC00F091ED0051
:101610000995CF91DF91FF91EF91BF91AF919F918C
:101620008F917F916F915F914F913F912F910F908B
:101630000FBE0F901F9018951F920F920FB60F922A
:1016400011242F933F934F935F936F937F938F93C7
:101650009F93AF93BF93EF93FF93DF93CF93CDB758
:10166000DEB78091EE009091EF00009729F0E091B5
:10167000EE00F091EF000995CF91DF91FF91EF918E
:10168000BF91AF919F918F917F916F915F914F919A
:101690003F912F910F900FBE0F901F901895DF93E1
:1016A000CF9300D000D00F92CDB7DEB78A836B8383
:1016B0008A8186958695869589838981282F30E051
:1016C0003D832C838C819D818130910509F443C039
:1016D0002C813D81223031052CF48C819D81009735
:1016E00071F0CEC02C813D812230310509F465C0F6
:1016F0008C819D818330910509F491C0C1C08B819B
:101700008130A1F4ABE3B0E0EBE3F0E08081482F5F
:101710008A81282F30E081E090E0022E02C0880FFD
:10172000991F0A94E2F7842B8C93AAC0ABE3B0E034
:10173000EBE3F0E08081482F8A81282F30E081E0C0
:1017400090E0022E02C0880F991F0A94E2F780955C
:1017500084238C9395C08B818130B9F4A8E3B0E0E9
:10176000E8E3F0E08081482F8A81882F90E09C0197
:101770002770307081E090E0022E02C0880F991F20
:101780000A94E2F7842B8C937BC0A8E3B0E0E8E3F3
:10179000F0E08081482F8A81882F90E09C0127709B
:1017A000307081E090E0022E02C0880F991F0A94E9
:1017B000E2F7809584238C9363C08B818130B9F4E8
:1017C000A5E3B0E0E5E3F0E08081482F8A81882F2F
:1017D00090E09C012770307081E090E0022E02C002
:1017E000880F991F0A94E2F7842B8C9349C0A5E3D4
:1017F000B0E0E5E3F0E08081482F8A81882F90E017
:101800009C012770307081E090E0022E02C0880FAA
:10181000991F0A94E2F7809584238C9331C08B81C1
:101820008130B9F4A2E3B0E0E2E3F0E08081482F38
:101830008A81882F90E09C012770307081E090E0D1
:10184000022E02C0880F991F0A94E2F7842B8C9312
:1018500017C0A2E3B0E0E2E3F0E08081482F8A8184
:10186000882F90E09C012770307081E090E0022E7C
:1018700002C0880F991F0A94E2F7809584238C9305
:101880000F900F900F900F900F90CF91DF910895D0
:10189000DF93CF9300D000D00F92CDB7DEB78B830C
:1018A0008B818695869586958A838A81282F30E05C
:1018B0003D832C834C815D814130510549F18C8100
:1018C0009D818230910534F42C813D8121153105B3
:1018D00069F059C04C815D814230510569F18C81BC
:1018E0009D818330910509F43BC04DC0E9E3F0E0F0
:1018F0008081282F30E08B81882F90E0A90102C0E1
:10190000559547958A95E2F7CA01817089833BC056
:10191000E6E3F0E08081282F30E08B81882F90E093
:1019200087709070A90102C0559547958A95E2F796
:10193000CA018170898327C0E3E3F0E08081282F0A
:1019400030E08B81882F90E087709070A90102C0F1
:10195000559547958A95E2F7CA018170898313C02E
:10196000E0E3F0E08081282F30E08B81882F90E049
:1019700087709070A90102C0559547958A95E2F746
:10198000CA018170898389810F900F900F900F9009
:101990000F90CF91DF910895DF93CF9300D000D0C7
:1019A000CDB7DEB78A838A81869586958695282F5E
:1019B00030E03C832B834B815C814130510509F43D
:1019C0003CC08B819C818230910534F42B813C8119
:1019D0002115310571F0ABC04B815C81423051055E
:1019E00009F454C08B819C818330910509F477C040
:1019F0009EC0ABE3B0E0EBE3F0E08081482F8A814A
:101A0000282F30E081E090E002C0880F991F2A95CE
:101A1000E2F784278C93EBE3F0E08081282F30E01D
:101A20008A81882F90E0A90102C0559547958A9533
:101A3000E2F7CA01817089837AC0A8E3B0E0E8E3E5
:101A4000F0E08081482F8A81882F90E09C012770E8
:101A5000307081E090E002C0880F991F2A95E2F76C
:101A600084278C93E8E3F0E08081282F30E08A819E
:101A7000882F90E087709070A90102C05595479516
:101A80008A95E2F7CA018170898351C0A5E3B0E06D
:101A9000E5E3F0E08081482F8A81882F90E09C0167
:101AA0002770307081E090E002C0880F991F2A955E
:101AB000E2F784278C93E5E3F0E08081282F30E083
:101AC0008A81882F90E087709070A90102C0559597
:101AD00047958A95E2F7CA018170898328C0A2E3FD
:101AE000B0E0E2E3F0E08081482F8A81882F90E027
:101AF0009C012770307081E090E002C0880F991F30
:101B00002A95E2F784278C93E2E3F0E08081282F86
:101B100030E08A81882F90E087709070A90102C020
:101B2000559547958A95E2F7CA0181708983898125
:101B30000F900F900F900F90CF91DF910895DF934A
:101B4000CF9300D000D0CDB7DEB789836A83898177
:101B5000282F30E03C832B838B819C818130910541
:101B6000D1F02B813C81223031052CF48B819C817A
:101B7000009761F01EC02B813C812230310581F03D
:101B80008B819C818330910581F013C0EBE3F0E001
:101B90008A8180830EC0E8E3F0E08A81808309C0F7
:101BA000E5E3F0E08A81808304C0E2E3F0E08A812B
:101BB00080830F900F900F900F90CF91DF91089539
:101BC000DF93CF93CDB7DEB7A7E2B0E0E7E2F0E076
:101BD000808180648C93A7E2B0E0E7E2F0E080814E
:101BE0008F778C93A7E2B0E0E7E2F0E0808180623B
:101BF0008C93A6E2B0E0E6E2F0E080818E7F8C93E9
:101C0000A6E2B0E0E6E2F0E0808182608C93A6E29A
:101C1000B0E0E6E2F0E0808184608C93A6E2B0E080
:101C2000E6E2F0E0808180688C93CF91DF910895A7
:101C3000DF93CF9300D00F92CDB7DEB78B831A829C
:101C40001982A7E2B0E0E7E2F0E08081982F987F68
:101C50008B818770892B8C93A6E2B0E0E6E2F0E0FE
:101C6000808180648C93E6E2F0E08081882F90E0B0
:101C7000807490700097B9F7E4E2F0E0808182957B
:101C8000869586958370882F90E09A838983E5E214
:101C9000F0E08081882F90E0880F991F880F991FAE
:101CA0009C0189819A81822B932B9A8389838981D4
:101CB0009A810F900F900F90CF91DF910895DF934D
:101CC000CF9300D00F92CDB7DEB789838981282FBB
:101CD00030E03B832A838A819B8183309105B1F078
:101CE0002A813B812430310534F48A819B81823002
:101CF0009105E9F04EC02A813B812D30310541F13B
:101D00008A819B818E309105A1F143C082E061E020
:101D10000E944F0B8DE061E00E944F0B8EE061E06E
:101D20000E944F0B83E060E00E944F0B32C083E0C3
:101D300061E00E944F0B8DE061E00E944F0B8EE04E
:101D400061E00E944F0B82E060E00E944F0B21C0D7
:101D500082E061E00E944F0B83E061E00E944F0B44
:101D60008EE061E00E944F0B8DE060E00E944F0B1F
:101D700010C082E061E00E944F0B8DE061E00E94A4
:101D80004F0B83E061E00E944F0B8EE060E00E9409
:101D90004F0B0F900F900F90CF91DF910895DF932D
:101DA000CF93CDB7DEB7EC970FB6F894DEBF0FBE7A
:101DB000CDBF89AF6AAF4BAF2CAF83E00E945F0EFF
:101DC00089AD0E94C61080E090E0A8ECB2E48DAB33
:101DD0009EABAFABB8AF6DA97EA98FA998AD20E03F
:101DE00030E04AE755E40E941F02DC01CB0189ABD9
:101DF0009AABABABBCAB69A97AA98BA99CA920E033
:101E000030E040E85FE30E94790388232CF481E00E
:101E100090E098AB8FA73FC069A97AA98BA99CA92C
:101E200020E03FEF4FE757E40E94190318164CF5E6
:101E30006DA97EA98FA998AD20E030E040E251E481
:101E40000E941F02DC01CB01BC01CD010E944900B0
:101E5000DC01CB0198AB8FA70FC080E991E09EA772
:101E60008DA78DA59EA50197F1F79EA78DA78FA59C
:101E700098A9019798AB8FA78FA598A9009769F7A4
:101E800014C069A97AA98BA99CA90E944900DC0108
:101E9000CB0198AB8FA78FA598A99CA78BA78BA5E3
:101EA0009CA50197F1F79CA78BA782E00E945F0E8B
:101EB0008AAD0E94C61080E090E0A8ECB2E48FA347
:101EC00098A7A9A7BAA76FA178A589A59AA520E088
:101ED00030E04AE755E40E941F02DC01CB018BA3EE
:101EE0009CA3ADA3BEA36BA17CA18DA19EA120E06C
:101EF00030E040E85FE30E94790388232CF481E01E
:101F000090E09AA389A33FC06BA17CA18DA19EA163
:101F100020E03FEF4FE757E40E94190318164CF5F5
:101F20006FA178A589A59AA520E030E040E251E4B0
:101F30000E941F02DC01CB01BC01CD010E944900BF
:101F4000DC01CB019AA389A30FC080E991E098A39B
:101F50008F8F8F8D98A10197F1F798A38F8F89A10B
:101F60009AA101979AA389A389A19AA1009769F7D9
:101F700014C06BA17CA18DA19EA10E944900DC012F
:101F8000CB019AA389A389A19AA19E8F8D8F8D8D54
:101F90009E8D0197F1F79E8F8D8F8DE00E945F0ED1
:101FA0008BAD0E94C61080E090E0A8ECB2E4898F6F
:101FB0009A8FAB8FBC8F698D7A8D8B8D9C8D20E035
:101FC00030E04AE755E40E941F02DC01CB018D8B13
:101FD0009E8BAF8BB88F6D897E898F89988D20E01D
:101FE00030E040E85FE30E94790388232CF481E02D
:101FF00090E09C8B8B8B3FC06D897E898F89988DFB
:1020000020E03FEF4FE757E40E94190318164CF504
:10201000698D7A8D8B8D9C8D20E030E040E251E41B
:102020000E941F02DC01CB01BC01CD010E944900CE
:10203000DC01CB019C8B8B8B0FC080E991E09A8BEC
:10204000898B89899A890197F1F79A8B898B8B897A
:102050009C8901979C8B8B8B8B899C89009769F756
:1020600014C06D897E898F89988D0E944900DC019A
:10207000CB019C8B8B8B8B899C89988B8F878F85D1
:1020800098890197F1F7988B8F878EE00E945F0EF9
:102090008CAD0E94C61080E090E0A8ECB2E48B8783
:1020A0009C87AD87BE876B857C858D859E8520E06E
:1020B00030E04AE755E40E941F02DC01CB018F8328
:1020C0009887A987BA876F81788589859A8520E066
:1020D00030E040E85FE30E94790388232CF481E03C
:1020E00090E09E838D833FC06F81788589859A8536
:1020F00020E03FEF4FE757E40E94190318164CF514
:102100006B857C858D859E8520E030E040E251E442
:102110000E941F02DC01CB01BC01CD010E944900DD
:10212000DC01CB019E838D830FC080E991E09C830D
:102130008B838B819C810197F1F79C838B838D81AD
:102140009E8101979E838D838D819E81009769F783
:1021500014C06F81788589859A850E944900DC01C9
:10216000CB019E838D838D819E819A838983898112
:102170009A810197F1F79A838983EC960FB6F894C8
:10218000DEBF0FBECDBFCF91DF910895DF93CF9318
:102190000F92CDB7DEB789838981982F917088E03F
:1021A000692F0E944F0B89818695982F917089E045
:1021B000692F0E944F0B898186958695982F917083
:1021C0008AE0692F0E944F0B8981869586958695B6
:1021D000982F91708CE0692F0E944F0B0F90CF9138
:1021E000DF9108950F931F93DF93CF93CDB7DEB7A1
:1021F000C654D0400FB6F894DEBF0FBECDBFFE016F
:10220000ED5BFF4F80E090E0A8E4B2E4808391832F
:10221000A283B3838E01015C1F4FFE01ED5BFF4F74
:10222000608171818281938120E030E04AE755E44A
:102230000E941F02DC01CB01F80180839183A283FD
:10224000B383FE01FF96608171818281938120E0DA
:1022500030E040E85FE30E94790388232CF481E0BA
:1022600090E09EAF8DAF46C0FE01FF966081718108
:102270008281938120E03FEF4FE757E40E941903EA
:10228000181664F5FE01ED5BFF4F6081718182815C
:10229000938120E030E040E251E40E941F02DC0123
:1022A000CB01BC01CD010E944900DC01CB019EAFF6
:1022B0008DAF0FC080E991E09CAF8BAF8BAD9CAD33
:1022C0000197F1F79CAF8BAF8DAD9EAD01979EAF9F
:1022D0008DAF8DAD9EAD009769F716C0FE01FF96DC
:1022E00060817181828193810E944900DC01CB0170
:1022F0009EAF8DAF8DAD9EAD9AAF89AF89AD9AADD2
:102300000197F1F79AAF89AF82E00E94A31688E2A5
:102310000E94A31680E090E0A0E8BFE38DAB9EABE7
:10232000AFABB8AF6DA97EA98FA998AD20E030E022
:102330004AE755E40E941F02DC01CB0189AB9AAB4E
:10234000ABABBCAB69A97AA98BA99CA920E030E012
:1023500040E85FE30E94790388232CF481E090E059
:1023600098AB8FA73FC069A97AA98BA99CA920E047
:102370003FEF4FE757E40E94190318164CF56DA97B
:102380007EA98FA998AD20E030E040E251E40E94A0
:102390001F02DC01CB01BC01CD010E944900DC0120
:1023A000CB0198AB8FA70FC080E991E09EA78DA7C6
:1023B0008DA59EA50197F1F79EA78DA78FA598A93A
:1023C000019798AB8FA78FA598A9009769F714C0BC
:1023D00069A97AA98BA99CA90E944900DC01CB01BB
:1023E00098AB8FA78FA598A99CA78BA78BA59CA519
:1023F0000197F1F79CA78BA78FE00E94A31680E0BE
:1024000090E0A0E8BFE38FA398A7A9A7BAA76FA100
:1024100078A589A59AA520E030E04AE755E40E9416
:102420001F02DC01CB018BA39CA3ADA3BEA36BA1B8
:102430007CA18DA19EA120E030E040E85FE30E94F6
:10244000790388232CF481E090E09AA389A33FC00C
:102450006BA17CA18DA19EA120E03FEF4FE757E447
:102460000E94190318164CF56FA178A589A59AA5A5
:1024700020E030E040E251E40E941F02DC01CB0189
:10248000BC01CD010E944900DC01CB019AA389A3C4
:102490000FC080E991E098A38F8F8F8D98A101974D
:1024A000F1F798A38F8F89A19AA101979AA389A385
:1024B00089A19AA1009769F714C06BA17CA18DA195
:1024C0009EA10E944900DC01CB019AA389A389A1A6
:1024D0009AA19E8F8D8F8D8D9E8D0197F1F79E8F86
:1024E0008D8F81E00E94A31680E090E0A0E0B0E430
:1024F000898F9A8FAB8FBC8F698D7A8D8B8D9C8DD8
:1025000020E030E04AE755E40E941F02DC01CB01E5
:102510008D8B9E8BAF8BB88F6D897E898F89988DBF
:1025200020E030E040E85FE30E94790388232CF448
:1025300081E090E09C8B8B8B3FC06D897E898F8979
:10254000988D20E03FEF4FE757E40E9419031816DB
:102550004CF5698D7A8D8B8D9C8D20E030E040E2CA
:1025600051E40E941F02DC01CB01BC01CD010E949D
:102570004900DC01CB019C8B8B8B0FC080E991E083
:102580009A8B898B89899A890197F1F79A8B898B24
:102590008B899C8901979C8B8B8B8B899C8900975D
:1025A00069F714C06D897E898F89988D0E944900D2
:1025B000DC01CB019C8B8B8B8B899C89988B8F87C3
:1025C0008F8598890197F1F7988B8F8786E00E9415
:1025D000A31680E090E0A0E8BFE38B879C87AD87DF
:1025E000BE876B857C858D859E8520E030E04AE73F
:1025F00055E40E941F02DC01CB018F839887A987D5
:10260000BA876F81788589859A8520E030E040E837
:102610005FE30E94790388232CF481E090E09E839D
:102620008D833FC06F81788589859A8520E03FEF53
:102630004FE757E40E94190318164CF56B857C850B
:102640008D859E8520E030E040E251E40E941F022B
:10265000DC01CB01BC01CD010E944900DC01CB01B2
:102660009E838D830FC080E991E09C838B838B8157
:102670009C810197F1F79C838B838D819E810197CB
:102680009E838D838D819E81009769F714C06F8131
:10269000788589859A850E944900DC01CB019E835B
:1026A0008D838D819E819A83898389819A81019707
:1026B000F1F79A8389838CE00E94A31680E80E9438
:1026C000A316CA5BDF4F0FB6F894DEBF0FBECDBFB7
:1026D000CF91DF911F910F910895DF93CF93CDB7E5
:1026E000DEB781E00E94A316CF91DF910895DF93BA
:1026F000CF930F92CDB7DEB789838091F0008431FC
:1027000029F482E061E00E94DC1811C08091F000A1
:10271000883229F483E061E00E94DC1808C08091CF
:10272000F0008C3321F484E061E00E94DC188981A0
:102730000E946A148091F0008F5F8093F0000F90E8
:10274000CF91DF910895DF93CF9300D0CDB7DEB75F
:102750009A8389830AC0E981FA8180810E94771374
:1027600089819A8101969A838983E981FA8180819E
:10277000882389F70F900F90CF91DF910895DF9311
:10278000CF9300D00F92CDB7DEB789836A834B8396
:102790008A816B810E94DC1889810E946A140F90E3
:1027A0000F900F90CF91DF910895DF93CF9300D0DA
:1027B00000D0CDB7DEB79A8389836B834C838B813E
:1027C0006C810E94DC1889819A810E94A3130F906A
:1027D0000F900F900F90CF91DF910895DF93CF93DB
:1027E00000D000D0CDB7DEB769837A838B839C831A
:1027F00089819A81AB81BC810097A105B10519F14E
:1028000089819A81AB81BC812AE030E040E050E0D0
:10281000BC01CD010E94791ADA01C901BC01CD01C8
:102820000E94EE1389819A81AB81BC812AE030E05D
:1028300040E050E0BC01CD010E94791ADC01CB01DF
:10284000805D0E946A140F900F900F900F90CF91AF
:10285000DF910895DF93CF93CDB7DEB727970FB6FB
:10286000F894DEBF0FBECDBF8B836C835E834D8338
:102870002F838F81882F90E00896880F991F880FEB
:10288000991F880F991F0E94A3161A8219820FC0E0
:1028900029813A818D819E81FC01E20FF31F8081A5
:1028A0000E946A1489819A8101969A838983898119
:1028B0009A818830910564F38F816B814C810E94ED
:1028C000BF1327960FB6F894DEBF0FBECDBFCF91D2
:1028D000DF910895DF93CF93CDB7DEB7E9970FB6B9
:1028E000F894DEBF0FBECDBF89AF83E061E00E94E8
:1028F0004F0B89AD82958F70982F917088E0692F6A
:102900000E944F0B89AD829586958770982F9170A4
:1029100089E0692F0E944F0B89AD82958695869537
:102920008370982F91708AE0692F0E944F0B89ADB8
:10293000982F991F9927991F8CE0692F0E944F0BA0
:1029400082E061E00E944F0B80E090E0A0E8BFE3EE
:102950008DAB9EABAFABB8AF6DA97EA98FA998AD7B
:1029600020E030E04AE755E40E941F02DC01CB0181
:1029700089AB9AABABABBCAB69A97AA98BA99CA973
:1029800020E030E040E85FE30E94790388232CF4E4
:1029900081E090E098AB8FA73FC069A97AA98BA985
:1029A0009CA920E03FEF4FE757E40E941903181657
:1029B0004CF56DA97EA98FA998AD20E030E040E2EA
:1029C00051E40E941F02DC01CB01BC01CD010E9439
:1029D0004900DC01CB0198AB8FA70FC080E991E0E3
:1029E0009EA78DA78DA59EA50197F1F79EA78DA700
:1029F0008FA598A9019798AB8FA78FA598A9009745
:102A000069F714C069A97AA98BA99CA90E944900F9
:102A1000DC01CB0198AB8FA78FA598A99CA78BA7AA
:102A20008BA59CA50197F1F79CA78BA782E060E09E
:102A30000E944F0B80E090E0A0E8BFE38FA398A72F
:102A4000A9A7BAA76FA178A589A59AA520E030E02B
:102A50004AE755E40E941F02DC01CB018BA39CA333
:102A6000ADA3BEA36BA17CA18DA19EA120E030E00F
:102A700040E85FE30E94790388232CF481E090E032
:102A80009AA389A33FC06BA17CA18DA19EA120E048
:102A90003FEF4FE757E40E94190318164CF56FA15A
:102AA00078A589A59AA520E030E040E251E40E9493
:102AB0001F02DC01CB01BC01CD010E944900DC01F9
:102AC000CB019AA389A30FC080E991E098A38F8FCF
:102AD0008F8D98A10197F1F798A38F8F89A19AA163
:102AE00001979AA389A389A19AA1009769F714C0B5
:102AF0006BA17CA18DA19EA10E944900DC01CB01AC
:102B00009AA389A389A19AA19E8F8D8F8D8D9E8D69
:102B10000197F1F79E8F8D8F89AD982F917088E086
:102B2000692F0E944F0B89AD8695982F917089E08F
:102B3000692F0E944F0B89AD86958695982F9170CD
:102B40008AE0692F0E944F0B89AD86958695869500
:102B5000982F91708CE0692F0E944F0B82E061E00A
:102B60000E944F0B80E090E0A0E8BFE3898F9A8F2E
:102B7000AB8FBC8F698D7A8D8B8D9C8D20E030E082
:102B80004AE755E40E941F02DC01CB018D8B9E8B2E
:102B9000AF8BB88F6D897E898F89988D20E030E06A
:102BA00040E85FE30E94790388232CF481E090E001
:102BB0009C8B8B8B3FC06D897E898F89988D20E09F
:102BC0003FEF4FE757E40E94190318164CF5698D43
:102BD0007A8D8B8D9C8D20E030E040E251E40E94A4
:102BE0001F02DC01CB01BC01CD010E944900DC01C8
:102BF000CB019C8B8B8B0FC080E991E09A8B898BEA
:102C000089899A890197F1F79A8B898B8B899C899D
:102C100001979C8B8B8B8B899C89009769F714C0DB
:102C20006D897E898F89988D0E944900DC01CB01D6
:102C30009C8B8B8B8B899C89988B8F878F859889B0
:102C40000197F1F7988B8F8782E060E00E944F0B2D
:102C500080E090E0A0E8BFE38B879C87AD87BE87CC
:102C60006B857C858D859E8520E030E04AE755E4C4
:102C70000E941F02DC01CB018F839887A987BA8746
:102C80006F81788589859A8520E030E040E85FE3B0
:102C90000E94790388232CF481E090E09E838D8349
:102CA0003FC06F81788589859A8520E03FEF4FE7A7
:102CB00057E40E94190318164CF56B857C858D85A9
:102CC0009E8520E030E040E251E40E941F02DC01DA
:102CD000CB01BC01CD010E944900DC01CB019E83E8
:102CE0008D830FC080E991E09C838B838B819C81D5
:102CF0000197F1F79C838B838D819E8101979E8341
:102D00008D838D819E81009769F714C06F817885CE
:102D100089859A850E944900DC01CB019E838D83C1
:102D20008D819E819A83898389819A810197F1F7A8
:102D30009A838983E9960FB6F894DEBF0FBECDBFA4
:102D4000CF91DF910895DF93CF93CDB7DEB7E997A9
:102D50000FB6F894DEBF0FBECDBF89AF83E060E051
:102D60000E944F0B89AD82958F70982F917088E0EB
:102D7000692F0E944F0B89AD829586958770982F99
:102D8000917089E0692F0E944F0B89AD82958695DD
:102D900086958370982F91708AE0692F0E944F0B5F
:102DA00089AD982F991F9927991F8CE0692F0E9450
:102DB0004F0B82E061E00E944F0B80E090E0A0E8C2
:102DC000BFE38DAB9EABAFABB8AF6DA97EA98FA9AA
:102DD00098AD20E030E04AE755E40E941F02DC0194
:102DE000CB0189AB9AABABABBCAB69A97AA98BA978
:102DF0009CA920E030E040E85FE30E94790388234B
:102E00002CF481E090E098AB8FA73FC069A97AA924
:102E10008BA99CA920E03FEF4FE757E40E941903DC
:102E200018164CF56DA97EA98FA998AD20E030E069
:102E300040E251E40E941F02DC01CB01BC01CD0144
:102E40000E944900DC01CB0198AB8FA70FC080E93D
:102E500091E09EA78DA78DA59EA50197F1F79EA74E
:102E60008DA78FA598A9019798AB8FA78FA598A933
:102E7000009769F714C069A97AA98BA99CA90E9437
:102E80004900DC01CB0198AB8FA78FA598A99CA71F
:102E90008BA78BA59CA50197F1F79CA78BA782E038
:102EA00060E00E944F0B80E090E0A0E8BFE38FA3BA
:102EB00098A7A9A7BAA76FA178A589A59AA520E088
:102EC00030E04AE755E40E941F02DC01CB018BA3EE
:102ED0009CA3ADA3BEA36BA17CA18DA19EA120E06C
:102EE00030E040E85FE30E94790388232CF481E01E
:102EF00090E09AA389A33FC06BA17CA18DA19EA164
:102F000020E03FEF4FE757E40E94190318164CF5F5
:102F10006FA178A589A59AA520E030E040E251E4B0
:102F20000E941F02DC01CB01BC01CD010E944900BF
:102F3000DC01CB019AA389A30FC080E991E098A39B
:102F40008F8F8F8D98A10197F1F798A38F8F89A10B
:102F50009AA101979AA389A389A19AA1009769F7D9
:102F600014C06BA17CA18DA19EA10E944900DC012F
:102F7000CB019AA389A389A19AA19E8F8D8F8D8D54
:102F80009E8D0197F1F79E8F8D8F89AD982F91704F
:102F900088E0692F0E944F0B89AD8695982F91701C
:102FA00089E0692F0E944F0B89AD86958695982FF1
:102FB00091708AE0692F0E944F0B89AD86958695A6
:102FC0008695982F91708CE0692F0E944F0B82E0BC
:102FD00061E00E944F0B80E090E0A0E8BFE3898FA2
:102FE0009A8FAB8FBC8F698D7A8D8B8D9C8D20E0F5
:102FF00030E04AE755E40E941F02DC01CB018D8BD3
:103000009E8BAF8BB88F6D897E898F89988D20E0DC
:1030100030E040E85FE30E94790388232CF481E0EC
:1030200090E09C8B8B8B3FC06D897E898F89988DBA
:1030300020E03FEF4FE757E40E94190318164CF5C4
:10304000698D7A8D8B8D9C8D20E030E040E251E4DB
:103050000E941F02DC01CB01BC01CD010E9449008E
:10306000DC01CB019C8B8B8B0FC080E991E09A8BAC
:10307000898B89899A890197F1F79A8B898B8B893A
:103080009C8901979C8B8B8B8B899C89009769F716
:1030900014C06D897E898F89988D0E944900DC015A
:1030A000CB019C8B8B8B8B899C89988B8F878F8591
:1030B00098890197F1F7988B8F8782E060E00E94F2
:1030C0004F0B80E090E0A0E8BFE38B879C87AD8743
:1030D000BE876B857C858D859E8520E030E04AE744
:1030E00055E40E941F02DC01CB018F839887A987DA
:1030F000BA876F81788589859A8520E030E040E83D
:103100005FE30E94790388232CF481E090E09E83A2
:103110008D833FC06F81788589859A8520E03FEF58
:103120004FE757E40E94190318164CF56B857C8510
:103130008D859E8520E030E040E251E40E941F0230
:10314000DC01CB01BC01CD010E944900DC01CB01B7
:103150009E838D830FC080E991E09C838B838B815C
:103160009C810197F1F79C838B838D819E810197D0
:103170009E838D838D819E81009769F714C06F8136
:10318000788589859A850E944900DC01CB019E8360
:103190008D838D819E819A83898389819A8101970C
:1031A000F1F79A838983E9960FB6F894DEBF0FBED4
:1031B000CDBFCF91DF910895DF93CF9300D000D0A2
:1031C000CDB7DEB789836A838A8181508A838981FA
:1031D000282F30E03C832B838B819C8182309105AA
:1031E000D9F02B813C812330310534F48B819C81D3
:1031F0008130910561F01EC02B813C812330310567
:1032000081F08B819C818430910581F013C08A818B
:1032100080580E94A3160EC08A8180540E94A31673
:1032200009C08A818C560E94A31604C08A818C52E0
:103230000E94A3160F900F900F900F90CF91DF91E7
:103240000895DF93CF93CDB7DEB727970FB6F894E5
:10325000DEBF0FBECDBF19821A8261C08A818F8303
:103260008F81882311F081E08F839F818FE1692F07
:103270000E944F0B1E828A81813011F081E08E8383
:103280008EE16E810E944F0B1D828A81823011F087
:1032900081E08D8389E16D810E944F0B1C828A81C0
:1032A000833011F081E08C838CE16C810E944F0BA4
:1032B00085E10E94480C882341F481E0898385E1FF
:1032C0000E94480C8823D9F32EC084E10E94480C48
:1032D000882341F482E0898384E10E94480C88239A
:1032E000D9F321C083E10E94480C882341F483E094
:1032F000898383E10E94480C8823D9F314C082E1BA
:103300000E94480C882341F484E0898382E10E9472
:10331000480C8823D9F307C08A818F5F8A838A810A
:10332000843008F49BCF8FE161E00E944F0B8EE167
:1033300061E00E944F0B89E161E00E944F0B8CE13C
:1033400061E00E944F0B8981882311F41B8215C014
:103350008981882F90E0AC01415050408A81282F0C
:1033600030E0CA01880F991F880F991F820F931FA1
:10337000FC01E553FF4F80818B838B8127960FB62D
:10338000F894DEBF0FBECDBFCF91DF910895DF93DC
:10339000CF930F92CDB7DEB789830F90CF91DF9196
:1033A0000895DF93CF930F92CDB7DEB789830F9047
:1033B000CF91DF910895DF93CF93CDB7DEB7CF9153
:1033C000DF910895DF93CF93CDB7DEB760970FB647
:1033D000F894DEBF0FBECDBF88E690E00E940A07DA
:1033E0000E94F2100E94E00D188A1F8680E00E9461
:1033F000180E988B8F878F859889CC01A0E0B0E05C
:10340000BC01CD010E94EE1380E090E0A8ECB2E494
:103410008B879C87AD87BE876B857C858D859E85D8
:1034200020E030E04AE755E40E941F02DC01CB01B6
:103430008F839887A987BA876F81788589859A85D0
:1034400020E030E040E85FE30E94790388232CF419
:1034500081E090E09E838D833FC06F817885898570
:103460009A8520E03FEF4FE757E40E9419031816B2
:103470004CF56B857C858D859E8520E030E040E2B3
:1034800051E40E941F02DC01CB01BC01CD010E946E
:103490004900DC01CB019E838D830FC080E991E060
:1034A0009C838B838B819C810197F1F79C838B8319
:1034B0008D819E8101979E838D838D819E81009752
:1034C00069F714C06F81788589859A850E944900C3
:1034D000DC01CB019E838D838D819E819A838983BC
:1034E00089819A810197F1F79A8389830E946D13EC
:1034F0007DCFA1E21A2EAA1BBB1BFD010DC0AA1F86
:10350000BB1FEE1FFF1FA217B307E407F50720F04C
:10351000A21BB30BE40BF50B661F771F881F991FC7
:103520001A9469F760957095809590959B01AC0110
:10353000BD01CF0108952F923F924F925F926F92FB
:103540007F928F929F92AF92BF92CF92DF92EF9233
:10355000FF920F931F93CF93DF93CDB7DEB7CA1BB4
:10356000DB0B0FB6F894DEBF0FBECDBF09942A88DF
:10357000398848885F846E847D848C849B84AA8487
:10358000B984C884DF80EE80FD800C811B81AA8114
:10359000B981CE0FD11D0FB6F894DEBF0FBECDBFDF
:0835A000ED010895F894FFCF3E
:1035A800000000000000000000000000010000030F
:1035B80001000201010001010101010201010401F0
:1035C800FF000000000000000000000000000000F4
:1035D80000000000000000000000000000000000E3
:1035E80000000000000000000000000000000000D3
:1035F80000000000000000000000000000000000C3
:1036080000000000000000000000003738392F34A7
:0C36180035362A3132332D2E303D2B0088
:00000001FF
