:100000000C942A000C9447000C9447000C94470071
:100010000C9447000C9447000C9447000C94470044
:100020000C9447000C9447000C94B9060C946E068F
:100030000C9447000C9447000C9447000C94470024
:100040000C9447000C9447000C9447000C94470014
:100050000C94470011241FBECFE5D8E0DEBFCDBF12
:1000600010E0A0E6B0E0E0EEFFE102C005900D92E6
:10007000AC3CB107D9F710E0ACECB0E001C01D9288
:10008000AA3DB107E1F70E94960E0C94EE0F0C9476
:100090000000EF92FF920F931F937B018C0120E0F1
:1000A00030E040E05FE40E94490388238CF0C801FF
:1000B000B70120E030E040E05FE40E94C1010E940F
:1000C000A9039B01AC01205030404040504806C07D
:1000D000C801B7010E94A9039B01AC01B901CA0183
:1000E0001F910F91FF90EF900895A0E0B0E0EBE733
:1000F000F0E00C94B70FDC012B01FA019C919230D7
:1001000008F439C1EB018881823008F433C194309E
:1001100069F4843009F02FC111969C91119789815F
:10012000981709F428C1A0E6B0E025C1843009F48D
:1001300021C18230A9F4923009F01DC19A01AD01AC
:1001400088E0EA010990AE01E90109929E0181501F
:10015000C1F7E201898111969C918923818308C1AD
:10016000923009F407C112962D903C901397EB0141
:100170008A819B811496AD90BD90CD90DC901797AD
:10018000EC80FD800E811F819101281B390BB90184
:1001900037FF04C066277727621B730B6032710537
:1001A0000CF061C0121613066CF537014801062EDB
:1001B00004C096948794779467940A94D2F721E0C8
:1001C00030E040E050E004C0220F331F441F551FB1
:1001D0006A95D2F721503040404050402E213F21B7
:1001E00040235123211531054105510521F021E01E
:1001F00030E040E050E079018A01E628F72808293C
:1002000019293CC0232BD1F1260E371E350146019A
:10021000062E04C096948794779467940A94D2F734
:1002200021E030E040E050E004C0220F331F441FC3
:10023000551F6A95D2F721503040404050402A2146
:100240003B214C215D21211531054105510521F04E
:1002500021E030E040E050E059016A01A628B728CB
:10026000C828D9280BC0821593052CF01C01AA249C
:10027000BB24650103C0EE24FF24870111969C91E5
:10028000D20111968C91981709F445C0992339F041
:10029000A80197012A193B094C095D0906C0A6016E
:1002A00095012E193F09400B510B57FD08C01182D3
:1002B0003382228224833583468357831DC081E0A5
:1002C00081833382228288279927DC01821B930B4A
:1002D000A40BB50B84839583A683B7830DC0220F2F
:1002E000331F441F551F24833583468357838281E0
:1002F000938101979383828324813581468157813D
:10030000DA01C9010197A109B1098F5F9F4FAF4F72
:10031000BF4328F30BC0918333822282EA0CFB1C7B
:100320000C1D1D1DE482F5820683178383E0808304
:10033000248135814681578157FF1AC0C901AA27F8
:1003400097FDA095BA2F81709070A070B0705695EF
:10035000479537952795822B932BA42BB52B848318
:100360009583A683B7838281938101969383828349
:10037000DF0101C0D201CD01CDB7DEB7E2E10C94BF
:10038000D30FA0E2B0E0E7ECF1E00C94C30F698377
:100390007A838B839C832D833E834F835887E9E048
:1003A000EE2EF12CEC0EFD1ECE010196B7010E943F
:1003B000D2048E010F5E1F4FCE010596B8010E9438
:1003C000D2048A8991E089278A8BC701B801AE01DE
:1003D000475E5F4F0E9475000E94FD03A096E6E015
:1003E0000C94DF0FA0E2B0E0E8EFF1E00C94C30F53
:1003F00069837A838B839C832D833E834F835887C5
:10040000F9E0EF2EF12CEC0EFD1ECE010196B701A6
:100410000E94D2048E010F5E1F4FCE010596B801D7
:100420000E94D204C701B801AE01475E5F4F0E942F
:1004300075000E94FD03A096E6E00C94DF0FA0E299
:10044000B0E0E5E2F2E00C94B70F69837A838B8326
:100450009C832D833E834F835887CE010196BE0136
:10046000675F7F4F0E94D204CE010596BE016F5E8A
:100470007F4F0E94D2049985923088F0898982301A
:10048000C8F0943019F4823051F404C0843029F457
:10049000923081F480E690E0C6C0923049F420E0CA
:1004A0009A858A89981321E02A87CE010996BBC0D4
:1004B000823049F420E09A858A89981321E02A8BBA
:1004C000CE014196B0C02D843E844F8458886D88FB
:1004D0007E888F88988CEE24FF248701AA24BB2471
:1004E000650140E050E060E070E0E0E0F0E0C10174
:1004F00081709070892BE9F0E60CF71C081D191D1E
:100500009A01AB012A0D3B1D4C1D5D1D80E090E062
:10051000A0E0B0E0E614F7040805190520F481E036
:1005200090E0A0E0B0E0BA01A901480F591F6A1F8E
:100530007B1FAA0CBB1CCC1CDD1C97FE08C081E0F5
:1005400090E0A0E0B0E0A82AB92ACA2ADB2A3196B6
:10055000E032F10549F0660C771C881C991C569412
:10056000479437942794C3CFFA85EA892B893C892D
:100570008B859C85280F391F2E5F3F4F17C0CA01FE
:1005800081709070892B61F016950795F794E79428
:1005900080E090E0A0E0B0E8E82AF92A0A2B1B2BC3
:1005A00076956795579547952F5F3F4F77FDE7CF36
:1005B0000CC0440F551F661F771F17FD4160EE0CDE
:1005C000FF1C001F111F21503040403090E05907A0
:1005D00090E0690790E4790760F32B8F3C8FDB0193
:1005E000CA018F779070A070B07080349105A1051A
:1005F000B10561F447FD0AC0E114F10401051105DC
:1006000029F0405C5F4F6F4F7F4F40781A8EFE1786
:1006100011F081E08A8F4D8F5E8F6F8F78A383E01A
:10062000898FCE0149960E94FD03A096E2E10C94C9
:10063000D30FA8E1B0E0EFE1F3E00C94C30F6983BE
:100640007A838B839C832D833E834F83588789E0F5
:10065000E82EF12CEC0EFD1ECE010196B7010E9492
:10066000D2048E010F5E1F4FCE010596B8010E9485
:10067000D2048985823040F08989823028F0C70110
:10068000B8010E944A0501C08FEF6896E6E00C941D
:10069000DF0FA8E1B0E0EFE4F3E00C94C30F69834F
:1006A0007A838B839C832D833E834F83588789E095
:1006B000E82EF12CEC0EFD1ECE010196B7010E9432
:1006C000D2048E010F5E1F4FCE010596B8010E9425
:1006D000D2048985823040F08989823028F0C701B0
:1006E000B8010E944A0501C08FEF6896E6E00C94BD
:1006F000DF0FA8E1B0E0EFE7F3E00C94C30F6983EC
:100700007A838B839C832D833E834F83588789E034
:10071000E82EF12CEC0EFD1ECE010196B7010E94D1
:10072000D2048E010F5E1F4FCE010596B8010E94C4
:10073000D2048985823040F08989823028F0C7014F
:10074000B8010E944A0501C081E06896E6E00C9479
:10075000DF0FACE0B0E0EFEAF3E00C94C70F698381
:100760007A838B839C83CE010196BE016B5F7F4FA2
:100770000E94D2048D81823061F1823050F1843048
:1007800021F48E81882351F12EC02F81388537FDC9
:1007900020C06E812F3131051CF06623F9F023C093
:1007A0008EE190E0821B930B29853A854B855C8511
:1007B00004C056954795379527958A95D2F76623B5
:1007C000B1F050954095309521953F4F4F4F5F4F79
:1007D0000EC020E030E040E050E009C02FEF3FEFD6
:1007E0004FEF5FE704C020E030E040E050E8B9019F
:1007F000CA012C96E2E00C94E30FDF92EF92FF9295
:100800000F931F93FC01E480F58006811781D1804E
:100810008081823048F480E090E0A0E1B0E0E82AF6
:10082000F92A0A2B1B2BA5C0843009F49FC0823003
:1008300021F4EE24FF24870105C0E114F104010531
:10084000110519F4E0E0F0E096C0628173819FEF3A
:10085000623879070CF05BC022E83FEF261B370BAC
:100860002A3131052CF020E030E040E050E02AC091
:10087000B801A701022E04C0769567955795479554
:100880000A94D2F781E090E0A0E0B0E004C0880FC5
:10089000991FAA1FBB1F2A95D2F70197A109B10979
:1008A0008E219F21A023B1230097A105B10521F03E
:1008B00081E090E0A0E0B0E09A01AB01282B392B59
:1008C0004A2B5B2BDA01C9018F779070A070B07052
:1008D00080349105A105B10539F427FF09C0205CDA
:1008E0003F4F4F4F5F4F04C0215C3F4F4F4F5F4F13
:1008F000E0E0F0E02030A0E03A07A0E04A07A0E402
:100900005A0710F0E1E0F0E079018A0127C0603871
:10091000710564F5FB01E158FF4FD801C7018F77DE
:100920009070A070B07080349105A105B10539F4C4
:10093000E7FE0DC080E490E0A0E0B0E004C08FE3EB
:1009400090E0A0E0B0E0E80EF91E0A1F1B1F17FFA1
:1009500005C016950795F794E794319687E01695AC
:100960000795F794E7948A95D1F705C0EE24FF2404
:100970008701EFEFF0E06E2F679566276795902F60
:100980009F77D794DD24D7948E2F8695492F462BB9
:10099000582F5D29B701CA011F910F91FF90EF9069
:1009A000DF900895FC01DB01408151812281622F9B
:1009B0006F7770E0221F2227221F9381892F880FD3
:1009C000822B282F30E0991F9927991F11969C930D
:1009D000119721153105A9F54115510561057105DD
:1009E00011F482E037C082E89FEF13969C938E93B8
:1009F00012979A01AB0167E0220F331F441F551F66
:100A00006A95D1F783E08C930DC0220F331F441FEA
:100A1000551F12968D919C911397019713969C9355
:100A20008E931297203080E0380780E0480780E4FA
:100A3000580758F314962D933D934D935C93179755
:100A400008952F3F310579F4411551056105710570
:100A500019F484E08C93089564FF03C081E08C93C3
:100A600012C01C9210C02F57304013963C932E9307
:100A7000129783E08C9387E0440F551F661F771F02
:100A80008A95D1F7706414964D935D936D937C9322
:100A9000179708951F93DC01FB019C91923008F495
:100AA00047C08081823008F443C0943051F41196DD
:100AB0001C91843099F58181682F70E0611B710968
:100AC0003FC0843021F0923031F48230B9F181811D
:100AD000882389F12DC011961C9111978230F1F075
:100AE00081811817D9F412962D913C911397828128
:100AF00093818217930794F028173907BCF0149656
:100B00008D919D910D90BC91A02D248135814681C0
:100B10005781281739074A075B0718F4112341F05A
:100B20000AC082179307A407B50740F4112319F0F0
:100B300061E070E005C06FEF7FEF02C060E070E041
:100B4000CB011F910895DF93CF9300D0CDB7DEB7CF
:100B50009A838983ECE5F0E089EF808389819A812B
:100B6000CC01A0E0B0E08093D6009093D700A09392
:100B7000D800B093D9000F900F90CF91DF910895D6
:100B8000DF93CF930F92CDB7DEB789838981853606
:100B9000D0F4ECE5F0E08981482F50E0CA019C01D7
:100BA000220F331FC9019695982F8827979587950F
:100BB000821B930B840F951F24E630E0B9010E943D
:100BC000A30FCB0180830F90CF91DF910895DF9326
:100BD000CF93CDB7DEB7A3E5B0E0E3E5F0E08081E9
:100BE00080648C93A3E5B0E0E3E5F0E08081877F4B
:100BF0008C93A3E5B0E0E3E5F0E080818F7E8C93F9
:100C0000A3E5B0E0E3E5F0E0808180628C93CF91D2
:100C1000DF910895DF93CF93CDB7DEB7A3E5B0E0C2
:100C2000E3E5F0E0808181608C93A3E5B0E0E3E54B
:100C3000F0E0808182608C93A3E5B0E0E3E5F0E032
:100C400080818B7F8C93CF91DF910895DF93CF9339
:100C5000CDB7DEB7A3E5B0E0E3E5F0E080818E7FBD
:100C60008C93A3E5B0E0E3E5F0E080818D7F8C9389
:100C7000A3E5B0E0E3E5F0E080818B7F8C93CF913A
:100C8000DF910895DF93CF9300D0CDB7DEB79A837D
:100C9000898389819A81009731F089819A81909323
:100CA000CD008093CC000F900F90CF91DF910895ED
:100CB000DF93CF9300D0CDB7DEB79A838983898144
:100CC0009A81009731F089819A819093CF00809327
:100CD000CE000F900F90CF91DF9108951F920F9249
:100CE0000FB60F9211242F933F934F935F936F93FF
:100CF0007F938F939F93AF93BF93EF93FF93DF9374
:100D0000CF93CDB7DEB78091D0009091D1000196FE
:100D10009093D1008093D0008091D0009091D10029
:100D20008A30910599F4E2E5F0E081E78083109242
:100D3000D1001092D0008091CC009091CD0000970E
:100D400029F0E091CC00F091CD000995CF91DF9191
:100D5000FF91EF91BF91AF919F918F917F916F9193
:100D60005F914F913F912F910F900FBE0F901F9069
:100D700018951F920F920FB60F9211242F933F9345
:100D80004F935F936F937F938F939F93AF93BF9393
:100D9000EF93FF93DF93CF93CDB7DEB78091D2006F
:100DA0009091D300A091D400B091D5000196A11DDF
:100DB000B11D8093D2009093D300A093D400B09340
:100DC000D5002091D6003091D7004091D8005091A5
:100DD000D9008091D2009091D300A091D400B0911D
:100DE000D500281739074A075B0799F41092D200FB
:100DF0001092D3001092D4001092D5008091CE00B2
:100E00009091CF00009729F0E091CE00F091CF00B3
:100E10000995CF91DF91FF91EF91BF91AF919F9194
:100E20008F917F916F915F914F913F912F910F9093
:100E30000FBE0F901F901895DF93CF930F92CDB7F1
:100E4000DEB78983ECE5F0E0898180830F90CF9154
:100E5000DF910895DF93CF9300D000D000D0CDB7BD
:100E6000DEB79C838B831A8219821A821982EAC1A7
:100E700029813A81C901880F991F280F391F8B8159
:100E80009C81FC01E20FF31F8081282F30E03E831C
:100E90002D838D819E818130910509F485C02D813E
:100EA0003E81223031052CF48D819E81009771F0B6
:100EB000C4C12D813E812230310509F4E3C08D810A
:100EC0009E818330910509F44BC1B7C129813A81D4
:100ED000C901880F991F280F391F8B819C81FC0144
:100EE000E20FF31F8281813001F5AAE3B0E0EAE36B
:100EF000F0E08081482F29813A81C901880F991F2C
:100F0000280F391F8B819C81FC01E20FF31F818127
:100F1000282F30E081E090E0022E02C0880F991F58
:100F20000A94E2F7842B8C9388C1AAE3B0E0EAE349
:100F3000F0E08081482F29813A81C901880F991FEB
:100F4000280F391F8B819C81FC01E20FF31F8181E7
:100F5000282F30E081E090E002C0880F991F2A9589
:100F6000E2F7809584238C93ABE3B0E0EBE3F0E011
:100F70008081482F29813A81C901880F991F280F44
:100F8000391F8B819C81FC01E20FF31F8181282F87
:100F900030E081E090E0022E02C0880F991F0A9491
:100FA000E2F7842B8C9349C129813A81C901880FCA
:100FB000991F280F391F8B819C81FC01E20FF31FC1
:100FC0008281813001F5A7E3B0E0E7E3F0E08081C2
:100FD000482F29813A81C901880F991F280F391F8D
:100FE0008B819C81FC01E20FF31F8181282F30E06F
:100FF00081E090E0022E02C0880F991F0A94E2F768
:10100000842B8C931AC1A7E3B0E0E7E3F0E0808182
:10101000482F29813A81C901880F991F280F391F4C
:101020008B819C81FC01E20FF31F8181282F30E02E
:1010300081E090E002C0880F991F2A95E2F7809521
:1010400084238C93A8E3B0E0E8E3F0E08081482FAC
:1010500029813A81C901880F991F280F391F8B8177
:101060009C81FC01E20FF31F8181282F30E081E099
:1010700090E0022E02C0880F991F0A94E2F7842B99
:101080008C93DBC029813A81C901880F991F280FF1
:10109000391F8B819C81FC01E20FF31F828181301B
:1010A00001F5A4E3B0E0E4E3F0E08081482F29817A
:1010B0003A81C901880F991F280F391F8B819C81A4
:1010C000FC01E20FF31F8181282F30E081E090E0E6
:1010D000022E02C0880F991F0A94E2F7842B8C938A
:1010E000ACC0A4E3B0E0E4E3F0E08081482F2981C4
:1010F0003A81C901880F991F280F391F8B819C8164
:10110000FC01E20FF31F8181282F30E081E090E0A5
:1011100002C0880F991F2A95E2F7809584238C934B
:10112000A5E3B0E0E5E3F0E08081482F29813A8132
:10113000C901880F991F280F391F8B819C81FC01E1
:10114000E20FF31F8181282F30E081E090E0022E32
:1011500002C0880F991F0A94E2F7842B8C936DC00C
:1011600029813A81C901880F991F280F391F8B8166
:101170009C81FC01E20FF31F8281813001F5A1E324
:10118000B0E0E1E3F0E08081482F29813A81C90194
:10119000880F991F280F391F8B819C81FC01E20F5A
:1011A000F31F8181282F30E081E090E0022E02C001
:1011B000880F991F0A94E2F7842B8C933EC0A1E319
:1011C000B0E0E1E3F0E08081482F29813A81C90154
:1011D000880F991F280F391F8B819C81FC01E20F1A
:1011E000F31F8181282F30E081E090E002C0880F5A
:1011F000991F2A95E2F7809584238C93A2E3B0E0AF
:10120000E2E3F0E08081482F29813A81C901880F0B
:10121000991F280F391F8B819C81FC01E20FF31F5E
:101220008181282F30E081E090E0022E02C0880FFB
:10123000991F0A94E2F7842B8C9389819A810196F5
:101240009A83898389819A81803291050CF410CE2A
:1012500026960FB6F894DEBF0FBECDBFCF91DF91BB
:101260000895DF93CF9300D000D00F92CDB7DEB7B3
:101270008A836B838A818695869586958983898101
:10128000282F30E03D832C838C819D818130910516
:1012900009F443C02C813D81223031052CF48C812E
:1012A0009D81009771F0CEC02C813D8122303105A7
:1012B00009F465C08C819D818330910509F491C04A
:1012C000C1C08B818130A1F4ABE3B0E0EBE3F0E08F
:1012D0008081482F8A81282F30E081E090E0022E23
:1012E00002C0880F991F0A94E2F7842B8C93AAC03E
:1012F000ABE3B0E0EBE3F0E08081482F8A81282F58
:1013000030E081E090E0022E02C0880F991F0A941D
:10131000E2F7809584238C9395C08B818130B9F45A
:10132000A8E3B0E0E8E3F0E08081482F8A81882FCD
:1013300090E09C012770307081E090E0022E02C0A6
:10134000880F991F0A94E2F7842B8C937BC0A8E343
:10135000B0E0E8E3F0E08081482F8A81882F90E0B8
:101360009C012770307081E090E0022E02C0880F4F
:10137000991F0A94E2F7809584238C9363C08B8134
:101380008130B9F4A5E3B0E0E5E3F0E08081482FD7
:101390008A81882F90E09C012770307081E090E076
:1013A000022E02C0880F991F0A94E2F7842B8C93B7
:1013B00049C0A5E3B0E0E5E3F0E08081482F8A81F1
:1013C000882F90E09C012770307081E090E0022E21
:1013D00002C0880F991F0A94E2F7809584238C93AA
:1013E00031C08B818130B9F4A2E3B0E0E2E3F0E0F8
:1013F0008081482F8A81882F90E09C01277030706F
:1014000081E090E0022E02C0880F991F0A94E2F753
:10141000842B8C9317C0A2E3B0E0E2E3F0E080817C
:10142000482F8A81882F90E09C012770307081E0DE
:1014300090E0022E02C0880F991F0A94E2F780956F
:1014400084238C930F900F900F900F900F90CF915B
:10145000DF910895DF93CF9300D000D00F92CDB7E6
:10146000DEB78B838B818695869586958A838A8164
:10147000282F30E03D832C834C815D814130510524
:1014800049F18C819D818230910534F42C813D811C
:101490002115310569F059C04C815D8142305105FB
:1014A00069F18C819D818330910509F43BC04DC069
:1014B000E9E3F0E08081282F30E08B81882F90E0F5
:1014C000A90102C0559547958A95E2F7CA01817036
:1014D00089833BC0E6E3F0E08081282F30E08B81F8
:1014E000882F90E087709070A90102C055954795AC
:1014F0008A95E2F7CA018170898327C0E3E3F0E0AF
:101500008081282F30E08B81882F90E08770907049
:10151000A90102C0559547958A95E2F7CA018170E5
:10152000898313C0E0E3F0E08081282F30E08B81D5
:10153000882F90E087709070A90102C0559547955B
:101540008A95E2F7CA018170898389810F900F9093
:101550000F900F900F90CF91DF910895DF93CF936D
:1015600000D000D0CDB7DEB78A838A818695869574
:101570008695282F30E03C832B834B815C81413062
:10158000510509F43CC08B819C818230910534F473
:101590002B813C812115310571F0ABC04B815C8101
:1015A0004230510509F454C08B819C8183309105F0
:1015B00009F477C09EC0ABE3B0E0EBE3F0E08081DC
:1015C000482F8A81282F30E081E090E002C0880F08
:1015D000991F2A95E2F784278C93EBE3F0E0808152
:1015E000282F30E08A81882F90E0A90102C055950C
:1015F00047958A95E2F7CA01817089837AC0A8E38A
:10160000B0E0E8E3F0E08081482F8A81882F90E005
:101610009C012770307081E090E002C0880F991F14
:101620002A95E2F784278C93E8E3F0E08081282F65
:1016300030E08A81882F90E087709070A90102C005
:10164000559547958A95E2F7CA018170898351C003
:10165000A5E3B0E0E5E3F0E08081482F8A81882FA0
:1016600090E09C012770307081E090E002C0880F0C
:10167000991F2A95E2F784278C93E5E3F0E08081B7
:10168000282F30E08A81882F90E087709070A90120
:1016900002C0559547958A95E2F7CA018170898302
:1016A00028C0A2E3B0E0E2E3F0E08081482F8A8125
:1016B000882F90E09C012770307081E090E002C09C
:1016C000880F991F2A95E2F784278C93E2E3F0E0D4
:1016D0008081282F30E08A81882F90E08770907079
:1016E000A90102C0559547958A95E2F7CA01817014
:1016F000898389810F900F900F900F90CF91DF9188
:101700000895DF93CF9300D000D0CDB7DEB78983A3
:101710006A838981282F30E03C832B838B819C81D5
:1017200081309105D1F02B813C81223031052CF4A0
:101730008B819C81009761F01EC02B813C812230FF
:10174000310581F08B819C818330910581F013C03C
:10175000EBE3F0E08A8180830EC0E8E3F0E08A8169
:10176000808309C0E5E3F0E08A81808304C0E2E37E
:10177000F0E08A8180830F900F900F900F90CF91AF
:10178000DF910895DF93CF930F92CDB7DEB78983B2
:101790008EE061E00E9431098DE069810E9431098B
:1017A00089E10E94D70B0F90CF91DF910895DF93CD
:1017B000CF930F92CDB7DEB7898389810E94C00590
:1017C0000E940A060F90CF91DF910895DF93CF9387
:1017D000CDB7DEB78EE060E00E9431090E94260698
:1017E000CF91DF9108950F931F93DF93CF93CDB7E0
:1017F000DEB7C754D0400FB6F894DEBF0FBECDBFE2
:1018000088E690E00E942A070E94E705FE01E95B56
:10181000FF4F108280E00E94C20B94C0FE01E95B82
:10182000FF4F80810E94D70BFE01ED5BFF4F80E0F0
:1018300090E0A8E4B2E480839183A283B3838E0115
:10184000015C1F4FFE01ED5BFF4F60817181828162
:10185000938120E030E04AE755E40E941F02DC015A
:10186000CB01F80180839183A283B383FE01FF96AD
:10187000608171818281938120E030E040E85FE304
:101880000E94790388232CF481E090E09EAF8DAF15
:1018900046C0FE01FF96608171818281938120E0C4
:1018A0003FEF4FE757E40E941903181664F5FE0155
:1018B000ED5BFF4F608171818281938120E030E098
:1018C00040E251E40E941F02DC01CB01BC01CD01CA
:1018D0000E944900DC01CB019EAF8DAF0FC080E9B3
:1018E00091E09CAF8BAF8BAD9CAD0197F1F79CAFB6
:1018F0008BAF8DAD9EAD01979EAF8DAF8DAD9EAD83
:10190000009769F716C0FE01FF96608171818281A0
:1019100093810E944900DC01CB019EAF8DAF8DAD5C
:101920009EAD9AAF89AF89AD9AAD0197F1F79AAFA5
:1019300089AFDE01A95BBF4FFE01E95BFF4F8081EC
:101940008F5F8C93FE01E95BFF4F8081853608F441
:1019500065CFFE01E95BFF4F108280E090E0A8E4D4
:10196000B3E48DAB9EABAFABB8AF6DA97EA98FA929
:1019700098AD20E030E04AE755E40E941F02DC0108
:10198000CB0189AB9AABABABBCAB69A97AA98BA9EC
:101990009CA920E030E040E85FE30E9479038823BF
:1019A0002CF481E090E098AB8FA73FC069A97AA999
:1019B0008BA99CA920E03FEF4FE757E40E94190351
:1019C00018164CF56DA97EA98FA998AD20E030E0DE
:1019D00040E251E40E941F02DC01CB01BC01CD01B9
:1019E0000E944900DC01CB0198AB8FA70FC080E9B2
:1019F00091E09EA78DA78DA59EA50197F1F79EA7C3
:101A00008DA78FA598A9019798AB8FA78FA598A9A7
:101A1000009769F714C069A97AA98BA99CA90E94AB
:101A20004900DC01CB0198AB8FA78FA598A99CA793
:101A30008BA78BA59CA50197F1F79CA78BA781E0AD
:101A40000E94C20B81C0FE01E95BFF4F80810E94B2
:101A5000D70B80E090E0A8E4B2E48FA398A7A9A7F1
:101A6000BAA76FA178A589A59AA520E030E04AE73A
:101A700055E40E941F02DC01CB018BA39CA3ADA304
:101A8000BEA36BA17CA18DA19EA120E030E040E827
:101A90005FE30E94790388232CF481E090E09AA30D
:101AA00089A33FC06BA17CA18DA19EA120E03FEF47
:101AB0004FE757E40E94190318164CF56FA178A55B
:101AC00089A59AA520E030E040E251E40E941F027F
:101AD000DC01CB01BC01CD010E944900DC01CB013E
:101AE0009AA389A30FC080E991E098A38F8F8F8D6F
:101AF00098A10197F1F798A38F8F89A19AA10197D7
:101B00009AA389A389A19AA1009769F714C06BA130
:101B10007CA18DA19EA10E944900DC01CB019AA36A
:101B200089A389A19AA19E8F8D8F8D8D9E8D0197FE
:101B3000F1F79E8F8D8FDE01A95BBF4FFE01E95B40
:101B4000FF4F80818F5F8C93FE01E95BFF4F8081A7
:101B5000853608F478CF80E090E0A8E4B2E4898F7D
:101B60009A8FAB8FBC8F698D7A8D8B8D9C8D20E089
:101B700030E04AE755E40E941F02DC01CB018D8B67
:101B80009E8BAF8BB88F6D897E898F89988D20E071
:101B900030E040E85FE30E94790388232CF481E081
:101BA00090E09C8B8B8B3FC06D897E898F89988D4F
:101BB00020E03FEF4FE757E40E94190318164CF559
:101BC000698D7A8D8B8D9C8D20E030E040E251E470
:101BD0000E941F02DC01CB01BC01CD010E94490023
:101BE000DC01CB019C8B8B8B0FC080E991E09A8B41
:101BF000898B89899A890197F1F79A8B898B8B89CF
:101C00009C8901979C8B8B8B8B899C89009769F7AA
:101C100014C06D897E898F89988D0E944900DC01EE
:101C2000CB019C8B8B8B8B899C89988B8F878F8525
:101C300098890197F1F7988B8F870E94E60B80E0D7
:101C400090E8ABE3B5E48B879C87AD87BE876B8557
:101C50007C858D859E8520E030E04AE755E40E9432
:101C60001F02DC01CB018F839887A987BA876F8118
:101C7000788589859A8520E030E040E85FE30E941E
:101C8000790388232CF481E090E09E838D833FC00C
:101C90006F81788589859A8520E03FEF4FE757E48B
:101CA0000E94190318164CF56B857C858D859E85E1
:101CB00020E030E040E251E40E941F02DC01CB0151
:101CC000BC01CD010E944900DC01CB019E838D83C4
:101CD0000FC080E991E09C838B838B819C8101976D
:101CE000F1F79C838B838D819E8101979E838D83E9
:101CF0008D819E81009769F714C06F8178858985F1
:101D00009A850E944900DC01CB019E838D838D81E1
:101D10009E819A83898389819A810197F1F79A83B9
:101D20008983FE01E95BFF4F108274CDDF93CF936F
:101D3000CDB7DEB76D970FB6F894DEBF0FBECDBF3F
:101D400088E690E00E942A070E94E7058AE08D8FCE
:101D500080E00E94C20B8D8D0E94D70B80E090E046
:101D6000A8E4B2E4898F9A8FAB8FBC8F698D7A8D8E
:101D70008B8D9C8D20E030E04AE755E40E941F02E5
:101D8000DC01CB018D8B9E8BAF8BB88F6D897E89EB
:101D90008F89988D20E030E040E85FE30E9479036E
:101DA00088232CF481E090E09C8B8B8B3FC06D8965
:101DB0007E898F89988D20E03FEF4FE757E40E949E
:101DC000190318164CF5698D7A8D8B8D9C8D20E04A
:101DD00030E040E251E40E941F02DC01CB01BC0173
:101DE000CD010E944900DC01CB019C8B8B8B0FC085
:101DF00080E991E09A8B898B89899A890197F1F71B
:101E00009A8B898B8B899C8901979C8B8B8B8B8977
:101E10009C89009769F714C06D897E898F89988D98
:101E20000E944900DC01CB019C8B8B8B8B899C89A8
:101E3000988B8F878F8598890197F1F7988B8F877B
:101E40008D8D8F5F8D8F0E94E60B1D8E80E090E060
:101E5000A8E4B3E48B879C87AD87BE876B857C85C0
:101E60008D859E8520E030E04AE755E40E941F0200
:101E7000DC01CB018F839887A987BA876F8178852A
:101E800089859A8520E030E040E85FE30E9479038D
:101E900088232CF481E090E09E838D833FC06F8186
:101EA000788589859A8520E03FEF4FE757E40E94C7
:101EB000190318164CF56B857C858D859E8520E071
:101EC00030E040E251E40E941F02DC01CB01BC0182
:101ED000CD010E944900DC01CB019E838D830FC0A0
:101EE00080E991E09C838B838B819C810197F1F742
:101EF0009C838B838D819E8101979E838D838D81B1
:101F00009E81009769F714C06F81788589859A85CD
:101F10000E944900DC01CB019E838D838D819E81CF
:101F20009A83898389819A810197F1F79A838983BA
:101F300080E090E06D960FB6F894DEBF0FBECDBF87
:101F4000CF91DF910895AA1BBB1B51E107C0AA1FC7
:101F5000BB1FA617B70710F0A61BB70B881F991F4A
:101F60005A95A9F780959095BC01CD0108952F92BF
:101F70003F924F925F926F927F928F929F92AF9219
:101F8000BF92CF92DF92EF92FF920F931F93CF9366
:101F9000DF93CDB7DEB7CA1BDB0B0FB6F894DEBFFD
:101FA0000FBECDBF09942A88398848885F846E8423
:101FB0007D848C849B84AA84B984C884DF80EE806D
:101FC000FD800C811B81AA81B981CE0FD11D0FB676
:101FD000F894DEBF0FBECDBFED010895F894FFCF9A
:101FE00000000000000000000103010105010106DE
:101FF00001000000000100000301000201010001D6
:10200000010101010201010401FF000000000000C4
:1020100000000000000000000000000000000000C0
:1020200000000000000000000000000000000000B0
:1020300000000000000000000000000000000000A0
:0C20400000000000000000000000000094
:00000001FF
