:100000000C942A000C9489110C94BC110C94EF11DF
:100010000C949B090C944F090C946B0F0C944700A3
:100020000C9447000C9447000C942D0C0C94E10B9D
:100030000C9447000C9447000C9447000C94470024
:100040000C9447000C9447000C9447000C94470014
:100050000C94470011241FBECFE5D8E0DEBFCDBF12
:1000600011E0A0E6B0E0E0ECF1E402C005900D92F2
:10007000A23EB107D9F712E0A2EEB1E001C01D9295
:10008000AC30B107E1F70E9439200C94DE200C94CB
:100090000000EF92FF920F931F937B018C0120E0F1
:1000A00030E040E05FE40E94250488238CF0C80122
:1000B000B70120E030E040E05FE40E94C1010E940F
:1000C000B5049B01AC01205030404040504806C070
:1000D000C801B7010E94B5049B01AC01B901CA0176
:1000E0001F910F91FF90EF900895A0E0B0E0EBE733
:1000F000F0E00C94A720DC012B01FA019C919230D6
:1001000008F439C1EB018881823008F433C194309E
:1001100069F4843009F02FC111969C91119789815F
:10012000981709F428C1A5E7B0E025C1843009F487
:1001300021C18230A9F4923009F01DC19A01AD01AC
:1001400088E0EA010990AE01E90109929E0181501F
:10015000C1F7E201898111969C918923818308C1AD
:10016000923009F407C112962D903C901397EB0141
:100170008A819B811496AD90BD90CD90DC901797AD
:10018000EC80FD800E811F819101281B390BB90184
:1001900037FF04C066277727621B730B6032710537
:1001A0000CF061C0121613066CF537014801062EDB
:1001B00004C096948794779467940A94D2F721E0C8
:1001C00030E040E050E004C0220F331F441F551FB1
:1001D0006A95D2F721503040404050402E213F21B7
:1001E00040235123211531054105510521F021E01E
:1001F00030E040E050E079018A01E628F72808293C
:1002000019293CC0232BD1F1260E371E350146019A
:10021000062E04C096948794779467940A94D2F734
:1002200021E030E040E050E004C0220F331F441FC3
:10023000551F6A95D2F721503040404050402A2146
:100240003B214C215D21211531054105510521F04E
:1002500021E030E040E050E059016A01A628B728CB
:10026000C828D9280BC0821593052CF01C01AA249C
:10027000BB24650103C0EE24FF24870111969C91E5
:10028000D20111968C91981709F445C0992339F041
:10029000A80197012A193B094C095D0906C0A6016E
:1002A00095012E193F09400B510B57FD08C01182D3
:1002B0003382228224833583468357831DC081E0A5
:1002C00081833382228288279927DC01821B930B4A
:1002D000A40BB50B84839583A683B7830DC0220F2F
:1002E000331F441F551F24833583468357838281E0
:1002F000938101979383828324813581468157813D
:10030000DA01C9010197A109B1098F5F9F4FAF4F72
:10031000BF4328F30BC0918333822282EA0CFB1C7B
:100320000C1D1D1DE482F5820683178383E0808304
:10033000248135814681578157FF1AC0C901AA27F8
:1003400097FDA095BA2F81709070A070B0705695EF
:10035000479537952795822B932BA42BB52B848318
:100360009583A683B7838281938101969383828349
:10037000DF0101C0D201CD01CDB7DEB7E2E10C94BF
:10038000C320A0E2B0E0E7ECF1E00C94B320698375
:100390007A838B839C832D833E834F835887E9E048
:1003A000EE2EF12CEC0EFD1ECE010196B7010E943F
:1003B000A6068E010F5E1F4FCE010596B8010E9462
:1003C000A6068A8991E089278A8BC701B801AE0108
:1003D000475E5F4F0E9475000E94D105A096E6E03F
:1003E0000C94CF20A0E2B0E0E8EFF1E00C94B32051
:1003F00069837A838B839C832D833E834F835887C5
:10040000F9E0EF2EF12CEC0EFD1ECE010196B701A6
:100410000E94A6068E010F5E1F4FCE010596B80101
:100420000E94A606C701B801AE01475E5F4F0E9459
:1004300075000E94D105A096E6E00C94CF20A0E2C2
:10044000B0E0E5E2F2E00C94A72069837A838B8325
:100450009C832D833E834F835887CE010196BE0136
:10046000675F7F4F0E94A606CE010596BE016F5EB4
:100470007F4F0E94A6069985923088F08989823044
:10048000C8F0943019F4823051F404C0843029F457
:10049000923081F485E790E0C6C0923049F420E0C4
:1004A0009A858A89981321E02A87CE010996BBC0D4
:1004B000823049F420E09A858A89981321E02A8BBA
:1004C000CE014196B0C02D843E844F8458886D88FB
:1004D0007E888F88988CEE24FF248701AA24BB2471
:1004E000650140E050E060E070E0E0E0F0E0C10174
:1004F00081709070892BE9F0E60CF71C081D191D1E
:100500009A01AB012A0D3B1D4C1D5D1D80E090E062
:10051000A0E0B0E0E614F7040805190520F481E036
:1005200090E0A0E0B0E0BA01A901480F591F6A1F8E
:100530007B1FAA0CBB1CCC1CDD1C97FE08C081E0F5
:1005400090E0A0E0B0E0A82AB92ACA2ADB2A3196B6
:10055000E032F10549F0660C771C881C991C569412
:10056000479437942794C3CFFA85EA892B893C892D
:100570008B859C85280F391F2E5F3F4F17C0CA01FE
:1005800081709070892B61F016950795F794E79428
:1005900080E090E0A0E0B0E8E82AF92A0A2B1B2BC3
:1005A00076956795579547952F5F3F4F77FDE7CF36
:1005B0000CC0440F551F661F771F17FD4160EE0CDE
:1005C000FF1C001F111F21503040403090E05907A0
:1005D00090E0690790E4790760F32B8F3C8FDB0193
:1005E000CA018F779070A070B07080349105A1051A
:1005F000B10561F447FD0AC0E114F10401051105DC
:1006000029F0405C5F4F6F4F7F4F40781A8EFE1786
:1006100011F081E08A8F4D8F5E8F6F8F78A383E01A
:10062000898FCE0149960E94D105A096E2E10C94F3
:10063000C320A8E1B0E0EFE1F3E00C94AF206983C0
:100640007A838B839C832D833E834F835887B9E0C5
:10065000EB2EF12CEC0EFD1ECE010196B7010E948F
:10066000A6068E010F5E1F4FCE010596B8010E94AF
:10067000A6062985223008F47EC03989323010F46C
:10068000B8017CC08A859A8989278A87243011F02D
:10069000223031F4231709F06EC065E770E06EC0B8
:1006A000343039F41D861E861F86188A1C861B86E8
:1006B00004C0323021F484E08987B7015FC02B8504
:1006C0003C858B899C89281B390B3C872B87ED84C3
:1006D000FE840F851889AD88BE88CF88D88CEA142F
:1006E000FB040C051D0540F4EE0CFF1C001F111F40
:1006F000215030403C872B8720E030E040E050E044
:1007000080E090E0A0E0B0E460E070E0EA14FB0478
:100710000C051D0540F0282B392B4A2B5B2BEA18C2
:10072000FB080C091D09B695A79597958795EE0CC2
:10073000FF1C001F111F6F5F7F4F6F31710531F775
:10074000DA01C9018F779070A070B0708034910584
:10075000A105B10561F427FD0AC0E114F10401050A
:10076000110529F0205C3F4F4F4F5F4F20782D87B8
:100770003E874F87588BBE01675F7F4FCB010E943A
:10078000D1056896EAE00C94CB20A8E1B0E0EBEC50
:10079000F3E00C94B32069837A838B839C832D834D
:1007A0003E834F83588789E0E82EF12CEC0EFD1E26
:1007B000CE010196B7010E94A6068E010F5E1F4F63
:1007C000CE010596B8010E94A6068985823040F0C8
:1007D0008989823028F0C701B8010E941E0701C034
:1007E00081E06896E6E00C94CF20A8E1B0E0EBEF62
:1007F000F3E00C94B32069837A838B839C832D83ED
:100800003E834F83588789E0E82EF12CEC0EFD1EC5
:10081000CE010196B7010E94A6068E010F5E1F4F02
:10082000CE010596B8010E94A6068985823040F067
:100830008989823028F0C701B8010E941E0701C0D3
:100840008FEF6896E6E00C94CF20A8E1B0E0EBE2F1
:10085000F4E00C94B32069837A838B839C832D838B
:100860003E834F83588789E0E82EF12CEC0EFD1E65
:10087000CE010196B7010E94A6068E010F5E1F4FA2
:10088000CE010596B8010E94A6068985823040F007
:100890008989823028F0C701B8010E941E0701C073
:1008A0008FEF6896E6E00C94CF20A8E1B0E0EBE58E
:1008B000F4E00C94B32069837A838B839C832D832B
:1008C0003E834F83588789E0E82EF12CEC0EFD1E05
:1008D000CE010196B7010E94A6068E010F5E1F4F42
:1008E000CE010596B8010E94A6068985823040F0A7
:1008F0008989823028F0C701B8010E941E0701C013
:1009000081E06896E6E00C94CF20A8E1B0E0EBE847
:10091000F4E00C94B32069837A838B839C832D83CA
:100920003E834F83588789E0E82EF12CEC0EFD1EA4
:10093000CE010196B7010E94A6068E010F5E1F4FE1
:10094000CE010596B8010E94A6068985823040F046
:100950008989823028F0C701B8010E941E0701C0B2
:1009600081E06896E6E00C94CF20ACE0B0E0EBEBE1
:10097000F4E00C94B72069837A838B839C83CE0147
:100980000196BE016B5F7F4F0E94A6068D8182306B
:1009900061F1823050F1843021F48E81882351F14D
:1009A0002EC02F81388537FD20C06E812F31310553
:1009B0001CF06623F9F023C08EE190E0821B930BBC
:1009C00029853A854B855C8504C0569547953795B2
:1009D00027958A95D2F76623B1F0509540953095CA
:1009E00021953F4F4F4F5F4F0EC020E030E040E079
:1009F00050E009C02FEF3FEF4FEF5FE704C020E06A
:100A000030E040E050E8B901CA012C96E2E00C94D5
:100A1000D320A8E0B0E0EFE0F5E00C94AF207B013C
:100A20008C01611571058105910519F482E08983B6
:100A300060C083E089838EE1C82ED12CDC82CB821A
:100A4000ED82FE820F831887C801B7010E948205DC
:100A5000FC013197F7FF3BC0222733272E1B3F0BAA
:100A600057016801022E04C0D694C794B794A79486
:100A70000A94D2F740E050E060E070E081E090E05E
:100A8000A0E0B0E004C0880F991FAA1FBB1F2A95E1
:100A9000D2F70197A109B1098E219F21A023B1238B
:100AA0000097A105B10521F041E050E060E070E061
:100AB0004A295B296C297D294D835E836F83788762
:100AC0008EE190E08E1B9F0B9C838B8312C030972E
:100AD00081F00E2E04C0EE0CFF1C001F111F0A94A3
:100AE000D2F7ED82FE820F831887CE1ADF0ADC82EE
:100AF000CB821A82CE0101960E94D1052896EAE0A7
:100B00000C94CB20EF92FF920F931F937B018C01EB
:100B100080E0E81680E0F80681E0080780E018072A
:100B200088F48FEFE816F1040105110531F028F083
:100B300088E090E0A0E0B0E017C080E090E0A0E0A6
:100B4000B0E012C080E0E81680E0F80680E0080718
:100B500081E0180728F088E190E0A0E0B0E004C050
:100B600080E190E0A0E0B0E020E230E040E050E042
:100B7000281B390B4A0B5B0B04C016950795F7949D
:100B8000E7948A95D2F7F701E358FF4F8081281B3D
:100B9000310941095109C9011F910F91FF90EF904F
:100BA0000895DF92EF92FF920F931F93FC01E48070
:100BB000F58006811781D1808081823048F480E001
:100BC00090E0A0E1B0E0E82AF92A0A2B1B2BA5C08F
:100BD000843009F49FC0823021F4EE24FF24870181
:100BE00005C0E114F1040105110519F4E0E0F0E09D
:100BF00096C0628173819FEF623879070CF05BC009
:100C000022E83FEF261B370B2A3131052CF020E07C
:100C100030E040E050E02AC0B801A701022E04C035
:100C200076956795579547950A94D2F781E090E0BD
:100C3000A0E0B0E004C0880F991FAA1FBB1F2A952F
:100C4000D2F70197A109B1098E219F21A023B123D9
:100C50000097A105B10521F081E090E0A0E0B0E0AF
:100C60009A01AB01282B392B4A2B5B2BDA01C901E6
:100C70008F779070A070B07080349105A105B10598
:100C800039F427FF09C0205C3F4F4F4F5F4F04C02E
:100C9000215C3F4F4F4F5F4FE0E0F0E02030A0E09D
:100CA0003A07A0E04A07A0E45A0710F0E1E0F0E0BC
:100CB00079018A0127C06038710564F5FB01E158AC
:100CC000FF4FD801C7018F779070A070B07080344B
:100CD0009105A105B10539F4E7FE0DC080E490E06F
:100CE000A0E0B0E004C08FE390E0A0E0B0E0E80E48
:100CF000F91E0A1F1B1F17FF05C016950795F794CD
:100D0000E794319687E016950795F794E7948A95CE
:100D1000D1F705C0EE24FF248701EFEFF0E06E2F3E
:100D2000679566276795902F9F77D794DD24D79492
:100D30008E2F8695492F462B582F5D29B701CA0162
:100D40001F910F91FF90EF90DF900895FC01DB0160
:100D5000408151812281622F6F7770E0221F22270C
:100D6000221F9381892F880F822B282F30E0991F13
:100D70009927991F11969C93119721153105A9F573
:100D8000411551056105710511F482E037C082E813
:100D90009FEF13969C938E9312979A01AB0167E095
:100DA000220F331F441F551F6A95D1F783E08C93A0
:100DB0000DC0220F331F441F551F12968D919C9119
:100DC0001397019713969C938E931297203080E08F
:100DD000380780E0480780E4580758F314962D93AD
:100DE0003D934D935C93179708952F3F310579F408
:100DF000411551056105710519F484E08C9308953E
:100E000064FF03C081E08C9312C01C9210C02F5766
:100E1000304013963C932E93129783E08C9387E097
:100E2000440F551F661F771F8A95D1F7706414967B
:100E30004D935D936D937C93179708951F93DC01F9
:100E4000FB019C91923008F447C08081823008F405
:100E500043C0943051F411961C91843099F58181EE
:100E6000682F70E0611B71093FC0843021F092301F
:100E700031F48230B9F18181882389F12DC0119636
:100E80001C9111978230F1F081811817D9F41296D4
:100E90002D913C911397828193818217930794F04F
:100EA00028173907BCF014968D919D910D90BC9137
:100EB000A02D2481358146815781281739074A079B
:100EC0005B0718F4112341F00AC082179307A407A7
:100ED000B50740F4112319F061E070E005C06FEF31
:100EE0007FEF02C060E070E0CB011F910895DF93B7
:100EF000CF9300D00F92CDB7DEB789838981282F99
:100F000030E03B832A838A819B818430910509F4F8
:100F100071C02A813B81253031058CF48A819B8107
:100F200082309105D9F12A813B81233031050CF0C3
:100F30004BC08A819B8181309105D1F0C8C02A8144
:100F40003B812630310509F481C08A819B8186303E
:100F500091050CF465C02A813B812730310509F4E5
:100F60008BC08A819B818830910509F49BC0AFC0FA
:100F7000A1E4B0E0E1E4F0E080818E7F8C93A1E415
:100F8000B0E0E1E4F0E080818D7F8C93A1E4B0E0FB
:100F9000E1E4F0E080818B7F8C9399C0A1E4B0E024
:100FA000E1E4F0E0808181608C93A1E4B0E0E1E4D1
:100FB000F0E080818D7F8C93A1E4B0E0E1E4F0E08B
:100FC00080818B7F8C9383C0A1E4B0E0E1E4F0E00A
:100FD00080818E7F8C93A1E4B0E0E1E4F0E0808139
:100FE00082608C93A1E4B0E0E1E4F0E080818B7F4B
:100FF0008C936DC0A1E4B0E0E1E4F0E08081816019
:101000008C93A1E4B0E0E1E4F0E0808182608C9315
:10101000A1E4B0E0E1E4F0E080818B7F8C9357C0E5
:10102000A1E4B0E0E1E4F0E080818E7F8C93A1E464
:10103000B0E0E1E4F0E080818D7F8C93A1E4B0E04A
:10104000E1E4F0E0808184608C9341C0A1E4B0E0F1
:10105000E1E4F0E0808181608C93A1E4B0E0E1E420
:10106000F0E080818D7F8C93A1E4B0E0E1E4F0E0DA
:10107000808184608C932BC0A1E4B0E0E1E4F0E0D7
:1010800080818E7F8C93A1E4B0E0E1E4F0E0808188
:1010900082608C93A1E4B0E0E1E4F0E080818460C0
:1010A0008C9315C0A1E4B0E0E1E4F0E080818160C0
:1010B0008C93A1E4B0E0E1E4F0E0808182608C9365
:1010C000A1E4B0E0E1E4F0E0808184608C93A1E4ED
:1010D000B0E0E1E4F0E0808188608C930F900F90A5
:1010E0000F90CF91DF910895DF93CF93CDB7DEB707
:1010F000E1E4F0E088E18083E1E4F0E01082CF9168
:10110000DF910895DF93CF9300D0CDB7DEB79A83F8
:101110008983E3E4F0E089EF808389819A81CC01BF
:10112000A0E0B0E08093EC019093ED01A093EE017C
:10113000B093EF010F900F90CF91DF910895DF935F
:10114000CF930F92CDB7DEB7898389818536E0F4DE
:1011500094E68981292F281B822F898389818823FE
:1011600021F4E3E4F0E010820FC0E3E4F0E08981D1
:10117000882F90E0982F882724E630E0B9010E945C
:101180007120CB01815080830F90CF91DF91089522
:10119000DF93CF93CDB7DEB7A5E4B0E0E5E4F0E0B0
:1011A000808180648C93A5E4B0E0E5E4F0E0808188
:1011B00088608C93A5E4B0E0E5E4F0E08081806194
:1011C0008C93A5E4B0E0E5E4F0E0808180628C934C
:1011D000CF91DF910895DF93CF93CDB7DEB7A5E42C
:1011E000B0E0E5E4F0E0808181608C93A5E4B0E0BC
:1011F000E5E4F0E0808182608C93A5E4B0E0E5E472
:10120000F0E080818B7F8C93CF91DF910895DF9305
:10121000CF93CDB7DEB7A5E4B0E0E5E4F0E08081A0
:101220008E7F8C93A5E4B0E0E5E4F0E080818D7FD3
:101230008C93A5E4B0E0E5E4F0E080818B7F8C93B3
:10124000CF91DF910895DF93CF9300D0CDB7DEB774
:101250009A83898389819A81009731F089819A8163
:101260009093E3018093E2010F900F90CF91DF9173
:101270000895DF93CF9300D0CDB7DEB79A838983EB
:1012800089819A81009731F089819A819093E50153
:101290008093E4010F900F90CF91DF9108951F92FA
:1012A0000F920FB60F9211242F933F934F935F939A
:1012B0006F937F938F939F93AF93BF93EF93FF931E
:1012C000DF93CF93CDB7DEB78091E6019091E70130
:1012D00001969093E7018093E6018091E601909159
:1012E000E70123E0813D920799F4E4E4F0E081E72F
:1012F00080831092E7011092E6018091E2019091C3
:10130000E301009729F0E091E201F091E3010995F2
:10131000CF91DF91FF91EF91BF91AF919F918F910D
:101320007F916F915F914F913F912F910F900FBEE1
:101330000F901F9018951F920F920FB60F921124C5
:101340002F933F934F935F936F937F938F939F93CD
:10135000AF93BF93EF93FF93DF93CF93CDB7DEB7F8
:101360008091E8019091E901A091EA01B091EB012F
:101370000196A11DB11D8093E8019093E901A0930E
:10138000EA01B093EB012091EC013091ED01409125
:10139000EE015091EF018091E8019091E901A09157
:1013A000EA01B091EB01281739074A075B0799F466
:1013B0001092E8011092E9011092EA011092EB01FB
:1013C0008091E4019091E501009729F0E091E4011A
:1013D000F091E5010995CF91DF91FF91EF91BF91D8
:1013E000AF919F918F917F916F915F914F913F91BD
:1013F0002F910F900FBE0F901F901895DF93CF93F2
:101400000F92CDB7DEB78983E3E4F0E08981808372
:101410000F90CF91DF9108950F931F93DF93CF9398
:1014200000D0CDB7DEB79A83898306E410E08981C6
:101430009A819C0140E050E080E990EDA3E0B0E0AB
:10144000BC01CD010E948520DA01C9010197F80194
:10145000918380830F900F90CF91DF911F910F9117
:1014600008950F931F93DF93CF9300D000D0CDB793
:10147000DEB769837A838B839C8369817A818B81D0
:101480009C8120E030E048EC52E40E94850418166C
:101490000CF448C069817A818B819C8120E030E026
:1014A00040E050E00E94C503882329F4EAE4F0E01C
:1014B0001182108237C00AE410E0E6E4F0E0808197
:1014C00091810196CC01A0E0B0E0BC01CD010E9469
:1014D0000905DC01CB01BC01CD0129813A814B8199
:1014E0005C810E941F02DC01CB01BC01CD0120E028
:1014F00030E048EC52E40E941903DC01CB01BC014E
:10150000CD0120E030E040E85FE30E94C101DC0152
:10151000CB01BC01CD010E944900DC01CB01F801E7
:10152000918380830F900F900F900F90CF91DF9158
:101530001F910F910895DF93CF93CDB7DEB7AFE43E
:10154000B0E0EFE4F0E080818E7F8C93AFE4B0E018
:10155000EFE4F0E0808182608C93AEE4B0E0EEE4F2
:10156000F0E0808188608C93AEE4B0E0EEE4F0E0DF
:10157000808180618C93AFE4B0E0EFE4F0E08081A3
:101580008F7B8C93AFE4B0E0EFE4F0E08081806883
:101590008C93CF91DF910895DF93CF9300D0CDB797
:1015A000DEB79A838983EAE4F0E089819A819183A6
:1015B00080830F900F90CF91DF910895DF93CF93A9
:1015C000CDB7DEB7AEE4B0E0EEE4F0E0808181605C
:1015D0008C93AEE4B0E0EEE4F0E0808182608C9326
:1015E000AEE4B0E0EEE4F0E080818B7F8C93CF91AD
:1015F000DF910895DF93CF93CDB7DEB7AEE4B0E0CF
:10160000EEE4F0E080818E7F8C93AEE4B0E0EEE417
:10161000F0E080818D7F8C93AEE4B0E0EEE4F0E00A
:1016200080818B7F8C93CF91DF910895DF93CF934F
:1016300000D0CDB7DEB79A838983ECE5F0E089EF7F
:10164000808389819A81CC01A0E0B0E08093FA0187
:101650009093FB01A093FC01B093FD010F900F90BC
:10166000CF91DF910895DF93CF930F92CDB7DEB77F
:10167000898389818536D0F4ECE5F0E08981482FB3
:1016800050E0CA019C01220F331FC9019695982F83
:10169000882797958795821B930B840F951F24E6C7
:1016A00030E0B9010E947120CB0180830F90CF916F
:1016B000DF910895DF93CF93CDB7DEB7A3E5B0E018
:1016C000E3E5F0E0808180648C93A3E5B0E0E3E59E
:1016D000F0E08081877F8C93A3E5B0E0E3E5F0E064
:1016E00080818F7E8C93A3E5B0E0E3E5F0E080811C
:1016F00080628C93CF91DF910895DF93CF93CDB724
:10170000DEB7A3E5B0E0E3E5F0E0808181608C9393
:10171000A3E5B0E0E3E5F0E0808182608C93A3E58F
:10172000B0E0E3E5F0E080818B7F8C93CF91DF9197
:101730000895DF93CF93CDB7DEB7A3E5B0E0E3E53F
:10174000F0E080818E7F8C93A3E5B0E0E3E5F0E0EC
:1017500080818D7F8C93A3E5B0E0E3E5F0E08081AC
:101760008B7F8C93CF91DF910895DF93CF9300D03F
:10177000CDB7DEB79A83898389819A81009731F04A
:1017800089819A819093F1018093F0010F900F90DD
:10179000CF91DF910895DF93CF9300D0CDB7DEB71F
:1017A0009A83898389819A81009731F089819A810E
:1017B0009093F3018093F2010F900F90CF91DF91FE
:1017C00008951F920F920FB60F9211242F933F93FB
:1017D0004F935F936F937F938F939F93AF93BF9339
:1017E000EF93FF93DF93CF93CDB7DEB78091F401F2
:1017F0009091F50101969093F5018093F401809109
:10180000F4019091F50123E0813D920799F4E2E51E
:10181000F0E081E780831092F5011092F40180914D
:10182000F0019091F101009729F0E091F001F09121
:10183000F1010995CF91DF91FF91EF91BF91AF91A8
:101840009F918F917F916F915F914F913F912F91D8
:101850000F900FBE0F901F9018951F920F920FB60A
:101860000F9211242F933F934F935F936F937F9326
:101870008F939F93AF93BF93EF93FF93DF93CF9398
:10188000CDB7DEB78091F6019091F701A091F801F4
:10189000B091F9010196A11DB11D8093F6019093BD
:1018A000F701A093F801B093F9012091FA0130916A
:1018B000FB014091FC015091FD018091F601909156
:1018C000F701A091F801B091F901281739074A07EB
:1018D0005B0799F41092F6011092F7011092F8014B
:1018E0001092F9018091F2019091F301009729F093
:1018F000E091F201F091F3010995CF91DF91FF9111
:10190000EF91BF91AF919F918F917F916F915F9177
:101910004F913F912F910F900FBE0F901F901895F0
:10192000DF93CF930F92CDB7DEB78983ECE5F0E07C
:10193000898180830F90CF91DF910895DF93CF93BA
:1019400000D000D000D0CDB7DEB79C838B831A8245
:1019500019821A821982EAC129813A81C901880F44
:10196000991F280F391F8B819C81FC01E20FF31F07
:101970008081282F30E03E832D838D819E818130B0
:10198000910509F485C02D813E81223031052CF46A
:101990008D819E81009771F0C4C12D813E812230DE
:1019A000310509F4E3C08D819E818330910509F4EE
:1019B0004BC1B7C129813A81C901880F991F280FEE
:1019C000391F8B819C81FC01E20FF31F82818130E2
:1019D00001F5AAE3B0E0EAE3F0E08081482F298135
:1019E0003A81C901880F991F280F391F8B819C816B
:1019F000FC01E20FF31F8181282F30E081E090E0AD
:101A0000022E02C0880F991F0A94E2F7842B8C9350
:101A100088C1AAE3B0E0EAE3F0E08081482F2981A1
:101A20003A81C901880F991F280F391F8B819C812A
:101A3000FC01E20FF31F8181282F30E081E090E06C
:101A400002C0880F991F2A95E2F7809584238C9312
:101A5000ABE3B0E0EBE3F0E08081482F29813A81ED
:101A6000C901880F991F280F391F8B819C81FC01A8
:101A7000E20FF31F8181282F30E081E090E0022EF9
:101A800002C0880F991F0A94E2F7842B8C9349C1F6
:101A900029813A81C901880F991F280F391F8B812D
:101AA0009C81FC01E20FF31F8281813001F5A7E3E5
:101AB000B0E0E7E3F0E08081482F29813A81C90155
:101AC000880F991F280F391F8B819C81FC01E20F21
:101AD000F31F8181282F30E081E090E0022E02C0C8
:101AE000880F991F0A94E2F7842B8C931AC1A7E3FD
:101AF000B0E0E7E3F0E08081482F29813A81C90115
:101B0000880F991F280F391F8B819C81FC01E20FE0
:101B1000F31F8181282F30E081E090E002C0880F20
:101B2000991F2A95E2F7809584238C93A8E3B0E06F
:101B3000E8E3F0E08081482F29813A81C901880FCC
:101B4000991F280F391F8B819C81FC01E20FF31F25
:101B50008181282F30E081E090E0022E02C0880FC2
:101B6000991F0A94E2F7842B8C93DBC029813A8178
:101B7000C901880F991F280F391F8B819C81FC0197
:101B8000E20FF31F8281813001F5A4E3B0E0E4E3CA
:101B9000F0E08081482F29813A81C901880F991F7F
:101BA000280F391F8B819C81FC01E20FF31F81817B
:101BB000282F30E081E090E0022E02C0880F991FAC
:101BC0000A94E2F7842B8C93ACC0A4E3B0E0E4E386
:101BD000F0E08081482F29813A81C901880F991F3F
:101BE000280F391F8B819C81FC01E20FF31F81813B
:101BF000282F30E081E090E002C0880F991F2A95DD
:101C0000E2F7809584238C93A5E3B0E0E5E3F0E070
:101C10008081482F29813A81C901880F991F280F97
:101C2000391F8B819C81FC01E20FF31F8181282FDA
:101C300030E081E090E0022E02C0880F991F0A94E4
:101C4000E2F7842B8C936DC029813A81C901880FFA
:101C5000991F280F391F8B819C81FC01E20FF31F14
:101C60008281813001F5A1E3B0E0E1E3F0E0808121
:101C7000482F29813A81C901880F991F280F391FE0
:101C80008B819C81FC01E20FF31F8181282F30E0C2
:101C900081E090E0022E02C0880F991F0A94E2F7BB
:101CA000842B8C933EC0A1E3B0E0E1E3F0E08081BF
:101CB000482F29813A81C901880F991F280F391FA0
:101CC0008B819C81FC01E20FF31F8181282F30E082
:101CD00081E090E002C0880F991F2A95E2F7809575
:101CE00084238C93A2E3B0E0E2E3F0E08081482F0C
:101CF00029813A81C901880F991F280F391F8B81CB
:101D00009C81FC01E20FF31F8181282F30E081E0EC
:101D100090E0022E02C0880F991F0A94E2F7842BEC
:101D20008C9389819A8101969A83898389819A818A
:101D3000803291050CF410CE26960FB6F894DEBFD3
:101D40000FBECDBFCF91DF910895DF93CF93CDB775
:101D5000DEB7AFE4B0E0EFE4F0E080818E7F8C93FB
:101D6000AFE4B0E0EFE4F0E080818D7F8C93AEE4EF
:101D7000B0E0EEE4F0E08081877F8C93AEE4B0E0E9
:101D8000EEE4F0E080818F7E8C93AEE4B0E0EEE490
:101D9000F0E080818F7B8C93A9E5B0E0E9E5F0E08D
:101DA000808180628C93AEE4B0E0EEE4F0E080816C
:101DB00081608C93AEE4B0E0EEE4F0E0808182607C
:101DC0008C93AEE4B0E0EEE4F0E080818B7F8C9306
:101DD000CF91DF910895EF92FF920F931F93DF93BE
:101DE000CF9300D0CDB7DEB79A83898389819A815A
:101DF0000097D9F180E690E00E94EE1F80910202E8
:101E0000909103020E942D1D8AE690E00E94EE1F31
:101E100080910402909105020E942D1D8091020282
:101E200090910302CC01A0E0B0E024E630E040E075
:101E300050E0BC01CD010E9452207B018C01209119
:101E40000202309103028091040290910502820FF8
:101E5000931F9C0140E050E0C801B7010E9485201B
:101E6000DA01C901E981FA8180830F900F90CF9147
:101E7000DF911F910F91FF90EF900895DF93CF9323
:101E800000D0CDB7DEB79A83898389819A81009784
:101E9000E9F02091020230910302809104029091B6
:101EA0000502820F931F9C0140E050E080E492E421
:101EB000AFE0B0E0BC01CD010E948520DA01C9018C
:101EC000E981FA8180839183A283B3830F900F907D
:101ED000CF91DF9108951F920F920FB60F921124A8
:101EE0002F933F934F935F938F939F93AF93BF93A2
:101EF000EF93FF93DF93CF93CDB7DEB7E6E4F0E047
:101F0000808191819093FF018093FE018091E00197
:101F10008230F9F42091FE013091FF01809100029E
:101F200090910102A901481B590BCA01880F991F02
:101F3000880F991F909305028093040281E080939B
:101F4000E001AEE4B0E0EEE4F0E080818F7B8C93C2
:101F500022C08091E0018130F1F42091FE013091A6
:101F6000FF018091000290910102A901481B590BC9
:101F7000CA01880F991F880F991F909303028093BD
:101F8000020282E08093E001AEE4B0E0EEE4F0E033
:101F9000808180648C93E6E4F0E08081918190936D
:101FA000010280930002CF91DF91FF91EF91BF91E9
:101FB000AF919F918F915F914F913F912F910F9092
:101FC0000FBE0F901F901895DF93CF93CDB7DEB75C
:101FD000AFE5B0E0EFE5F0E0808180688C93CF91D1
:101FE000DF910895DF93CF93CDB7DEB7AFE5B0E0D3
:101FF000EFE5F0E080818F778C93CF91DF910895AA
:10200000DF93CF93CDB7DEB728970FB6F894DEBF36
:102010000FBECDBF89836A838981282F30E038873E
:102020002F838F8198858130910509F45AC02F81C3
:1020300038852230310509F4A3C08F819885009737
:1020400009F0B3C08A81282F30E03E832D838D8133
:102050009E818130910539F12D813E8122303105FB
:1020600099F08D819E81009769F1A5E5B0E0E5E5E5
:10207000F0E0808181608C93A5E5B0E0E5E5F0E0DB
:10208000808182608C9391C0A5E5B0E0E5E5F0E049
:1020900080818E7F8C93A5E5B0E0E5E5F0E080815E
:1020A00082608C9382C0A5E5B0E0E5E5F0E0808138
:1020B00081608C93A5E5B0E0E5E5F0E080818D7F5F
:1020C0008C9373C0A5E5B0E0E5E5F0E080818E7FFC
:1020D0008C93A5E5B0E0E5E5F0E080818D7F8C9301
:1020E00064C08A81282F30E03C832B838B819C81C4
:1020F0008130910539F12B813C812230310599F0F5
:102100008B819C81009769F1A5E5B0E0E5E5F0E001
:10211000808184608C93A5E5B0E0E5E5F0E0808106
:1021200088608C9342C0A5E5B0E0E5E5F0E08081F1
:102130008B7F8C93A5E5B0E0E5E5F0E080818860D9
:102140008C9333C0A5E5B0E0E5E5F0E080818460E4
:102150008C93A5E5B0E0E5E5F0E08081877F8C9386
:1021600024C0A5E5B0E0E5E5F0E080818B7F8C93AD
:10217000A5E5B0E0E5E5F0E08081877F8C9315C0B0
:102180008A81882F90E08230910541F0A4E5B0E08B
:10219000E4E5F0E0808180648C9307C0A4E5B0E0C2
:1021A000E4E5F0E080818F7B8C9328960FB6F8945D
:1021B000DEBF0FBECDBFCF91DF910895DF93CF93E8
:1021C00000D00F92CDB7DEB789838981282F30E008
:1021D0003B832A838A819B818130910589F02A8102
:1021E0003B8122303105A1F08A819B810097B9F4AF
:1021F000ABE5B0E0EBE5F0E0808180648C930FC04C
:10220000ABE5B0E0EBE5F0E0808180688C9307C03F
:10221000ABE5B0E0EBE5F0E0808180628C930F905D
:102220000F900F90CF91DF910895DF93CF9300D05F
:102230000F92CDB7DEB789838981282F30E03B83A9
:102240002A838A819B818130910589F02A813B8193
:1022500022303105A1F08A819B810097B9F4ABE56A
:10226000B0E0EBE5F0E080818F7B8C930FC0ABE5B5
:10227000B0E0EBE5F0E080818F778C9307C0ABE5B1
:10228000B0E0EBE5F0E080818F7D8C930F900F90B4
:102290000F90CF91DF910895DF93CF9300D000D0BE
:1022A0000F92CDB7DEB789837B836A838A819B8156
:1022B000009739F18981282F30E03D832C838C8170
:1022C0009D818130910581F02C813D812230310545
:1022D00091F08C819D810097A1F48A819B819093DC
:1022E0000702809306020DC08A819B8190930902A8
:1022F0008093080206C08A819B8190930B02809391
:102300000A020F900F900F900F900F90CF91DF91D6
:1023100008951F920F920FB60F9211242F933F939F
:102320004F935F936F937F938F939F93AF93BF93DD
:10233000EF93FF93DF93CF93CDB7DEB78091060283
:1023400090910702009729F0E0910602F0910702B0
:102350000995CF91DF91FF91EF91BF91AF919F913F
:102360008F917F916F915F914F913F912F910F903E
:102370000FBE0F901F9018951F920F920FB60F92DD
:1023800011242F933F934F935F936F937F938F937A
:102390009F93AF93BF93EF93FF93DF93CF93CDB70B
:1023A000DEB78091080290910902009729F0E09130
:1023B0000802F09109020995CF91DF91FF91EF9109
:1023C000BF91AF919F918F917F916F915F914F914D
:1023D0003F912F910F900FBE0F901F9018951F9255
:1023E0000F920FB60F9211242F933F934F935F9349
:1023F0006F937F938F939F93AF93BF93EF93FF93CD
:10240000DF93CF93CDB7DEB780910A0290910B0294
:10241000009729F0E0910A02F0910B020995CF9103
:10242000DF91FF91EF91BF91AF919F918F917F913C
:102430006F915F914F913F912F910F900FBE0F9031
:102440001F901895DF93CF9300D000D00F92CDB797
:10245000DEB78A836B838A81869586958695898384
:102460008981282F30E03D832C838C819D818130B0
:10247000910509F443C02C813D81223031052CF4B3
:102480008C819D81009771F0CEC02C813D812230DE
:10249000310509F465C08C819D818330910509F473
:1024A00091C0C1C08B818130A1F4ABE3B0E0EBE31C
:1024B000F0E08081482F8A81282F30E081E090E091
:1024C000022E02C0880F991F0A94E2F7842B8C9386
:1024D000AAC0ABE3B0E0EBE3F0E08081482F8A8153
:1024E000282F30E081E090E0022E02C0880F991F73
:1024F0000A94E2F7809584238C9395C08B81813078
:10250000B9F4A8E3B0E0E8E3F0E08081482F8A81E5
:10251000882F90E09C012770307081E090E0022EBF
:1025200002C0880F991F0A94E2F7842B8C937BC01A
:10253000A8E3B0E0E8E3F0E08081482F8A81882FAB
:1025400090E09C012770307081E090E0022E02C084
:10255000880F991F0A94E2F7809584238C9363C0B7
:102560008B818130B9F4A5E3B0E0E5E3F0E0808150
:10257000482F8A81882F90E09C012770307081E07D
:1025800090E0022E02C0880F991F0A94E2F7842B74
:102590008C9349C0A5E3B0E0E5E3F0E08081482FEB
:1025A0008A81882F90E09C012770307081E090E054
:1025B000022E02C0880F991F0A94E2F780958423A7
:1025C0008C9331C08B818130B9F4A2E3B0E0E2E3B7
:1025D000F0E08081482F8A81882F90E09C0127704D
:1025E000307081E090E0022E02C0880F991F0A949B
:1025F000E2F7842B8C9317C0A2E3B0E0E2E3F0E0B3
:102600008081482F8A81882F90E09C01277030704C
:1026100081E090E0022E02C0880F991F0A94E2F731
:10262000809584238C930F900F900F900F900F90B4
:10263000CF91DF910895DF93CF9300D000D00F9218
:10264000CDB7DEB78B838B818695869586958A83F9
:102650008A81282F30E03D832C834C815D8141307D
:10266000510549F18C819D818230910534F42C8192
:102670003D812115310569F059C04C815D814230A1
:10268000510569F18C819D818330910509F43BC02E
:102690004DC0E9E3F0E08081282F30E08B81882F66
:1026A00090E0A90102C0559547958A95E2F7CA01C5
:1026B000817089833BC0E6E3F0E08081282F30E021
:1026C0008B81882F90E087709070A90102C055958A
:1026D00047958A95E2F7CA018170898327C0E3E3B1
:1026E000F0E08081282F30E08B81882F90E0877088
:1026F0009070A90102C0559547958A95E2F7CA01E5
:102700008170898313C0E0E3F0E08081282F30E0FE
:102710008B81882F90E087709070A90102C0559539
:1027200047958A95E2F7CA018170898389810F9064
:102730000F900F900F900F90CF91DF910895DF933E
:10274000CF9300D000D0CDB7DEB78A838A8186953B
:1027500086958695282F30E03C832B834B815C81C6
:102760004130510509F43CC08B819C818230910538
:1027700034F42B813C812115310571F0ABC04B81C4
:102780005C814230510509F454C08B819C818330B7
:10279000910509F477C09EC0ABE3B0E0EBE3F0E055
:1027A0008081482F8A81282F30E081E090E002C0AC
:1027B000880F991F2A95E2F784278C93EBE3F0E0CA
:1027C0008081282F30E08A81882F90E0A90102C003
:1027D000559547958A95E2F7CA01817089837AC039
:1027E000A8E3B0E0E8E3F0E08081482F8A81882FF9
:1027F00090E09C012770307081E090E002C0880F6B
:10280000991F2A95E2F784278C93E8E3F0E0808112
:10281000282F30E08A81882F90E087709070A9017E
:1028200002C0559547958A95E2F7CA018170898360
:1028300051C0A5E3B0E0E5E3F0E08081482F8A8154
:10284000882F90E09C012770307081E090E002C0FA
:10285000880F991F2A95E2F784278C93E5E3F0E02F
:102860008081282F30E08A81882F90E087709070D7
:10287000A90102C0559547958A95E2F7CA01817072
:10288000898328C0A2E3B0E0E2E3F0E08081482F32
:102890008A81882F90E09C012770307081E090E061
:1028A00002C0880F991F2A95E2F784278C93E2E3F0
:1028B000F0E08081282F30E08A81882F90E08770B7
:1028C0009070A90102C0559547958A95E2F7CA0113
:1028D0008170898389810F900F900F900F90CF9115
:1028E000DF910895DF93CF9300D000D0CDB7DEB74E
:1028F00089836A838981282F30E03C832B838B81F5
:102900009C8181309105D1F02B813C8122303105B1
:102910002CF48B819C81009761F01EC02B813C813F
:102920002230310581F08B819C818330910581F0CB
:1029300013C0EBE3F0E08A8180830EC0E8E3F0E0AF
:102940008A81808309C0E5E3F0E08A81808304C046
:10295000E2E3F0E08A8180830F900F900F900F9058
:10296000CF91DF9108950F931F93DF93CF93CDB74E
:10297000DEB7C156D0400FB6F894DEBF0FBECDBF54
:10298000FE01EF59FF4F808383E060E00E94221236
:10299000FE01EF59FF4F808182958F70982F9170C3
:1029A00088E0692F0E942212FE01EF59FF4F8081BB
:1029B000829586958770982F917089E0692F0E9483
:1029C0002212FE01EF59FF4F8081829586958695F0
:1029D0008370982F91708AE0692F0E942212FE0165
:1029E000EF59FF4F8081982F991F9927991F8CE0ED
:1029F000692F0E94221282E061E00E942212FE01F1
:102A0000E35AFF4F80E090E0A0E8BFE3808391832A
:102A1000A283B3838E01075A1F4FFE01E35AFF4F73
:102A200060817181828193812BEA3AEA4AEA50E41B
:102A30000E941F02DC01CB01F80180839183A283F5
:102A4000B383FE01E75AFF4F6081718182819381D8
:102A500020E030E040E85FE30E945504882334F42E
:102A6000FE01E85AFF4F81E08083E0C0FE01E75A93
:102A7000FF4F608171818281938120E030E04FE7D8
:102A800053E40E94F50318160CF0C0C0FE01E35A8F
:102A9000FF4F608171818281938120E030E04AE7BD
:102AA00054E40E941903DC01CB01FE01EC5AFF4FF4
:102AB00080839183A283B3838E01005B1F4FFE014D
:102AC000EC5AFF4F608171818281938120E030E078
:102AD0004AE755E40E941F02DC01CB01F801808324
:102AE0009183A283B383FE01E05BFF4F608171811C
:102AF0008281938120E030E040E85FE30E9455044A
:102B0000882344F4FE01E25BFF4F81E090E0918373
:102B1000808364C0FE01E05BFF4F60817181828130
:102B2000938120E03FEF4FE757E40E94F50318162A
:102B30000CF043C0FE01EC5AFF4F6081718182812D
:102B4000938120E030E040E251E40E941F02DC016A
:102B5000CB018E01025B1F4FBC01CD010E944900D9
:102B6000DC01CB01F801918380831FC0FE01E45B8F
:102B7000FF4F80E991E091838083FE01E45BFF4F8A
:102B8000808191810197F1F7FE01E45BFF4F918312
:102B90008083DE01A25BBF4FFE01E25BFF4F8081BD
:102BA0009181019711969C938E93FE01E25BFF4FFA
:102BB000808191810097D1F64BC08E01025B1F4F3F
:102BC000FE01E05BFF4F60817181828193810E94F1
:102BD0004900DC01CB01F80191838083DE01A65B13
:102BE000BF4FFE01E25BFF4F8081918111969C9364
:102BF0008E93FE01E65BFF4F808191810197F1F793
:102C0000FE01E65BFF4F9183808322C08E01085A4C
:102C10001F4FFE01E75AFF4F6081718182819381CE
:102C20000E944900DC01CB01F8018083DE01A75B33
:102C3000BF4FFE01E85AFF4F80818C93FE01E75B96
:102C4000FF4F80818A95F1F7FE01E75BFF4F80839C
:102C500082E060E00E942212FE01EB5BFF4F80E009
:102C600090E0A0E8BFE380839183A283B3838E01C9
:102C70000F5B1F4FFE01EB5BFF4F60817181828113
:102C800093812BEA3AEA4AEA50E40E941F02DC01EF
:102C9000CB01F80180839183A283B383FE01EF5BB4
:102CA000FF4F608171818281938120E030E040E8B4
:102CB0005FE30E945504882334F481E0FE01E05C68
:102CC000FF4F80839DC0FE01EF5BFF4F60817181EC
:102CD0008281938120E030E04FE753E40E94F503C6
:102CE00018160CF07EC0FE01EB5BFF4F6081718116
:102CF0008281938120E030E04AE754E40E94190386
:102D0000DC01CB018CAF9DAFAEAFBFAF6CAD7DAD85
:102D10008EAD9FAD20E030E04AE755E40E941F02EF
:102D2000DC01CB0188AF99AFAAAFBBAF68AD79AD7D
:102D30008AAD9BAD20E030E040E85FE30E9455049F
:102D400088232CF481E090E09FAB8EAB3FC068AD50
:102D500079AD8AAD9BAD20E03FEF4FE757E40E948D
:102D6000F50318164CF56CAD7DAD8EAD9FAD20E032
:102D700030E040E251E40E941F02DC01CB01BC01C3
:102D8000CD010E944900DC01CB019FAB8EAB0FC08F
:102D900080E991E09DAB8CAB8CA99DA90197F1F7DF
:102DA0009DAB8CAB8EA99FA901979FAB8EAB8EA9D3
:102DB0009FA9009769F72DC068AD79AD8AAD9BAD2D
:102DC0000E944900DC01CB019FAB8EAB8EA99FA96D
:102DD0009BAB8AAB8AA99BA90197F1F79BAB8AAB06
:102DE00018C0FE01EF5BFF4F60817181828193818A
:102DF0000E944900DC01CB01FE01E05CFF4F8083B3
:102E0000FE01E05CFF4F808189AB89A98A95F1F7CB
:102E100089ABFE01EF59FF4F8081982F917088E0B8
:102E2000692F0E942212FE01EF59FF4F8081869583
:102E3000982F917089E0692F0E942212FE01EF59AC
:102E4000FF4F808186958695982F91708AE0692F33
:102E50000E942212FE01EF59FF4F808186958695D0
:102E60008695982F91708CE0692F0E94221282E043
:102E700061E00E94221280E090E0A0E8BFE38DA70D
:102E80009EA7AFA7B8AB6DA57EA58FA598A92BEA85
:102E90003AEA4AEA50E40E941F02DC01CB0189A70A
:102EA0009AA7ABA7BCA769A57AA58BA59CA520E08E
:102EB00030E040E85FE30E94550488231CF481E081
:102EC00088A791C069A57AA58BA59CA520E030E0D4
:102ED0004FE753E40E94F50318160CF07BC06DA574
:102EE0007EA58FA598A920E030E04AE754E40E942F
:102EF0001903DC01CB018CA39DA3AEA3BFA36CA1DE
:102F00007DA18EA19FA120E030E04AE755E40E9418
:102F10001F02DC01CB0188A399A3AAA3BBA368A1CC
:102F200079A18AA19BA120E030E040E85FE30E9404
:102F3000550488232CF481E090E09F8F8E8F3FC052
:102F400068A179A18AA19BA120E03FEF4FE757E458
:102F50000E94F50318164CF56CA17DA18EA19FA1CE
:102F600020E030E040E251E40E941F02DC01CB018E
:102F7000BC01CD010E944900DC01CB019F8F8E8FE7
:102F80000FC080E991E09D8F8C8F8C8D9D8D019776
:102F9000F1F79D8F8C8F8E8D9F8D01979F8F8E8FD8
:102FA0008E8D9F8D009769F724C068A179A18AA1B1
:102FB0009BA10E944900DC01CB019F8F8E8F8E8DDB
:102FC0009F8D9B8F8A8F8A8D9B8D0197F1F79B8FA9
:102FD0008A8F0FC069A57AA58BA59CA50E94490080
:102FE000DC01CB0188A788A5898F898D8A95F1F7A7
:102FF000898F82E060E00E94221280E090E0A0E8E9
:10300000BFE38D8B9E8BAF8BB88F6D897E898F8947
:10301000988D2BEA3AEA4AEA50E40E941F02DC014A
:10302000CB01898B9A8BAB8BBC8B69897A898B8915
:103030009C8920E030E040E85FE30E94550488234B
:103040001CF481E0888B91C069897A898B899C897D
:1030500020E030E04FE753E40E94F50318160CF02F
:103060007BC06D897E898F89988D20E030E04AE7AA
:1030700054E40E941903DC01CB018C879D87AE8745
:10308000BF876C857D858E859F8520E030E04AE78F
:1030900055E40E941F02DC01CB0188879987AA872B
:1030A000BB87688579858A859B8520E030E040E88C
:1030B0005FE30E94550488232CF481E090E09F8315
:1030C0008E833FC0688579858A859B8520E03FEFA8
:1030D0004FE757E40E94F50318164CF56C857D8583
:1030E0008E859F8520E030E040E251E40E941F027F
:1030F000DC01CB01BC01CD010E944900DC01CB0108
:103100009F838E830FC080E991E09D838C838C81A7
:103110009D810197F1F79D838C838E819F8101971B
:103120009F838E838E819F81009769F724C0688575
:1031300079858A859B850E944900DC01CB019F83AC
:103140008E838E819F819B838A838A819B81019755
:10315000F1F79B838A830FC069897A898B899C895F
:103160000E944900DC01CB01888B88898983898191
:103170008A95F1F78983CF59DF4F0FB6F894DEBFF8
:103180000FBECDBFCF91DF911F910F9108950F9387
:103190001F93DF93CF93CDB7DEB7C156D0400FB6A4
:1031A000F894DEBF0FBECDBFFE01EF59FF4F808305
:1031B00083E061E00E942212FE01EF59FF4F8081FF
:1031C00082958F70982F917088E0692F0E9422124B
:1031D000FE01EF59FF4F8081829586958770982F69
:1031E000917089E0692F0E942212FE01EF59FF4F72
:1031F00080818295869586958370982F91708AE05C
:10320000692F0E942212FE01EF59FF4F8081982FF3
:10321000991F9927991F8CE0692F0E94221282E042
:1032200061E00E942212FE01E35AFF4F80E090E02D
:10323000A0E8BFE380839183A283B3838E01075A02
:103240001F4FFE01E35AFF4F60817181828193819C
:103250002BEA3AEA4AEA50E40E941F02DC01CB0161
:10326000F80180839183A283B383FE01E75AFF4F65
:10327000608171818281938120E030E040E85FE3EA
:103280000E945504882334F4FE01E85AFF4F81E080
:103290008083E0C0FE01E75AFF4F60817181828127
:1032A000938120E030E04FE753E40E94F5031816C5
:1032B0000CF0C0C0FE01E35AFF4F60817181828132
:1032C000938120E030E04AE754E40E941903DC01D6
:1032D000CB01FE01EC5AFF4F80839183A283B3831D
:1032E0008E01005B1F4FFE01EC5AFF4F6081718120
:1032F0008281938120E030E04AE755E40E941F027A
:10330000DC01CB01F80180839183A283B383FE01AA
:10331000E05BFF4F608171818281938120E030E02A
:1033200040E85FE30E945504882344F4FE01E25B19
:10333000FF4F81E090E09183808364C0FE01E05BF9
:10334000FF4F608171818281938120E03FEF4FE7E1
:1033500057E40E94F50318160CF043C0FE01EC5A26
:10336000FF4F608171818281938120E030E040E2F3
:1033700051E40E941F02DC01CB018E01025B1F4F52
:10338000BC01CD010E944900DC01CB01F801918311
:1033900080831FC0FE01E45BFF4F80E991E09183D1
:1033A0008083FE01E45BFF4F808191810197F1F7FB
:1033B000FE01E45BFF4F91838083DE01A25BBF4F80
:1033C000FE01E25BFF4F80819181019711969C93F2
:1033D0008E93FE01E25BFF4F808191810097D1F6D1
:1033E0004BC08E01025B1F4FFE01E05BFF4F60810F
:1033F0007181828193810E944900DC01CB01F80137
:1034000091838083DE01A65BBF4FFE01E25BFF4F2D
:103410008081918111969C938E93FE01E65BFF4F14
:10342000808191810197F1F7FE01E65BFF4F918367
:10343000808322C08E01085A1F4FFE01E75AFF4FBA
:1034400060817181828193810E944900DC01CB01FE
:10345000F8018083DE01A75BBF4FFE01E85AFF4FF2
:1034600080818C93FE01E75BFF4F80818A95F1F7A5
:10347000FE01E75BFF4F808382E060E00E94221242
:10348000FE01EB5BFF4F80E090E0A0E8BFE38083AC
:103490009183A283B3838E010F5B1F4FFE01EB5B11
:1034A000FF4F60817181828193812BEA3AEA4AEA77
:1034B00050E40E941F02DC01CB01F801808391835C
:1034C000A283B383FE01EF5BFF4F60817181828134
:1034D000938120E030E040E85FE30E9455048823B8
:1034E00034F481E0FE01E05CFF4F80839DC0FE016B
:1034F000EF5BFF4F608171818281938120E030E03A
:103500004FE753E40E94F50318160CF07EC0FE014D
:10351000EB5BFF4F608171818281938120E030E01D
:103520004AE754E40E941903DC01CB018CAF9DAF44
:10353000AEAFBFAF6CAD7DAD8EAD9FAD20E030E0E6
:103540004AE755E40E941F02DC01CB0188AF99AF26
:10355000AAAFBBAF68AD79AD8AAD9BAD20E030E0DE
:1035600040E85FE30E94550488232CF481E090E05A
:103570009FAB8EAB3FC068AD79AD8AAD9BAD20E00F
:103580003FEF4FE757E40E94F50318164CF56CAD7A
:103590007DAD8EAD9FAD20E030E040E251E40E9471
:1035A0001F02DC01CB01BC01CD010E944900DC01FE
:1035B000CB019FAB8EAB0FC080E991E09DAB8CAB94
:1035C0008CA99DA90197F1F79DAB8CAB8EA99FA902
:1035D00001979FAB8EAB8EA99FA9009769F72DC06D
:1035E00068AD79AD8AAD9BAD0E944900DC01CB018D
:1035F0009FAB8EAB8EA99FA99BAB8AAB8AA99BA9D7
:103600000197F1F79BAB8AAB18C0FE01EF5BFF4F50
:1036100060817181828193810E944900DC01CB012C
:10362000FE01E05CFF4F8083FE01E05CFF4F808184
:1036300089AB89A98A95F1F789ABFE01EF59FF4F54
:103640008081982F917088E0692F0E942212FE01DC
:10365000EF59FF4F80818695982F917089E0692FEF
:103660000E942212FE01EF59FF4F808186958695B8
:10367000982F91708AE0692F0E942212FE01EF5963
:10368000FF4F8081869586958695982F91708CE066
:10369000692F0E94221282E061E00E94221280E0E3
:1036A00090E0A0E8BFE38DA79EA7AFA7B8AB6DA53C
:1036B0007EA58FA598A92BEA3AEA4AEA50E40E942F
:1036C0001F02DC01CB0189A79AA7ABA7BCA769A5FC
:1036D0007AA58BA59CA520E030E040E85FE30E943E
:1036E000550488231CF481E088A791C069A57AA5B8
:1036F0008BA59CA520E030E04FE753E40E94F50342
:1037000018160CF07BC06DA57EA58FA598A920E0AA
:1037100030E04AE754E40E941903DC01CB018CA39A
:103720009DA3AEA3BFA36CA17DA18EA19FA120E00C
:1037300030E04AE755E40E941F02DC01CB0188A378
:1037400099A3AAA3BBA368A179A18AA19BA120E008
:1037500030E040E85FE30E94550488232CF481E0C8
:1037600090E09F8F8E8F3FC068A179A18AA19BA115
:1037700020E03FEF4FE757E40E94F50318164CF5A1
:103780006CA17DA18EA19FA120E030E040E251E438
:103790000E941F02DC01CB01BC01CD010E94490047
:1037A000DC01CB019F8F8E8F0FC080E991E09D8F50
:1037B0008C8F8C8D9D8D0197F1F79D8F8C8F8E8DC9
:1037C0009F8D01979F8F8E8F8E8D9F8D009769F7AC
:1037D00024C068A179A18AA19BA10E944900DC01B3
:1037E000CB019F8F8E8F8E8D9F8D9B8F8A8F8A8D21
:1037F0009B8D0197F1F79B8F8A8F0FC069A57AA5E2
:103800008BA59CA50E944900DC01CB0188A788A557
:10381000898F898D8A95F1F7898F82E060E00E9417
:10382000221280E090E0A0E2B1E48D8B9E8BAF8B02
:10383000B88F6D897E898F89988D2BEA3AEA4AEA9A
:1038400050E40E941F02DC01CB01898B9A8BAB8B69
:10385000BC8B69897A898B899C8920E030E040E8BB
:103860005FE30E94550488231CF481E0888B91C09B
:1038700069897A898B899C8920E030E04FE753E49D
:103880000E94F50318160CF07BC06D897E898F8924
:10389000988D20E030E04AE754E40E941903DC01EF
:1038A000CB018C879D87AE87BF876C857D858E8594
:1038B0009F8520E030E04AE755E40E941F02DC01CA
:1038C000CB0188879987AA87BB87688579858A8590
:1038D0009B8520E030E040E85FE30E9455048823A8
:1038E0002CF481E090E09F838E833FC068857985CA
:1038F0008A859B8520E03FEF4FE757E40E94F50360
:1039000018164CF56C857D858E859F8520E030E00E
:1039100040E251E40E941F02DC01CB01BC01CD0159
:103920000E944900DC01CB019F838E830FC080E998
:1039300091E09D838C838C819D810197F1F79D831C
:103940008C838E819F8101979F838E838E819F813F
:10395000009769F724C0688579858A859B850E94D0
:103960004900DC01CB019F838E838E819F819B83E5
:103970008A838A819B810197F1F79B838A830FC099
:1039800069897A898B899C890E944900DC01CB0175
:10399000888B8889898389818A95F1F78983CF59B2
:1039A000DF4F0FB6F894DEBF0FBECDBFCF91DF91D2
:1039B0001F910F910895DF93CF9300D000D0CDB722
:1039C000DEB789836A838A8181508A838981282F1F
:1039D00030E03C832B838B819C8182309105D9F030
:1039E0002B813C812330310534F48B819C818130E3
:1039F000910561F01EC02B813C812330310581F09F
:103A00008B819C818430910581F013C08A8180581C
:103A10000E94B3140EC08A8180540E94B31409C05E
:103A20008A818C560E94B31404C08A818C520E94F1
:103A3000B3140F900F900F900F90CF91DF910895D6
:103A4000DF93CF930F92CDB7DEB7898389810E9430
:103A5000C7180F90CF91DF910895DF93CF9300D0D7
:103A600000D0CDB7DEB769837A838B839C8389814D
:103A70009A81AB81BC810097A105B10519F18981BB
:103A80009A81AB81BC812AE030E040E050E0BC018B
:103A9000CD010E948520DA01C901BC01CD010E943F
:103AA0002D1D89819A81AB81BC812AE030E040E004
:103AB00050E0BC01CD010E948520DC01CB01805D7E
:103AC0000E94C7180F900F900F900F90CF91DF9129
:103AD00008950F931F93DF93CF93CDB7DEB7C654EE
:103AE000D0400FB6F894DEBF0FBECDBFFE01ED5B38
:103AF000FF4F80E090E0A8E4B2E480839183A2834A
:103B0000B3838E01015C1F4FFE01ED5BFF4F6081AF
:103B100071818281938120E030E04AE755E40E9480
:103B20001F02DC01CB01F80180839183A283B38360
:103B3000FE01FF96608171818281938120E030E0F7
:103B400040E85FE30E94550488232CF481E090E074
:103B50009EAF8DAF46C0FE01FF966081718182816C
:103B6000938120E03FEF4FE757E40E94F5031816DA
:103B700064F5FE01ED5BFF4F60817181828193816D
:103B800020E030E040E251E40E941F02DC01CB0162
:103B9000BC01CD010E944900DC01CB019EAF8DAF7D
:103BA0000FC080E991E09CAF8BAF8BAD9CAD0197CE
:103BB000F1F79CAF8BAF8DAD9EAD01979EAF8DAFF2
:103BC0008DAD9EAD009769F716C0FE01FF9660812E
:103BD0007181828193810E944900DC01CB019EAFFB
:103BE0008DAF8DAD9EAD9AAF89AF89AD9AAD01977E
:103BF000F1F79AAF89AF82E00E94B31488E20E9485
:103C0000B31480E090E0A0E8BFE38DAB9EABAFAB18
:103C1000B8AF6DA97EA98FA998AD20E030E04AE742
:103C200055E40E941F02DC01CB0189AB9AABABAB20
:103C3000BCAB69A97AA98BA99CA920E030E040E837
:103C40005FE30E94550488232CF481E090E098AB58
:103C50008FA73FC069A97AA98BA99CA920E03FEF53
:103C60004FE757E40E94F50318164CF56DA97EA99D
:103C70008FA998AD20E030E040E251E40E941F029D
:103C8000DC01CB01BC01CD010E944900DC01CB016C
:103C900098AB8FA70FC080E991E09EA78DA78DA557
:103CA0009EA50197F1F79EA78DA78FA598A90197CB
:103CB00098AB8FA78FA598A9009769F714C069A939
:103CC0007AA98BA99CA90E944900DC01CB0198AB81
:103CD0008FA78FA598A99CA78BA78BA59CA50197BB
:103CE000F1F79CA78BA78FE00E94B31480E090E0CF
:103CF000A0E8BFE38FA398A7A9A7BAA76FA178A54B
:103D000089A59AA520E030E04AE755E40E941F0209
:103D1000DC01CB018BA39CA3ADA3BEA36BA17CA1B3
:103D20008DA19EA120E030E040E85FE30E945504B1
:103D300088232CF481E090E09AA389A33FC06BA173
:103D40007CA18DA19EA120E03FEF4FE757E40E94A8
:103D5000F50318164CF56FA178A589A59AA520E062
:103D600030E040E251E40E941F02DC01CB01BC01C3
:103D7000CD010E944900DC01CB019AA389A30FC0A9
:103D800080E991E098A38F8F8F8D98A10197F1F72B
:103D900098A38F8F89A19AA101979AA389A389A13A
:103DA0009AA1009769F714C06BA17CA18DA19EA177
:103DB0000E944900DC01CB019AA389A389A19AA1A1
:103DC0009E8F8D8F8D8D9E8D0197F1F79E8F8D8F9C
:103DD00081E00E94B31480E090E0A0E8BFE3898F07
:103DE0009A8FAB8FBC8F698D7A8D8B8D9C8D20E0E7
:103DF00030E04AE755E40E941F02DC01CB018D8BC5
:103E00009E8BAF8BB88F6D897E898F89988D20E0CE
:103E100030E040E85FE30E94550488232CF481E001
:103E200090E09C8B8B8B3FC06D897E898F89988DAC
:103E300020E03FEF4FE757E40E94F50318164CF5DA
:103E4000698D7A8D8B8D9C8D20E030E040E251E4CD
:103E50000E941F02DC01CB01BC01CD010E94490080
:103E6000DC01CB019C8B8B8B0FC080E991E09A8B9E
:103E7000898B89899A890197F1F79A8B898B8B892C
:103E80009C8901979C8B8B8B8B899C89009769F708
:103E900014C06D897E898F89988D0E944900DC014C
:103EA000CB019C8B8B8B8B899C89988B8F878F8583
:103EB00098890197F1F7988B8F8786E00E94B31459
:103EC00080E090E0A0E8BFE38B879C87AD87BE874A
:103ED0006B857C858D859E8520E030E04AE755E442
:103EE0000E941F02DC01CB018F839887A987BA87C4
:103EF0006F81788589859A8520E030E040E85FE32E
:103F00000E94550488232CF481E090E09E838D83E9
:103F10003FC06F81788589859A8520E03FEF4FE724
:103F200057E40E94F50318164CF56B857C858D854A
:103F30009E8520E030E040E251E40E941F02DC0157
:103F4000CB01BC01CD010E944900DC01CB019E8365
:103F50008D830FC080E991E09C838B838B819C8152
:103F60000197F1F79C838B838D819E8101979E83BE
:103F70008D838D819E81009769F714C06F8178854C
:103F800089859A850E944900DC01CB019E838D833F
:103F90008D819E819A83898389819A810197F1F726
:103FA0009A8389838CE00E94B31480E80E94B31442
:103FB000CA5BDF4F0FB6F894DEBF0FBECDBFCF9107
:103FC000DF911F910F910895DF93CF93CDB7DEB7A7
:103FD00081E00E94B314CF91DF910895DF93CF93D6
:103FE00000D0CDB7DEB79A8389830AC0E981FA8110
:103FF00080810E94201D89819A8101969A838983FC
:10400000E981FA818081882389F70F900F90CF9101
:10401000DF910895DF93CF9300D00F92CDB7DEB735
:1040200089836A834B838A816B810E94DB1C89812F
:104030000E94C7180F900F900F90CF91DF910895B5
:10404000DF93CF9300D000D0CDB7DEB79A838983BA
:104050006B834C838B816C810E94DB1C89819A81EC
:104060000E94EE1F0F900F900F900F90CF91DF9155
:104070000895DF93CF9300D00F92CDB7DEB78DE7D1
:1040800091E00E949E0C0E94E40F0E94691D0E9414
:10409000A50ECE0101960E94EB0ECE0102960E9463
:1040A0003E0FFFCF629FD001739FF001829FE00D12
:1040B000F11D649FE00DF11D929FF00D839FF00DA7
:1040C000749FF00D659FF00D9927729FB00DE11D53
:1040D000F91F639FB00DE11DF91FBD01CF01112430
:1040E0000895AA1BBB1B51E107C0AA1FBB1FA6173F
:1040F000B70710F0A61BB70B881F991F5A95A9F791
:1041000080959095BC01CD010895A1E21A2EAA1BBD
:10411000BB1BFD010DC0AA1FBB1FEE1FFF1FA21777
:10412000B307E407F50720F0A21BB30BE40BF50B74
:10413000661F771F881F991F1A9469F760957095FD
:10414000809590959B01AC01BD01CF0108952F9200
:104150003F924F925F926F927F928F929F92AF9217
:10416000BF92CF92DF92EF92FF920F931F93CF9364
:10417000DF93CDB7DEB7CA1BDB0B0FB6F894DEBFFB
:104180000FBECDBF09942A88398848885F846E8421
:104190007D848C849B84AA84B984C884DF80EE806B
:1041A000FD800C811B81AA81B981CE0FD11D0FB674
:1041B000F894DEBF0FBECDBFED010895F894FFCF98
:1041C0004F4E506572696F6420004F66665065728D
:1041D000696F642000000000000000000000010280
:1041E0000203030303040404040404040405050592
:1041F000050505050505050505050505050606066C
:10420000060606060606060606060606060606064E
:10421000060606060606060606060606060707073B
:10422000070707070707070707070707070707071E
:10423000070707070707070707070707070707070E
:1042400007070707070707070707070707070707FE
:1042500007070707070707070707070707080808EB
:1042600008080808080808080808080808080808CE
:1042700008080808080808080808080808080808BE
:1042800008080808080808080808080808080808AE
:10429000080808080808080808080808080808089E
:1042A000080808080808080808080808080808088E
:1042B000080808080808080808080808080808087E
:1042C000080808080808080808080808080808086E
:1042D0000808080808080808080808080801040170
:1042E00000030100020101000101010101020103BB
:1042F0000600FF00000000000000000000000000B9
:1043000000000000000000000000000000000000AD
:10431000000000000000000000000000000000009D
:10432000000000000000000000000000000000008D
:10433000000000000000000000000000000000007D
:0243400001007A
:00000001FF
